Microchip Technology Inc, vv3_25 (A) >

Tool Name:
  c:\program files\microchip\mplabc30\v3.25\bin\bin\..\bin/pic30-coff-ld.exe

Command:
  -p24FJ64GB004 \
  -oPIC24boot.cof \
  -Lc:/program files/microchip/mplabc30/v3.25/bin/bin/.. \
  -Lc:/program files/microchip/mplabc30/v3.25/bin/bin/../../lib \
  -Lc:/program files/microchip/mplabc30/v3.25/bin/bin/../../support/generic/gld \
  -Lc:/program files/microchip/mplabc30/v3.25/bin/bin/../../lib/PIC24F \
  -Lc:/program files/microchip/mplabc30/v3.25/bin/bin/../../support/PIC24F/gld \
  -Lc:/program files/microchip/mplabc30/v3.25/bin/bin/../../lib/PIC24H \
  -Lc:/program files/microchip/mplabc30/v3.25/bin/bin/../../support/PIC24H/gld \
  -Lc:/program files/microchip/mplabc30/v3.25/bin/bin/../../lib/dsPIC30F \
  -Lc:/program files/microchip/mplabc30/v3.25/bin/bin/../../support/dsPIC30F/gld \
  -Lc:/program files/microchip/mplabc30/v3.25/bin/bin/../../lib/dsPIC33F \
  -Lc:/program files/microchip/mplabc30/v3.25/bin/bin/../../support/dsPIC33F/gld \
  Objects\USB Device - HID Bootloader - C30\usb_descriptors.o \
  Objects\USB Device - HID Bootloader - C30\main.o \
  Objects\USB Device - HID Bootloader - C30\usb_function_hid.o \
  Objects\USB Device - HID Bootloader - C30\usb_device.o \
  Objects\USB Device - HID Bootloader - C30\usb_hal_pic24.o \
  -LC:\Program Files\Microchip\MPLAB C30\lib \
  -Tboot_hid_boot_p24FJ64GB004.gld.00 \
  --defsym=__MPLAB_BUILD=1 \
  -Map=PIC24boot.map \
  --report-mem \
  -start-group \
  --library=pic30-coff \
  --library=m-coff \
  --library=c-coff \
  -end-group \

Archive member included because of file (symbol)

c:/program files/microchip/mplabc30/v3.25/bin/bin/../../lib\libpic30-coff.a(crt0_standard.o)
                              (_resetPRI)
c:/program files/microchip/mplabc30/v3.25/bin/bin/../../lib\libpic30-coff.a(data_init_standard.o)
                              c:/program files/microchip/mplabc30/v3.25/bin/bin/../../lib\libpic30-coff.a(crt0_standard.o) (_data_init_standard)
c:/program files/microchip/mplabc30/v3.25/bin/bin/../../lib\libc-coff.a(memset.o)
                              Objects\USB Device - HID Bootloader - C30\usb_device.o (memset)


Program Memory  [Origin = 0x400, Length = 0x1000]

section                    address   length (PC units)   length (bytes) (dec)
-------                    -------   -----------------   --------------------
.text                        0x400                0x9e            0xed  (237)
.const                       0x49e                0xc0           0x120  (288)
.text                        0x55e               0xc66          0x1299  (4761)
.dinit                      0x11c4                0x2a            0x3f  (63)
.isr                        0x11ee                 0x2             0x3  (3)

                     Total program memory used (bytes):         0x14e8  (5352) 87%


Data Memory  [Origin = 0x800, Length = 0x1fff]

section                    address      alignment gaps    total length  (dec)
-------                    -------      --------------    -------------------
_0171a54055e73d96            0x800                   0            0x10  (16)
USB_VARS                     0x810                   0            0xc0  (192)
.nbss                        0x8d0                   0            0x9c  (156)
.ndata                       0x96c                   0             0x6  (6)
.nbss                        0x972                   0             0x2  (2)

                        Total data memory used (bytes):          0x174  (372) 4%


Dynamic Memory Usage

region                     address                      maximum length  (dec)
------                     -------                      ---------------------
heap                             0                                   0  (0)
stack                        0x974                              0x1e8c  (7820)

                        Maximum dynamic memory (bytes):         0x1e8c  (7820)


External Symbols in Data Memory (by address):

                    0x0800                  _BDT
                    0x0810                  _PacketFromPCBuffer
                    0x0850                  _PacketToPC
                    0x0890                  _PacketFromPC
                    0x08d2                  _ConfigsProtected
                    0x08d4                  _ProgrammedPointer
                    0x08d8                  _BufferedDataIndex
                    0x08da                  _ProgrammingBuffer
                    0x091a                  _ErasePageTracker
                    0x091b                  _BootState
                    0x091c                  _ProgramMemStopAddress
                    0x0920                  _MaxPageToErase
                    0x0922                  _CtrlTrfData
                    0x092a                  _SetupPkt
                    0x0932                  _USBStatusStageEnabledFlag2
                    0x0934                  _USBStatusStageEnabledFlag1
                    0x0936                  _USBStatusStageTimeoutCounter
                    0x0937                  _ep_data_out
                    0x0939                  _ep_data_in
                    0x093c                  _BothEP0OutUOWNsSet
                    0x093e                  _endpoint_number
                    0x093f                  _USTATcopy
                    0x0940                  _pDst
                    0x0942                  _controlTransferState
                    0x0943                  _shortPacketStatus
                    0x0944                  _pBDTEntryEP0OutNext
                    0x0946                  _pBDTEntryEP0OutCurrent
                    0x0948                  _USBAlternateInterface
                    0x094a                  _pBDTEntryIn
                    0x094e                  _pBDTEntryOut
                    0x0952                  _outPipes
                    0x0959                  _USBActiveConfiguration
                    0x095a                  _USBDeviceState
                    0x095c                  _USBBusIsSuspended
                    0x095e                  _RemoteWakeup
                    0x0960                  _inPipes
                    0x0966                  _USBDeferINDataStagePackets
                    0x0968                  _USBDeferStatusStagePacket
                    0x096a                  _USBDeferOUTDataStagePackets
                    0x096c                  _blinkStatusValid
                    0x096e                  _USBInHandle
                    0x0970                  _USBOutHandle
                    0x0972                  _active_protocol
                    0x0973                  _idle_rate

External Symbols in Data Memory (by name):

                    0x0800                  _BDT
                    0x091b                  _BootState
                    0x093c                  _BothEP0OutUOWNsSet
                    0x08d8                  _BufferedDataIndex
                    0x08d2                  _ConfigsProtected
                    0x0922                  _CtrlTrfData
                    0x091a                  _ErasePageTracker
                    0x0920                  _MaxPageToErase
                    0x0890                  _PacketFromPC
                    0x0810                  _PacketFromPCBuffer
                    0x0850                  _PacketToPC
                    0x091c                  _ProgramMemStopAddress
                    0x08d4                  _ProgrammedPointer
                    0x08da                  _ProgrammingBuffer
                    0x095e                  _RemoteWakeup
                    0x092a                  _SetupPkt
                    0x0959                  _USBActiveConfiguration
                    0x0948                  _USBAlternateInterface
                    0x095c                  _USBBusIsSuspended
                    0x0966                  _USBDeferINDataStagePackets
                    0x096a                  _USBDeferOUTDataStagePackets
                    0x0968                  _USBDeferStatusStagePacket
                    0x095a                  _USBDeviceState
                    0x096e                  _USBInHandle
                    0x0970                  _USBOutHandle
                    0x0934                  _USBStatusStageEnabledFlag1
                    0x0932                  _USBStatusStageEnabledFlag2
                    0x0936                  _USBStatusStageTimeoutCounter
                    0x093f                  _USTATcopy
                    0x0972                  _active_protocol
                    0x096c                  _blinkStatusValid
                    0x0942                  _controlTransferState
                    0x093e                  _endpoint_number
                    0x0939                  _ep_data_in
                    0x0937                  _ep_data_out
                    0x0973                  _idle_rate
                    0x0960                  _inPipes
                    0x0952                  _outPipes
                    0x0946                  _pBDTEntryEP0OutCurrent
                    0x0944                  _pBDTEntryEP0OutNext
                    0x094a                  _pBDTEntryIn
                    0x094e                  _pBDTEntryOut
                    0x0940                  _pDst
                    0x0943                  _shortPacketStatus

External Symbols in Program Memory (by address):

                  0x000400                  __resetPRI
                  0x000422                  __psv_init
                  0x000432                  __data_init_standard
                  0x000432                  __data_init
                  0x000490                  _memset
                  0x00049e                  _USB_SD_Ptr
                  0x0004a4                  _USB_CD_Ptr
                  0x0004a6                  _hid_rpt01
                  0x0004c4                  _sd002
                  0x0004ea                  _sd001
                  0x00051e                  _sd000
                  0x000522                  _configDescriptor1
                  0x00054c                  _device_dsc
                  0x00055e                  _USBDeviceInit
                  0x0005ee                  _USBCtrlEPAllowStatusStage
                  0x00064e                  _USBEnableEndpoint
                  0x000678                  _USBTransferOnePacket
                  0x0006ae                  _USBStallEndpoint
                  0x0006e0                  _USBCancelIO
                  0x000760                  _USBCtrlEPAllowDataStage
                  0x0007ae                  _USBDeviceTasks
                  0x000d1a                  _UserInit
                  0x000d40                  _EraseFlash
                  0x000d70                  _WriteFlashSubBlock
                  0x000dac                  _ReadProgramMemory
                  0x000dc6                  _BootApplication
                  0x001042                  _ProcessIO
                  0x001052                  _main
                  0x001082                  _USBCBSuspend
                  0x001084                  _USBCBWakeFromSuspend
                  0x001086                  _USBCB_SOF_Handler
                  0x001088                  _USBCBErrorHandler
                  0x00108a                  _USBCBCheckOtherReq
                  0x00108c                  _USBCBStdSetDscHandler
                  0x00108e                  _USBCBInitEP
                  0x0010a2                  _USBCBSendResume
                  0x0010d2                  _USER_USB_CALLBACK_EVENT_HANDLER
                  0x0010e4                  _USBCheckHIDRequest
                  0x001174                  _USBSleepOnSuspend
                  0x0011ee                  __DefaultInterrupt
                  0x0014c0                  __DEFAULT_VECTOR

External Symbols in Program Memory (by name):

                  0x000dc6                  _BootApplication
                  0x000d40                  _EraseFlash
                  0x001042                  _ProcessIO
                  0x000dac                  _ReadProgramMemory
                  0x00108a                  _USBCBCheckOtherReq
                  0x001088                  _USBCBErrorHandler
                  0x00108e                  _USBCBInitEP
                  0x0010a2                  _USBCBSendResume
                  0x00108c                  _USBCBStdSetDscHandler
                  0x001082                  _USBCBSuspend
                  0x001084                  _USBCBWakeFromSuspend
                  0x001086                  _USBCB_SOF_Handler
                  0x0006e0                  _USBCancelIO
                  0x0010e4                  _USBCheckHIDRequest
                  0x000760                  _USBCtrlEPAllowDataStage
                  0x0005ee                  _USBCtrlEPAllowStatusStage
                  0x00055e                  _USBDeviceInit
                  0x0007ae                  _USBDeviceTasks
                  0x00064e                  _USBEnableEndpoint
                  0x001174                  _USBSleepOnSuspend
                  0x0006ae                  _USBStallEndpoint
                  0x000678                  _USBTransferOnePacket
                  0x0004a4                  _USB_CD_Ptr
                  0x00049e                  _USB_SD_Ptr
                  0x0010d2                  _USER_USB_CALLBACK_EVENT_HANDLER
                  0x000d1a                  _UserInit
                  0x000d70                  _WriteFlashSubBlock
                  0x0014c0                  __DEFAULT_VECTOR
                  0x0011ee                  __DefaultInterrupt
                  0x000432                  __data_init
                  0x000432                  __data_init_standard
                  0x000422                  __psv_init
                  0x000400                  __resetPRI
                  0x000522                  _configDescriptor1
                  0x00054c                  _device_dsc
                  0x0004a6                  _hid_rpt01
                  0x001052                  _main
                  0x000490                  _memset
                  0x00051e                  _sd000
                  0x0004ea                  _sd001
                  0x0004c4                  _sd002

Memory Configuration

Name             Origin             Length             Attributes
data             0x000800           0x001fff           a !xr
reset            0x000000           0x000004  
ivt              0x000004           0x0000fc  
aivt             0x000104           0x0000fc  
program          0x000400           0x001000           xr
app_ivt          0x001404           0x0000c0  
CONFIG4          0x00abf8           0x000002  
CONFIG3          0x00abfa           0x000002  
CONFIG2          0x00abfc           0x000002  
CONFIG1          0x00abfe           0x000002  
*default*        0x000000           0xffffffff  

Linker script and memory map

LOAD Objects\USB Device - HID Bootloader - C30\usb_descriptors.o
LOAD Objects\USB Device - HID Bootloader - C30\main.o
LOAD Objects\USB Device - HID Bootloader - C30\usb_function_hid.o
LOAD Objects\USB Device - HID Bootloader - C30\usb_device.o
LOAD Objects\USB Device - HID Bootloader - C30\usb_hal_pic24.o
LOAD c:/program files/microchip/mplabc30/v3.25/bin/bin/../../lib/PIC24F\libpPIC24Fxxx-coff.a
                    0xabf8                  __CONFIG4 = 0xabf8
                    0xabfa                  __CONFIG3 = 0xabfa
                    0xabfc                  __CONFIG2 = 0xabfc
                    0xabfe                  __CONFIG1 = 0xabfe
                    0x0001                  __NO_HANDLES = 0x1
                    0x0004                  __IVT_BASE = 0x4
                    0x0104                  __AIVT_BASE = 0x104
                    0x0800                  __DATA_BASE = 0x800
                    0x0400                  __CODE_BASE = 0x400
                    0x1404                  __APP_IVT_BASE = 0x1404

.reset            0x000000          0x4
                  0x000000          0x2 SHORT 0x400 <code 339> (__reset)
                  0x000001          0x2 SHORT 0x4
                  0x000002          0x2 SHORT 0x0 ((<code 339> (__reset) >> 0x10) & 0x7f)
                  0x000003          0x2 SHORT 0x0

.application_ivt
                  0x001404         0xc0
                  0x001404          0x2 SHORT 0x400 <code 339> (__reset)
                  0x001405          0x2 SHORT 0x4
                  0x001406          0x2 SHORT 0x0 ((<code 339> (__reset) >> 0x10) & 0x7f)
                  0x001407          0x2 SHORT 0x0
                  0x001408          0x2 SHORT 0x11ee DEFINED (__DefaultInterrupt)?<code 339> (__DefaultInterrupt):<code 339> (__DefaultInterrupt)
                  0x001409          0x2 SHORT 0x4
                  0x00140a          0x2 SHORT 0x0 DEFINED (__DefaultInterrupt)?((<code 339> (__DefaultInterrupt) >> 0x10) & 0x7f):((<code 339> (__DefaultInterrupt) >> 0x10) & 0x7f)
                  0x00140b          0x2 SHORT 0x0
                  0x00140c          0x2 SHORT 0x11ee DEFINED (__OscillatorFail)?<code 339> (__OscillatorFail):<code 339> (__DefaultInterrupt)
                  0x00140d          0x2 SHORT 0x4
                  0x00140e          0x2 SHORT 0x0 DEFINED (__OscillatorFail)?((<code 339> (__OscillatorFail) >> 0x10) & 0x7f):((<code 339> (__DefaultInterrupt) >> 0x10) & 0x7f)
                  0x00140f          0x2 SHORT 0x0
                  0x001410          0x2 SHORT 0x11ee DEFINED (__AddressError)?<code 339> (__AddressError):<code 339> (__DefaultInterrupt)
                  0x001411          0x2 SHORT 0x4
                  0x001412          0x2 SHORT 0x0 DEFINED (__AddressError)?((<code 339> (__AddressError) >> 0x10) & 0x7f):((<code 339> (__DefaultInterrupt) >> 0x10) & 0x7f)
                  0x001413          0x2 SHORT 0x0
                  0x001414          0x2 SHORT 0x11ee DEFINED (__StackError)?<code 339> (__StackError):<code 339> (__DefaultInterrupt)
                  0x001415          0x2 SHORT 0x4
                  0x001416          0x2 SHORT 0x0 DEFINED (__StackError)?((<code 339> (__StackError) >> 0x10) & 0x7f):((<code 339> (__DefaultInterrupt) >> 0x10) & 0x7f)
                  0x001417          0x2 SHORT 0x0
                  0x001418          0x2 SHORT 0x11ee DEFINED (__MathError)?<code 339> (__MathError):<code 339> (__DefaultInterrupt)
                  0x001419          0x2 SHORT 0x4
                  0x00141a          0x2 SHORT 0x0 DEFINED (__MathError)?((<code 339> (__MathError) >> 0x10) & 0x7f):((<code 339> (__DefaultInterrupt) >> 0x10) & 0x7f)
                  0x00141b          0x2 SHORT 0x0
                  0x00141c          0x2 SHORT 0x11ee DEFINED (__INT0Interrupt)?<code 339> (__INT0Interrupt):<code 339> (__DefaultInterrupt)
                  0x00141d          0x2 SHORT 0x4
                  0x00141e          0x2 SHORT 0x0 DEFINED (__INT0Interrupt)?((<code 339> (__INT0Interrupt) >> 0x10) & 0x7f):((<code 339> (__DefaultInterrupt) >> 0x10) & 0x7f)
                  0x00141f          0x2 SHORT 0x0
                  0x001420          0x2 SHORT 0x11ee DEFINED (__IC1Interrupt)?<code 339> (__IC1Interrupt):<code 339> (__DefaultInterrupt)
                  0x001421          0x2 SHORT 0x4
                  0x001422          0x2 SHORT 0x0 DEFINED (__IC1Interrupt)?((<code 339> (__IC1Interrupt) >> 0x10) & 0x7f):((<code 339> (__DefaultInterrupt) >> 0x10) & 0x7f)
                  0x001423          0x2 SHORT 0x0
                  0x001424          0x2 SHORT 0x11ee DEFINED (__OC1Interrupt)?<code 339> (__OC1Interrupt):<code 339> (__DefaultInterrupt)
                  0x001425          0x2 SHORT 0x4
                  0x001426          0x2 SHORT 0x0 DEFINED (__OC1Interrupt)?((<code 339> (__OC1Interrupt) >> 0x10) & 0x7f):((<code 339> (__DefaultInterrupt) >> 0x10) & 0x7f)
                  0x001427          0x2 SHORT 0x0
                  0x001428          0x2 SHORT 0x11ee DEFINED (__T1Interrupt)?<code 339> (__T1Interrupt):<code 339> (__DefaultInterrupt)
                  0x001429          0x2 SHORT 0x4
                  0x00142a          0x2 SHORT 0x0 DEFINED (__T1Interrupt)?((<code 339> (__T1Interrupt) >> 0x10) & 0x7f):((<code 339> (__DefaultInterrupt) >> 0x10) & 0x7f)
                  0x00142b          0x2 SHORT 0x0
                  0x00142c          0x2 SHORT 0x11ee DEFINED (__IC2Interrupt)?<code 339> (__IC2Interrupt):<code 339> (__DefaultInterrupt)
                  0x00142d          0x2 SHORT 0x4
                  0x00142e          0x2 SHORT 0x0 DEFINED (__IC2Interrupt)?((<code 339> (__IC2Interrupt) >> 0x10) & 0x7f):((<code 339> (__DefaultInterrupt) >> 0x10) & 0x7f)
                  0x00142f          0x2 SHORT 0x0
                  0x001430          0x2 SHORT 0x11ee DEFINED (__OC2Interrupt)?<code 339> (__OC2Interrupt):<code 339> (__DefaultInterrupt)
                  0x001431          0x2 SHORT 0x4
                  0x001432          0x2 SHORT 0x0 DEFINED (__OC2Interrupt)?((<code 339> (__OC2Interrupt) >> 0x10) & 0x7f):((<code 339> (__DefaultInterrupt) >> 0x10) & 0x7f)
                  0x001433          0x2 SHORT 0x0
                  0x001434          0x2 SHORT 0x11ee DEFINED (__T2Interrupt)?<code 339> (__T2Interrupt):<code 339> (__DefaultInterrupt)
                  0x001435          0x2 SHORT 0x4
                  0x001436          0x2 SHORT 0x0 DEFINED (__T2Interrupt)?((<code 339> (__T2Interrupt) >> 0x10) & 0x7f):((<code 339> (__DefaultInterrupt) >> 0x10) & 0x7f)
                  0x001437          0x2 SHORT 0x0
                  0x001438          0x2 SHORT 0x11ee DEFINED (__T3Interrupt)?<code 339> (__T3Interrupt):<code 339> (__DefaultInterrupt)
                  0x001439          0x2 SHORT 0x4
                  0x00143a          0x2 SHORT 0x0 DEFINED (__T3Interrupt)?((<code 339> (__T3Interrupt) >> 0x10) & 0x7f):((<code 339> (__DefaultInterrupt) >> 0x10) & 0x7f)
                  0x00143b          0x2 SHORT 0x0
                  0x00143c          0x2 SHORT 0x11ee DEFINED (__SPI1ErrInterrupt)?<code 339> (__SPI1ErrInterrupt):<code 339> (__DefaultInterrupt)
                  0x00143d          0x2 SHORT 0x4
                  0x00143e          0x2 SHORT 0x0 DEFINED (__SPI1ErrInterrupt)?((<code 339> (__SPI1ErrInterrupt) >> 0x10) & 0x7f):((<code 339> (__DefaultInterrupt) >> 0x10) & 0x7f)
                  0x00143f          0x2 SHORT 0x0
                  0x001440          0x2 SHORT 0x11ee DEFINED (__SPI1Interrupt)?<code 339> (__SPI1Interrupt):<code 339> (__DefaultInterrupt)
                  0x001441          0x2 SHORT 0x4
                  0x001442          0x2 SHORT 0x0 DEFINED (__SPI1Interrupt)?((<code 339> (__SPI1Interrupt) >> 0x10) & 0x7f):((<code 339> (__DefaultInterrupt) >> 0x10) & 0x7f)
                  0x001443          0x2 SHORT 0x0
                  0x001444          0x2 SHORT 0x11ee DEFINED (__U1RXInterrupt)?<code 339> (__U1RXInterrupt):<code 339> (__DefaultInterrupt)
                  0x001445          0x2 SHORT 0x4
                  0x001446          0x2 SHORT 0x0 DEFINED (__U1RXInterrupt)?((<code 339> (__U1RXInterrupt) >> 0x10) & 0x7f):((<code 339> (__DefaultInterrupt) >> 0x10) & 0x7f)
                  0x001447          0x2 SHORT 0x0
                  0x001448          0x2 SHORT 0x11ee DEFINED (__U1TXInterrupt)?<code 339> (__U1TXInterrupt):<code 339> (__DefaultInterrupt)
                  0x001449          0x2 SHORT 0x4
                  0x00144a          0x2 SHORT 0x0 DEFINED (__U1TXInterrupt)?((<code 339> (__U1TXInterrupt) >> 0x10) & 0x7f):((<code 339> (__DefaultInterrupt) >> 0x10) & 0x7f)
                  0x00144b          0x2 SHORT 0x0
                  0x00144c          0x2 SHORT 0x11ee DEFINED (__ADC1Interrupt)?<code 339> (__ADC1Interrupt):<code 339> (__DefaultInterrupt)
                  0x00144d          0x2 SHORT 0x4
                  0x00144e          0x2 SHORT 0x0 DEFINED (__ADC1Interrupt)?((<code 339> (__ADC1Interrupt) >> 0x10) & 0x7f):((<code 339> (__DefaultInterrupt) >> 0x10) & 0x7f)
                  0x00144f          0x2 SHORT 0x0
                  0x001450          0x2 SHORT 0x11ee DEFINED (__SI2C1Interrupt)?<code 339> (__SI2C1Interrupt):<code 339> (__DefaultInterrupt)
                  0x001451          0x2 SHORT 0x4
                  0x001452          0x2 SHORT 0x0 DEFINED (__SI2C1Interrupt)?((<code 339> (__SI2C1Interrupt) >> 0x10) & 0x7f):((<code 339> (__DefaultInterrupt) >> 0x10) & 0x7f)
                  0x001453          0x2 SHORT 0x0
                  0x001454          0x2 SHORT 0x11ee DEFINED (__MI2C1Interrupt)?<code 339> (__MI2C1Interrupt):<code 339> (__DefaultInterrupt)
                  0x001455          0x2 SHORT 0x4
                  0x001456          0x2 SHORT 0x0 DEFINED (__MI2C1Interrupt)?((<code 339> (__MI2C1Interrupt) >> 0x10) & 0x7f):((<code 339> (__DefaultInterrupt) >> 0x10) & 0x7f)
                  0x001457          0x2 SHORT 0x0
                  0x001458          0x2 SHORT 0x11ee DEFINED (__CompInterrupt)?<code 339> (__CompInterrupt):<code 339> (__DefaultInterrupt)
                  0x001459          0x2 SHORT 0x4
                  0x00145a          0x2 SHORT 0x0 DEFINED (__CompInterrupt)?((<code 339> (__CompInterrupt) >> 0x10) & 0x7f):((<code 339> (__DefaultInterrupt) >> 0x10) & 0x7f)
                  0x00145b          0x2 SHORT 0x0
                  0x00145c          0x2 SHORT 0x11ee DEFINED (__CNInterrupt)?<code 339> (__CNInterrupt):<code 339> (__DefaultInterrupt)
                  0x00145d          0x2 SHORT 0x4
                  0x00145e          0x2 SHORT 0x0 DEFINED (__CNInterrupt)?((<code 339> (__CNInterrupt) >> 0x10) & 0x7f):((<code 339> (__DefaultInterrupt) >> 0x10) & 0x7f)
                  0x00145f          0x2 SHORT 0x0
                  0x001460          0x2 SHORT 0x11ee DEFINED (__INT1Interrupt)?<code 339> (__INT1Interrupt):<code 339> (__DefaultInterrupt)
                  0x001461          0x2 SHORT 0x4
                  0x001462          0x2 SHORT 0x0 DEFINED (__INT1Interrupt)?((<code 339> (__INT1Interrupt) >> 0x10) & 0x7f):((<code 339> (__DefaultInterrupt) >> 0x10) & 0x7f)
                  0x001463          0x2 SHORT 0x0
                  0x001464          0x2 SHORT 0x11ee DEFINED (__OC3Interrupt)?<code 339> (__OC3Interrupt):<code 339> (__DefaultInterrupt)
                  0x001465          0x2 SHORT 0x4
                  0x001466          0x2 SHORT 0x0 DEFINED (__OC3Interrupt)?((<code 339> (__OC3Interrupt) >> 0x10) & 0x7f):((<code 339> (__DefaultInterrupt) >> 0x10) & 0x7f)
                  0x001467          0x2 SHORT 0x0
                  0x001468          0x2 SHORT 0x11ee DEFINED (__OC4Interrupt)?<code 339> (__OC4Interrupt):<code 339> (__DefaultInterrupt)
                  0x001469          0x2 SHORT 0x4
                  0x00146a          0x2 SHORT 0x0 DEFINED (__OC4Interrupt)?((<code 339> (__OC4Interrupt) >> 0x10) & 0x7f):((<code 339> (__DefaultInterrupt) >> 0x10) & 0x7f)
                  0x00146b          0x2 SHORT 0x0
                  0x00146c          0x2 SHORT 0x11ee DEFINED (__T4Interrupt)?<code 339> (__T4Interrupt):<code 339> (__DefaultInterrupt)
                  0x00146d          0x2 SHORT 0x4
                  0x00146e          0x2 SHORT 0x0 DEFINED (__T4Interrupt)?((<code 339> (__T4Interrupt) >> 0x10) & 0x7f):((<code 339> (__DefaultInterrupt) >> 0x10) & 0x7f)
                  0x00146f          0x2 SHORT 0x0
                  0x001470          0x2 SHORT 0x11ee DEFINED (__T5Interrupt)?<code 339> (__T5Interrupt):<code 339> (__DefaultInterrupt)
                  0x001471          0x2 SHORT 0x4
                  0x001472          0x2 SHORT 0x0 DEFINED (__T5Interrupt)?((<code 339> (__T5Interrupt) >> 0x10) & 0x7f):((<code 339> (__DefaultInterrupt) >> 0x10) & 0x7f)
                  0x001473          0x2 SHORT 0x0
                  0x001474          0x2 SHORT 0x11ee DEFINED (__INT2Interrupt)?<code 339> (__INT2Interrupt):<code 339> (__DefaultInterrupt)
                  0x001475          0x2 SHORT 0x4
                  0x001476          0x2 SHORT 0x0 DEFINED (__INT2Interrupt)?((<code 339> (__INT2Interrupt) >> 0x10) & 0x7f):((<code 339> (__DefaultInterrupt) >> 0x10) & 0x7f)
                  0x001477          0x2 SHORT 0x0
                  0x001478          0x2 SHORT 0x11ee DEFINED (__U2RXInterrupt)?<code 339> (__U2RXInterrupt):<code 339> (__DefaultInterrupt)
                  0x001479          0x2 SHORT 0x4
                  0x00147a          0x2 SHORT 0x0 DEFINED (__U2RXInterrupt)?((<code 339> (__U2RXInterrupt) >> 0x10) & 0x7f):((<code 339> (__DefaultInterrupt) >> 0x10) & 0x7f)
                  0x00147b          0x2 SHORT 0x0
                  0x00147c          0x2 SHORT 0x11ee DEFINED (__U2TXInterrupt)?<code 339> (__U2TXInterrupt):<code 339> (__DefaultInterrupt)
                  0x00147d          0x2 SHORT 0x4
                  0x00147e          0x2 SHORT 0x0 DEFINED (__U2TXInterrupt)?((<code 339> (__U2TXInterrupt) >> 0x10) & 0x7f):((<code 339> (__DefaultInterrupt) >> 0x10) & 0x7f)
                  0x00147f          0x2 SHORT 0x0
                  0x001480          0x2 SHORT 0x11ee DEFINED (__SPI2ErrInterrupt)?<code 339> (__SPI2ErrInterrupt):<code 339> (__DefaultInterrupt)
                  0x001481          0x2 SHORT 0x4
                  0x001482          0x2 SHORT 0x0 DEFINED (__SPI2ErrInterrupt)?((<code 339> (__SPI2ErrInterrupt) >> 0x10) & 0x7f):((<code 339> (__DefaultInterrupt) >> 0x10) & 0x7f)
                  0x001483          0x2 SHORT 0x0
                  0x001484          0x2 SHORT 0x11ee DEFINED (__SPI2Interrupt)?<code 339> (__SPI2Interrupt):<code 339> (__DefaultInterrupt)
                  0x001485          0x2 SHORT 0x4
                  0x001486          0x2 SHORT 0x0 DEFINED (__SPI2Interrupt)?((<code 339> (__SPI2Interrupt) >> 0x10) & 0x7f):((<code 339> (__DefaultInterrupt) >> 0x10) & 0x7f)
                  0x001487          0x2 SHORT 0x0
                  0x001488          0x2 SHORT 0x11ee DEFINED (__IC3Interrupt)?<code 339> (__IC3Interrupt):<code 339> (__DefaultInterrupt)
                  0x001489          0x2 SHORT 0x4
                  0x00148a          0x2 SHORT 0x0 DEFINED (__IC3Interrupt)?((<code 339> (__IC3Interrupt) >> 0x10) & 0x7f):((<code 339> (__DefaultInterrupt) >> 0x10) & 0x7f)
                  0x00148b          0x2 SHORT 0x0
                  0x00148c          0x2 SHORT 0x11ee DEFINED (__IC4Interrupt)?<code 339> (__IC4Interrupt):<code 339> (__DefaultInterrupt)
                  0x00148d          0x2 SHORT 0x4
                  0x00148e          0x2 SHORT 0x0 DEFINED (__IC4Interrupt)?((<code 339> (__IC4Interrupt) >> 0x10) & 0x7f):((<code 339> (__DefaultInterrupt) >> 0x10) & 0x7f)
                  0x00148f          0x2 SHORT 0x0
                  0x001490          0x2 SHORT 0x11ee DEFINED (__IC5Interrupt)?<code 339> (__IC5Interrupt):<code 339> (__DefaultInterrupt)
                  0x001491          0x2 SHORT 0x4
                  0x001492          0x2 SHORT 0x0 DEFINED (__IC5Interrupt)?((<code 339> (__IC5Interrupt) >> 0x10) & 0x7f):((<code 339> (__DefaultInterrupt) >> 0x10) & 0x7f)
                  0x001493          0x2 SHORT 0x0
                  0x001494          0x2 SHORT 0x11ee DEFINED (__OC5Interrupt)?<code 339> (__OC5Interrupt):<code 339> (__DefaultInterrupt)
                  0x001495          0x2 SHORT 0x4
                  0x001496          0x2 SHORT 0x0 DEFINED (__OC5Interrupt)?((<code 339> (__OC5Interrupt) >> 0x10) & 0x7f):((<code 339> (__DefaultInterrupt) >> 0x10) & 0x7f)
                  0x001497          0x2 SHORT 0x0
                  0x001498          0x2 SHORT 0x11ee DEFINED (__PMPInterrupt)?<code 339> (__PMPInterrupt):<code 339> (__DefaultInterrupt)
                  0x001499          0x2 SHORT 0x4
                  0x00149a          0x2 SHORT 0x0 DEFINED (__PMPInterrupt)?((<code 339> (__PMPInterrupt) >> 0x10) & 0x7f):((<code 339> (__DefaultInterrupt) >> 0x10) & 0x7f)
                  0x00149b          0x2 SHORT 0x0
                  0x00149c          0x2 SHORT 0x11ee DEFINED (__SI2C2Interrupt)?<code 339> (__SI2C2Interrupt):<code 339> (__DefaultInterrupt)
                  0x00149d          0x2 SHORT 0x4
                  0x00149e          0x2 SHORT 0x0 DEFINED (__SI2C2Interrupt)?((<code 339> (__SI2C2Interrupt) >> 0x10) & 0x7f):((<code 339> (__DefaultInterrupt) >> 0x10) & 0x7f)
                  0x00149f          0x2 SHORT 0x0
                  0x0014a0          0x2 SHORT 0x11ee DEFINED (__MI2C2Interrupt)?<code 339> (__MI2C2Interrupt):<code 339> (__DefaultInterrupt)
                  0x0014a1          0x2 SHORT 0x4
                  0x0014a2          0x2 SHORT 0x0 DEFINED (__MI2C2Interrupt)?((<code 339> (__MI2C2Interrupt) >> 0x10) & 0x7f):((<code 339> (__DefaultInterrupt) >> 0x10) & 0x7f)
                  0x0014a3          0x2 SHORT 0x0
                  0x0014a4          0x2 SHORT 0x11ee DEFINED (__RTCCInterrupt)?<code 339> (__RTCCInterrupt):<code 339> (__DefaultInterrupt)
                  0x0014a5          0x2 SHORT 0x4
                  0x0014a6          0x2 SHORT 0x0 DEFINED (__RTCCInterrupt)?((<code 339> (__RTCCInterrupt) >> 0x10) & 0x7f):((<code 339> (__DefaultInterrupt) >> 0x10) & 0x7f)
                  0x0014a7          0x2 SHORT 0x0
                  0x0014a8          0x2 SHORT 0x11ee DEFINED (__U1ErrInterrupt)?<code 339> (__U1ErrInterrupt):<code 339> (__DefaultInterrupt)
                  0x0014a9          0x2 SHORT 0x4
                  0x0014aa          0x2 SHORT 0x0 DEFINED (__U1ErrInterrupt)?((<code 339> (__U1ErrInterrupt) >> 0x10) & 0x7f):((<code 339> (__DefaultInterrupt) >> 0x10) & 0x7f)
                  0x0014ab          0x2 SHORT 0x0
                  0x0014ac          0x2 SHORT 0x11ee DEFINED (__U2ErrInterrupt)?<code 339> (__U2ErrInterrupt):<code 339> (__DefaultInterrupt)
                  0x0014ad          0x2 SHORT 0x4
                  0x0014ae          0x2 SHORT 0x0 DEFINED (__U2ErrInterrupt)?((<code 339> (__U2ErrInterrupt) >> 0x10) & 0x7f):((<code 339> (__DefaultInterrupt) >> 0x10) & 0x7f)
                  0x0014af          0x2 SHORT 0x0
                  0x0014b0          0x2 SHORT 0x11ee DEFINED (__CRCInterrupt)?<code 339> (__CRCInterrupt):<code 339> (__DefaultInterrupt)
                  0x0014b1          0x2 SHORT 0x4
                  0x0014b2          0x2 SHORT 0x0 DEFINED (__CRCInterrupt)?((<code 339> (__CRCInterrupt) >> 0x10) & 0x7f):((<code 339> (__DefaultInterrupt) >> 0x10) & 0x7f)
                  0x0014b3          0x2 SHORT 0x0
                  0x0014b4          0x2 SHORT 0x11ee DEFINED (__LVDInterrupt)?<code 339> (__LVDInterrupt):<code 339> (__DefaultInterrupt)
                  0x0014b5          0x2 SHORT 0x4
                  0x0014b6          0x2 SHORT 0x0 DEFINED (__LVDInterrupt)?((<code 339> (__LVDInterrupt) >> 0x10) & 0x7f):((<code 339> (__DefaultInterrupt) >> 0x10) & 0x7f)
                  0x0014b7          0x2 SHORT 0x0
                  0x0014b8          0x2 SHORT 0x11ee DEFINED (__CTMUInterrupt)?<code 339> (__CTMUInterrupt):<code 339> (__DefaultInterrupt)
                  0x0014b9          0x2 SHORT 0x4
                  0x0014ba          0x2 SHORT 0x0 DEFINED (__CTMUInterrupt)?((<code 339> (__CTMUInterrupt) >> 0x10) & 0x7f):((<code 339> (__DefaultInterrupt) >> 0x10) & 0x7f)
                  0x0014bb          0x2 SHORT 0x0
                  0x0014bc          0x2 SHORT 0x11ee DEFINED (__USB1Interrupt)?<code 339> (__USB1Interrupt):<code 339> (__DefaultInterrupt)
                  0x0014bd          0x2 SHORT 0x4
                  0x0014be          0x2 SHORT 0x0 DEFINED (__USB1Interrupt)?((<code 339> (__USB1Interrupt) >> 0x10) & 0x7f):((<code 339> (__DefaultInterrupt) >> 0x10) & 0x7f)
                  0x0014bf          0x2 SHORT 0x0
                  0x0014c0                  __DEFAULT_VECTOR = .
                  0x0014c0          0x2 SHORT 0x11ee <code 339> (__DefaultInterrupt)
                  0x0014c1          0x2 SHORT 0x4
                  0x0014c2          0x2 SHORT 0x0 ((<code 339> (__DefaultInterrupt) >> 0x10) & 0x7f)
                  0x0014c3          0x2 SHORT 0x0

.text             0x000400         0x9e
 *(.init)
 .init            0x000400         0x32 c:/program files/microchip/mplabc30/v3.25/bin/bin/../../lib\libpic30-coff.a(crt0_standard.o)
                  0x000400                  _resetPRI
                  0x000400                  _reset
                  0x000422                  _psv_init
 .init            0x000432         0x5e c:/program files/microchip/mplabc30/v3.25/bin/bin/../../lib\libpic30-coff.a(data_init_standard.o)
                  0x000432                  _data_init_standard
                  0x000432                  _data_init
 *(.user_init)
 *(.handle)
 *(.libc)
 *(.libm)
 *(.libdsp)
 *(.lib*)
 .libc.memset     0x000490          0xe c:/program files/microchip/mplabc30/v3.25/bin/bin/../../lib\libc-coff.a(memset.o)
                  0x000490                  memset

usercode
 *(usercode)

__CONFIG4         0x00abf8          0x2
 *(__CONFIG4.sec)
 __CONFIG4.sec    0x00abf8          0x2 Objects\USB Device - HID Bootloader - C30\main.o

__CONFIG3         0x00abfa          0x2
 *(__CONFIG3.sec)
 __CONFIG3.sec    0x00abfa          0x2 Objects\USB Device - HID Bootloader - C30\main.o

__CONFIG2         0x00abfc          0x2
 *(__CONFIG2.sec)
 __CONFIG2.sec    0x00abfc          0x2 Objects\USB Device - HID Bootloader - C30\main.o

__CONFIG1         0x00abfe          0x2
 *(__CONFIG1.sec)
 __CONFIG1.sec    0x00abfe          0x2 Objects\USB Device - HID Bootloader - C30\main.o

.comment
 *(.comment)

.debug_info
 *(.debug_info)
 *(.gnu.linkonce.wi.*)

.debug_abbrev
 *(.debug_abbrev)

.debug_line
 *(.debug_line)

.debug_frame
 *(.debug_frame)

.debug_str
 *(.debug_str)

.debug_loc
 *(.debug_loc)

.debug_macinfo
 *(.debug_macinfo)

.debug_pubnames
 *(.debug_pubnames)

.debug_ranges
 *(.debug_ranges)

.debug_aranges
 *(.debug_aranges)

.ivt              0x000004         0xfc
                  0x000004          0x4 LONG 0x1408 (<code 339> (__APP_IVT_BASE) + 0x4)
                  0x000006          0x4 LONG 0x140c (<code 339> (__APP_IVT_BASE) + 0x8)
                  0x000008          0x4 LONG 0x1410 (<code 339> (__APP_IVT_BASE) + 0xc)
                  0x00000a          0x4 LONG 0x1414 (<code 339> (__APP_IVT_BASE) + 0x10)
                  0x00000c          0x4 LONG 0x1418 (<code 339> (__APP_IVT_BASE) + 0x14)
                  0x00000e          0x4 LONG 0x14c0 <code 339> (__DEFAULT_VECTOR)
                  0x000010          0x4 LONG 0x14c0 <code 339> (__DEFAULT_VECTOR)
                  0x000012          0x4 LONG 0x14c0 <code 339> (__DEFAULT_VECTOR)
                  0x000014          0x4 LONG 0x141c (<code 339> (__APP_IVT_BASE) + 0x18)
                  0x000016          0x4 LONG 0x1420 (<code 339> (__APP_IVT_BASE) + 0x1c)
                  0x000018          0x4 LONG 0x1424 (<code 339> (__APP_IVT_BASE) + 0x20)
                  0x00001a          0x4 LONG 0x1428 (<code 339> (__APP_IVT_BASE) + 0x24)
                  0x00001c          0x4 LONG 0x14c0 <code 339> (__DEFAULT_VECTOR)
                  0x00001e          0x4 LONG 0x142c (<code 339> (__APP_IVT_BASE) + 0x28)
                  0x000020          0x4 LONG 0x1430 (<code 339> (__APP_IVT_BASE) + 0x2c)
                  0x000022          0x4 LONG 0x1434 (<code 339> (__APP_IVT_BASE) + 0x30)
                  0x000024          0x4 LONG 0x1438 (<code 339> (__APP_IVT_BASE) + 0x34)
                  0x000026          0x4 LONG 0x143c (<code 339> (__APP_IVT_BASE) + 0x38)
                  0x000028          0x4 LONG 0x1440 (<code 339> (__APP_IVT_BASE) + 0x3c)
                  0x00002a          0x4 LONG 0x1444 (<code 339> (__APP_IVT_BASE) + 0x40)
                  0x00002c          0x4 LONG 0x1448 (<code 339> (__APP_IVT_BASE) + 0x44)
                  0x00002e          0x4 LONG 0x144c (<code 339> (__APP_IVT_BASE) + 0x48)
                  0x000030          0x4 LONG 0x14c0 <code 339> (__DEFAULT_VECTOR)
                  0x000032          0x4 LONG 0x14c0 <code 339> (__DEFAULT_VECTOR)
                  0x000034          0x4 LONG 0x1450 (<code 339> (__APP_IVT_BASE) + 0x4c)
                  0x000036          0x4 LONG 0x1454 (<code 339> (__APP_IVT_BASE) + 0x50)
                  0x000038          0x4 LONG 0x1458 (<code 339> (__APP_IVT_BASE) + 0x54)
                  0x00003a          0x4 LONG 0x145c (<code 339> (__APP_IVT_BASE) + 0x58)
                  0x00003c          0x4 LONG 0x1460 (<code 339> (__APP_IVT_BASE) + 0x5c)
                  0x00003e          0x4 LONG 0x14c0 <code 339> (__DEFAULT_VECTOR)
                  0x000040          0x4 LONG 0x14c0 <code 339> (__DEFAULT_VECTOR)
                  0x000042          0x4 LONG 0x14c0 <code 339> (__DEFAULT_VECTOR)
                  0x000044          0x4 LONG 0x14c0 <code 339> (__DEFAULT_VECTOR)
                  0x000046          0x4 LONG 0x1464 (<code 339> (__APP_IVT_BASE) + 0x60)
                  0x000048          0x4 LONG 0x1468 (<code 339> (__APP_IVT_BASE) + 0x64)
                  0x00004a          0x4 LONG 0x146c (<code 339> (__APP_IVT_BASE) + 0x68)
                  0x00004c          0x4 LONG 0x1470 (<code 339> (__APP_IVT_BASE) + 0x6c)
                  0x00004e          0x4 LONG 0x1474 (<code 339> (__APP_IVT_BASE) + 0x70)
                  0x000050          0x4 LONG 0x1478 (<code 339> (__APP_IVT_BASE) + 0x74)
                  0x000052          0x4 LONG 0x147c (<code 339> (__APP_IVT_BASE) + 0x78)
                  0x000054          0x4 LONG 0x1480 (<code 339> (__APP_IVT_BASE) + 0x7c)
                  0x000056          0x4 LONG 0x1484 (<code 339> (__APP_IVT_BASE) + 0x80)
                  0x000058          0x4 LONG 0x14c0 <code 339> (__DEFAULT_VECTOR)
                  0x00005a          0x4 LONG 0x14c0 <code 339> (__DEFAULT_VECTOR)
                  0x00005c          0x4 LONG 0x14c0 <code 339> (__DEFAULT_VECTOR)
                  0x00005e          0x4 LONG 0x1488 (<code 339> (__APP_IVT_BASE) + 0x84)
                  0x000060          0x4 LONG 0x148c (<code 339> (__APP_IVT_BASE) + 0x88)
                  0x000062          0x4 LONG 0x1490 (<code 339> (__APP_IVT_BASE) + 0x8c)
                  0x000064          0x4 LONG 0x14c0 <code 339> (__DEFAULT_VECTOR)
                  0x000066          0x4 LONG 0x1494 (<code 339> (__APP_IVT_BASE) + 0x90)
                  0x000068          0x4 LONG 0x14c0 <code 339> (__DEFAULT_VECTOR)
                  0x00006a          0x4 LONG 0x14c0 <code 339> (__DEFAULT_VECTOR)
                  0x00006c          0x4 LONG 0x14c0 <code 339> (__DEFAULT_VECTOR)
                  0x00006e          0x4 LONG 0x1498 (<code 339> (__APP_IVT_BASE) + 0x94)
                  0x000070          0x4 LONG 0x14c0 <code 339> (__DEFAULT_VECTOR)
                  0x000072          0x4 LONG 0x14c0 <code 339> (__DEFAULT_VECTOR)
                  0x000074          0x4 LONG 0x14c0 <code 339> (__DEFAULT_VECTOR)
                  0x000076          0x4 LONG 0x149c (<code 339> (__APP_IVT_BASE) + 0x98)
                  0x000078          0x4 LONG 0x14a0 (<code 339> (__APP_IVT_BASE) + 0x9c)
                  0x00007a          0x4 LONG 0x14c0 <code 339> (__DEFAULT_VECTOR)
                  0x00007c          0x4 LONG 0x14c0 <code 339> (__DEFAULT_VECTOR)
                  0x00007e          0x4 LONG 0x14c0 <code 339> (__DEFAULT_VECTOR)
                  0x000080          0x4 LONG 0x14c0 <code 339> (__DEFAULT_VECTOR)
                  0x000082          0x4 LONG 0x14c0 <code 339> (__DEFAULT_VECTOR)
                  0x000084          0x4 LONG 0x14c0 <code 339> (__DEFAULT_VECTOR)
                  0x000086          0x4 LONG 0x14c0 <code 339> (__DEFAULT_VECTOR)
                  0x000088          0x4 LONG 0x14c0 <code 339> (__DEFAULT_VECTOR)
                  0x00008a          0x4 LONG 0x14c0 <code 339> (__DEFAULT_VECTOR)
                  0x00008c          0x4 LONG 0x14c0 <code 339> (__DEFAULT_VECTOR)
                  0x00008e          0x4 LONG 0x14c0 <code 339> (__DEFAULT_VECTOR)
                  0x000090          0x4 LONG 0x14a4 (<code 339> (__APP_IVT_BASE) + 0xa0)
                  0x000092          0x4 LONG 0x14c0 <code 339> (__DEFAULT_VECTOR)
                  0x000094          0x4 LONG 0x14c0 <code 339> (__DEFAULT_VECTOR)
                  0x000096          0x4 LONG 0x14a8 (<code 339> (__APP_IVT_BASE) + 0xa4)
                  0x000098          0x4 LONG 0x14ac (<code 339> (__APP_IVT_BASE) + 0xa8)
                  0x00009a          0x4 LONG 0x14b0 (<code 339> (__APP_IVT_BASE) + 0xac)
                  0x00009c          0x4 LONG 0x14c0 <code 339> (__DEFAULT_VECTOR)
                  0x00009e          0x4 LONG 0x14c0 <code 339> (__DEFAULT_VECTOR)
                  0x0000a0          0x4 LONG 0x14c0 <code 339> (__DEFAULT_VECTOR)
                  0x0000a2          0x4 LONG 0x14c0 <code 339> (__DEFAULT_VECTOR)
                  0x0000a4          0x4 LONG 0x14b4 (<code 339> (__APP_IVT_BASE) + 0xb0)
                  0x0000a6          0x4 LONG 0x14c0 <code 339> (__DEFAULT_VECTOR)
                  0x0000a8          0x4 LONG 0x14c0 <code 339> (__DEFAULT_VECTOR)
                  0x0000aa          0x4 LONG 0x14c0 <code 339> (__DEFAULT_VECTOR)
                  0x0000ac          0x4 LONG 0x14c0 <code 339> (__DEFAULT_VECTOR)
                  0x0000ae          0x4 LONG 0x14b8 (<code 339> (__APP_IVT_BASE) + 0xb4)
                  0x0000b0          0x4 LONG 0x14c0 <code 339> (__DEFAULT_VECTOR)
                  0x0000b2          0x4 LONG 0x14c0 <code 339> (__DEFAULT_VECTOR)
                  0x0000b4          0x4 LONG 0x14c0 <code 339> (__DEFAULT_VECTOR)
                  0x0000b6          0x4 LONG 0x14c0 <code 339> (__DEFAULT_VECTOR)
                  0x0000b8          0x4 LONG 0x14c0 <code 339> (__DEFAULT_VECTOR)
                  0x0000ba          0x4 LONG 0x14c0 <code 339> (__DEFAULT_VECTOR)
                  0x0000bc          0x4 LONG 0x14c0 <code 339> (__DEFAULT_VECTOR)
                  0x0000be          0x4 LONG 0x14c0 <code 339> (__DEFAULT_VECTOR)
                  0x0000c0          0x4 LONG 0x14bc (<code 339> (__APP_IVT_BASE) + 0xb8)
                  0x0000c2          0x4 LONG 0x14c0 <code 339> (__DEFAULT_VECTOR)
                  0x0000c4          0x4 LONG 0x14c0 <code 339> (__DEFAULT_VECTOR)
                  0x0000c6          0x4 LONG 0x14c0 <code 339> (__DEFAULT_VECTOR)
                  0x0000c8          0x4 LONG 0x14c0 <code 339> (__DEFAULT_VECTOR)
                  0x0000ca          0x4 LONG 0x14c0 <code 339> (__DEFAULT_VECTOR)
                  0x0000cc          0x4 LONG 0x14c0 <code 339> (__DEFAULT_VECTOR)
                  0x0000ce          0x4 LONG 0x14c0 <code 339> (__DEFAULT_VECTOR)
                  0x0000d0          0x4 LONG 0x14c0 <code 339> (__DEFAULT_VECTOR)
                  0x0000d2          0x4 LONG 0x14c0 <code 339> (__DEFAULT_VECTOR)
                  0x0000d4          0x4 LONG 0x14c0 <code 339> (__DEFAULT_VECTOR)
                  0x0000d6          0x4 LONG 0x14c0 <code 339> (__DEFAULT_VECTOR)
                  0x0000d8          0x4 LONG 0x14c0 <code 339> (__DEFAULT_VECTOR)
                  0x0000da          0x4 LONG 0x14c0 <code 339> (__DEFAULT_VECTOR)
                  0x0000dc          0x4 LONG 0x14c0 <code 339> (__DEFAULT_VECTOR)
                  0x0000de          0x4 LONG 0x14c0 <code 339> (__DEFAULT_VECTOR)
                  0x0000e0          0x4 LONG 0x14c0 <code 339> (__DEFAULT_VECTOR)
                  0x0000e2          0x4 LONG 0x14c0 <code 339> (__DEFAULT_VECTOR)
                  0x0000e4          0x4 LONG 0x14c0 <code 339> (__DEFAULT_VECTOR)
                  0x0000e6          0x4 LONG 0x14c0 <code 339> (__DEFAULT_VECTOR)
                  0x0000e8          0x4 LONG 0x14c0 <code 339> (__DEFAULT_VECTOR)
                  0x0000ea          0x4 LONG 0x14c0 <code 339> (__DEFAULT_VECTOR)
                  0x0000ec          0x4 LONG 0x14c0 <code 339> (__DEFAULT_VECTOR)
                  0x0000ee          0x4 LONG 0x14c0 <code 339> (__DEFAULT_VECTOR)
                  0x0000f0          0x4 LONG 0x14c0 <code 339> (__DEFAULT_VECTOR)
                  0x0000f2          0x4 LONG 0x14c0 <code 339> (__DEFAULT_VECTOR)
                  0x0000f4          0x4 LONG 0x14c0 <code 339> (__DEFAULT_VECTOR)
                  0x0000f6          0x4 LONG 0x14c0 <code 339> (__DEFAULT_VECTOR)
                  0x0000f8          0x4 LONG 0x14c0 <code 339> (__DEFAULT_VECTOR)
                  0x0000fa          0x4 LONG 0x14c0 <code 339> (__DEFAULT_VECTOR)
                  0x0000fc          0x4 LONG 0x14c0 <code 339> (__DEFAULT_VECTOR)
                  0x0000fe          0x4 LONG 0x14c0 <code 339> (__DEFAULT_VECTOR)

.aivt
                    0x0000                  WREG0 = 0x0
                    0x0000                  _WREG0 = 0x0
                    0x0002                  WREG1 = 0x2
                    0x0002                  _WREG1 = 0x2
                    0x0004                  WREG2 = 0x4
                    0x0004                  _WREG2 = 0x4
                    0x0006                  WREG3 = 0x6
                    0x0006                  _WREG3 = 0x6
                    0x0008                  WREG4 = 0x8
                    0x0008                  _WREG4 = 0x8
                    0x000a                  WREG5 = 0xa
                    0x000a                  _WREG5 = 0xa
                    0x000c                  WREG6 = 0xc
                    0x000c                  _WREG6 = 0xc
                    0x000e                  WREG7 = 0xe
                    0x000e                  _WREG7 = 0xe
                    0x0010                  WREG8 = 0x10
                    0x0010                  _WREG8 = 0x10
                    0x0012                  WREG9 = 0x12
                    0x0012                  _WREG9 = 0x12
                    0x0014                  WREG10 = 0x14
                    0x0014                  _WREG10 = 0x14
                    0x0016                  WREG11 = 0x16
                    0x0016                  _WREG11 = 0x16
                    0x0018                  WREG12 = 0x18
                    0x0018                  _WREG12 = 0x18
                    0x001a                  WREG13 = 0x1a
                    0x001a                  _WREG13 = 0x1a
                    0x001c                  WREG14 = 0x1c
                    0x001c                  _WREG14 = 0x1c
                    0x001e                  WREG15 = 0x1e
                    0x001e                  _WREG15 = 0x1e
                    0x0020                  SPLIM = 0x20
                    0x0020                  _SPLIM = 0x20
                    0x002e                  PCL = 0x2e
                    0x002e                  _PCL = 0x2e
                    0x0030                  PCH = 0x30
                    0x0030                  _PCH = 0x30
                    0x0032                  TBLPAG = 0x32
                    0x0032                  _TBLPAG = 0x32
                    0x0034                  PSVPAG = 0x34
                    0x0034                  _PSVPAG = 0x34
                    0x0036                  RCOUNT = 0x36
                    0x0036                  _RCOUNT = 0x36
                    0x0042                  SR = 0x42
                    0x0042                  _SR = 0x42
                    0x0042                  _SRbits = 0x42
                    0x0044                  CORCON = 0x44
                    0x0044                  _CORCON = 0x44
                    0x0044                  _CORCONbits = 0x44
                    0x0052                  DISICNT = 0x52
                    0x0052                  _DISICNT = 0x52
                    0x0060                  CNEN1 = 0x60
                    0x0060                  _CNEN1 = 0x60
                    0x0060                  _CNEN1bits = 0x60
                    0x0062                  CNEN2 = 0x62
                    0x0062                  _CNEN2 = 0x62
                    0x0062                  _CNEN2bits = 0x62
                    0x0068                  CNPU1 = 0x68
                    0x0068                  _CNPU1 = 0x68
                    0x0068                  _CNPU1bits = 0x68
                    0x006a                  CNPU2 = 0x6a
                    0x006a                  _CNPU2 = 0x6a
                    0x006a                  _CNPU2bits = 0x6a
                    0x0080                  INTCON1 = 0x80
                    0x0080                  _INTCON1 = 0x80
                    0x0080                  _INTCON1bits = 0x80
                    0x0082                  INTCON2 = 0x82
                    0x0082                  _INTCON2 = 0x82
                    0x0082                  _INTCON2bits = 0x82
                    0x0084                  IFS0 = 0x84
                    0x0084                  _IFS0 = 0x84
                    0x0084                  _IFS0bits = 0x84
                    0x0086                  IFS1 = 0x86
                    0x0086                  _IFS1 = 0x86
                    0x0086                  _IFS1bits = 0x86
                    0x0088                  IFS2 = 0x88
                    0x0088                  _IFS2 = 0x88
                    0x0088                  _IFS2bits = 0x88
                    0x008a                  IFS3 = 0x8a
                    0x008a                  _IFS3 = 0x8a
                    0x008a                  _IFS3bits = 0x8a
                    0x008c                  IFS4 = 0x8c
                    0x008c                  _IFS4 = 0x8c
                    0x008c                  _IFS4bits = 0x8c
                    0x008e                  IFS5 = 0x8e
                    0x008e                  _IFS5 = 0x8e
                    0x008e                  _IFS5bits = 0x8e
                    0x0094                  IEC0 = 0x94
                    0x0094                  _IEC0 = 0x94
                    0x0094                  _IEC0bits = 0x94
                    0x0096                  IEC1 = 0x96
                    0x0096                  _IEC1 = 0x96
                    0x0096                  _IEC1bits = 0x96
                    0x0098                  IEC2 = 0x98
                    0x0098                  _IEC2 = 0x98
                    0x0098                  _IEC2bits = 0x98
                    0x009a                  IEC3 = 0x9a
                    0x009a                  _IEC3 = 0x9a
                    0x009a                  _IEC3bits = 0x9a
                    0x009c                  IEC4 = 0x9c
                    0x009c                  _IEC4 = 0x9c
                    0x009c                  _IEC4bits = 0x9c
                    0x009e                  IEC5 = 0x9e
                    0x009e                  _IEC5 = 0x9e
                    0x009e                  _IEC5bits = 0x9e
                    0x00a4                  IPC0 = 0xa4
                    0x00a4                  _IPC0 = 0xa4
                    0x00a4                  _IPC0bits = 0xa4
                    0x00a6                  IPC1 = 0xa6
                    0x00a6                  _IPC1 = 0xa6
                    0x00a6                  _IPC1bits = 0xa6
                    0x00a8                  IPC2 = 0xa8
                    0x00a8                  _IPC2 = 0xa8
                    0x00a8                  _IPC2bits = 0xa8
                    0x00aa                  IPC3 = 0xaa
                    0x00aa                  _IPC3 = 0xaa
                    0x00aa                  _IPC3bits = 0xaa
                    0x00ac                  IPC4 = 0xac
                    0x00ac                  _IPC4 = 0xac
                    0x00ac                  _IPC4bits = 0xac
                    0x00ae                  IPC5 = 0xae
                    0x00ae                  _IPC5 = 0xae
                    0x00ae                  _IPC5bits = 0xae
                    0x00b0                  IPC6 = 0xb0
                    0x00b0                  _IPC6 = 0xb0
                    0x00b0                  _IPC6bits = 0xb0
                    0x00b2                  IPC7 = 0xb2
                    0x00b2                  _IPC7 = 0xb2
                    0x00b2                  _IPC7bits = 0xb2
                    0x00b4                  IPC8 = 0xb4
                    0x00b4                  _IPC8 = 0xb4
                    0x00b4                  _IPC8bits = 0xb4
                    0x00b6                  IPC9 = 0xb6
                    0x00b6                  _IPC9 = 0xb6
                    0x00b6                  _IPC9bits = 0xb6
                    0x00b8                  IPC10 = 0xb8
                    0x00b8                  _IPC10 = 0xb8
                    0x00b8                  _IPC10bits = 0xb8
                    0x00ba                  IPC11 = 0xba
                    0x00ba                  _IPC11 = 0xba
                    0x00ba                  _IPC11bits = 0xba
                    0x00bc                  IPC12 = 0xbc
                    0x00bc                  _IPC12 = 0xbc
                    0x00bc                  _IPC12bits = 0xbc
                    0x00c2                  IPC15 = 0xc2
                    0x00c2                  _IPC15 = 0xc2
                    0x00c2                  _IPC15bits = 0xc2
                    0x00c4                  IPC16 = 0xc4
                    0x00c4                  _IPC16 = 0xc4
                    0x00c4                  _IPC16bits = 0xc4
                    0x00c8                  IPC18 = 0xc8
                    0x00c8                  _IPC18 = 0xc8
                    0x00c8                  _IPC18bits = 0xc8
                    0x00ca                  IPC19 = 0xca
                    0x00ca                  _IPC19 = 0xca
                    0x00ca                  _IPC19bits = 0xca
                    0x00ce                  IPC21 = 0xce
                    0x00ce                  _IPC21 = 0xce
                    0x00ce                  _IPC21bits = 0xce
                    0x00e0                  INTTREG = 0xe0
                    0x00e0                  _INTTREG = 0xe0
                    0x00e0                  _INTTREGbits = 0xe0
                    0x0100                  TMR1 = 0x100
                    0x0100                  _TMR1 = 0x100
                    0x0102                  PR1 = 0x102
                    0x0102                  _PR1 = 0x102
                    0x0104                  T1CON = 0x104
                    0x0104                  _T1CON = 0x104
                    0x0104                  _T1CONbits = 0x104
                    0x0106                  TMR2 = 0x106
                    0x0106                  _TMR2 = 0x106
                    0x0108                  TMR3HLD = 0x108
                    0x0108                  _TMR3HLD = 0x108
                    0x010a                  TMR3 = 0x10a
                    0x010a                  _TMR3 = 0x10a
                    0x010c                  PR2 = 0x10c
                    0x010c                  _PR2 = 0x10c
                    0x010e                  PR3 = 0x10e
                    0x010e                  _PR3 = 0x10e
                    0x0110                  T2CON = 0x110
                    0x0110                  _T2CON = 0x110
                    0x0110                  _T2CONbits = 0x110
                    0x0112                  T3CON = 0x112
                    0x0112                  _T3CON = 0x112
                    0x0112                  _T3CONbits = 0x112
                    0x0114                  TMR4 = 0x114
                    0x0114                  _TMR4 = 0x114
                    0x0116                  TMR5HLD = 0x116
                    0x0116                  _TMR5HLD = 0x116
                    0x0118                  TMR5 = 0x118
                    0x0118                  _TMR5 = 0x118
                    0x011a                  PR4 = 0x11a
                    0x011a                  _PR4 = 0x11a
                    0x011c                  PR5 = 0x11c
                    0x011c                  _PR5 = 0x11c
                    0x011e                  T4CON = 0x11e
                    0x011e                  _T4CON = 0x11e
                    0x011e                  _T4CONbits = 0x11e
                    0x0120                  T5CON = 0x120
                    0x0120                  _T5CON = 0x120
                    0x0120                  _T5CONbits = 0x120
                    0x0140                  IC1CON1 = 0x140
                    0x0140                  _IC1CON1 = 0x140
                    0x0140                  _IC1CON1bits = 0x140
                    0x0142                  IC1CON2 = 0x142
                    0x0142                  _IC1CON2 = 0x142
                    0x0142                  _IC1CON2bits = 0x142
                    0x0144                  IC1BUF = 0x144
                    0x0144                  _IC1BUF = 0x144
                    0x0146                  IC1TMR = 0x146
                    0x0146                  _IC1TMR = 0x146
                    0x0148                  IC2CON1 = 0x148
                    0x0148                  _IC2CON1 = 0x148
                    0x0148                  _IC2CON1bits = 0x148
                    0x014a                  IC2CON2 = 0x14a
                    0x014a                  _IC2CON2 = 0x14a
                    0x014a                  _IC2CON2bits = 0x14a
                    0x014c                  IC2BUF = 0x14c
                    0x014c                  _IC2BUF = 0x14c
                    0x014e                  IC2TMR = 0x14e
                    0x014e                  _IC2TMR = 0x14e
                    0x0150                  IC3CON1 = 0x150
                    0x0150                  _IC3CON1 = 0x150
                    0x0150                  _IC3CON1bits = 0x150
                    0x0152                  IC3CON2 = 0x152
                    0x0152                  _IC3CON2 = 0x152
                    0x0152                  _IC3CON2bits = 0x152
                    0x0154                  IC3BUF = 0x154
                    0x0154                  _IC3BUF = 0x154
                    0x0156                  IC3TMR = 0x156
                    0x0156                  _IC3TMR = 0x156
                    0x0158                  IC4CON1 = 0x158
                    0x0158                  _IC4CON1 = 0x158
                    0x0158                  _IC4CON1bits = 0x158
                    0x015a                  IC4CON2 = 0x15a
                    0x015a                  _IC4CON2 = 0x15a
                    0x015a                  _IC4CON2bits = 0x15a
                    0x015c                  IC4BUF = 0x15c
                    0x015c                  _IC4BUF = 0x15c
                    0x015e                  IC4TMR = 0x15e
                    0x015e                  _IC4TMR = 0x15e
                    0x0160                  IC5CON1 = 0x160
                    0x0160                  _IC5CON1 = 0x160
                    0x0160                  _IC5CON1bits = 0x160
                    0x0162                  IC5CON2 = 0x162
                    0x0162                  _IC5CON2 = 0x162
                    0x0162                  _IC5CON2bits = 0x162
                    0x0164                  IC5BUF = 0x164
                    0x0164                  _IC5BUF = 0x164
                    0x0166                  IC5TMR = 0x166
                    0x0166                  _IC5TMR = 0x166
                    0x0190                  OC1CON1 = 0x190
                    0x0190                  _OC1CON1 = 0x190
                    0x0190                  _OC1CON1bits = 0x190
                    0x0192                  OC1CON2 = 0x192
                    0x0192                  _OC1CON2 = 0x192
                    0x0192                  _OC1CON2bits = 0x192
                    0x0194                  OC1RS = 0x194
                    0x0194                  _OC1RS = 0x194
                    0x0196                  OC1R = 0x196
                    0x0196                  _OC1R = 0x196
                    0x0198                  OC1TMR = 0x198
                    0x0198                  _OC1TMR = 0x198
                    0x019a                  OC2CON1 = 0x19a
                    0x019a                  _OC2CON1 = 0x19a
                    0x019a                  _OC2CON1bits = 0x19a
                    0x019c                  OC2CON2 = 0x19c
                    0x019c                  _OC2CON2 = 0x19c
                    0x019c                  _OC2CON2bits = 0x19c
                    0x019e                  OC2RS = 0x19e
                    0x019e                  _OC2RS = 0x19e
                    0x01a0                  OC2R = 0x1a0
                    0x01a0                  _OC2R = 0x1a0
                    0x01a2                  OC2TMR = 0x1a2
                    0x01a2                  _OC2TMR = 0x1a2
                    0x01a4                  OC3CON1 = 0x1a4
                    0x01a4                  _OC3CON1 = 0x1a4
                    0x01a4                  _OC3CON1bits = 0x1a4
                    0x01a6                  OC3CON2 = 0x1a6
                    0x01a6                  _OC3CON2 = 0x1a6
                    0x01a6                  _OC3CON2bits = 0x1a6
                    0x01a8                  OC3RS = 0x1a8
                    0x01a8                  _OC3RS = 0x1a8
                    0x01aa                  OC3R = 0x1aa
                    0x01aa                  _OC3R = 0x1aa
                    0x01ac                  OC3TMR = 0x1ac
                    0x01ac                  _OC3TMR = 0x1ac
                    0x01ae                  OC4CON1 = 0x1ae
                    0x01ae                  _OC4CON1 = 0x1ae
                    0x01ae                  _OC4CON1bits = 0x1ae
                    0x01b0                  OC4CON2 = 0x1b0
                    0x01b0                  _OC4CON2 = 0x1b0
                    0x01b0                  _OC4CON2bits = 0x1b0
                    0x01b2                  OC4RS = 0x1b2
                    0x01b2                  _OC4RS = 0x1b2
                    0x01b4                  OC4R = 0x1b4
                    0x01b4                  _OC4R = 0x1b4
                    0x01b6                  OC4TMR = 0x1b6
                    0x01b6                  _OC4TMR = 0x1b6
                    0x01b8                  OC5CON1 = 0x1b8
                    0x01b8                  _OC5CON1 = 0x1b8
                    0x01b8                  _OC5CON1bits = 0x1b8
                    0x01ba                  OC5CON2 = 0x1ba
                    0x01ba                  _OC5CON2 = 0x1ba
                    0x01ba                  _OC5CON2bits = 0x1ba
                    0x01bc                  OC5RS = 0x1bc
                    0x01bc                  _OC5RS = 0x1bc
                    0x01be                  OC5R = 0x1be
                    0x01be                  _OC5R = 0x1be
                    0x01c0                  OC5TMR = 0x1c0
                    0x01c0                  _OC5TMR = 0x1c0
                    0x0200                  I2C1RCV = 0x200
                    0x0200                  _I2C1RCV = 0x200
                    0x0202                  I2C1TRN = 0x202
                    0x0202                  _I2C1TRN = 0x202
                    0x0204                  I2C1BRG = 0x204
                    0x0204                  _I2C1BRG = 0x204
                    0x0206                  I2C1CON = 0x206
                    0x0206                  _I2C1CON = 0x206
                    0x0206                  _I2C1CONbits = 0x206
                    0x0208                  I2C1STAT = 0x208
                    0x0208                  _I2C1STAT = 0x208
                    0x0208                  _I2C1STATbits = 0x208
                    0x020a                  I2C1ADD = 0x20a
                    0x020a                  _I2C1ADD = 0x20a
                    0x020c                  I2C1MSK = 0x20c
                    0x020c                  _I2C1MSK = 0x20c
                    0x0210                  I2C2RCV = 0x210
                    0x0210                  _I2C2RCV = 0x210
                    0x0212                  I2C2TRN = 0x212
                    0x0212                  _I2C2TRN = 0x212
                    0x0214                  I2C2BRG = 0x214
                    0x0214                  _I2C2BRG = 0x214
                    0x0216                  I2C2CON = 0x216
                    0x0216                  _I2C2CON = 0x216
                    0x0216                  _I2C2CONbits = 0x216
                    0x0218                  I2C2STAT = 0x218
                    0x0218                  _I2C2STAT = 0x218
                    0x0218                  _I2C2STATbits = 0x218
                    0x021a                  I2C2ADD = 0x21a
                    0x021a                  _I2C2ADD = 0x21a
                    0x021c                  I2C2MSK = 0x21c
                    0x021c                  _I2C2MSK = 0x21c
                    0x0220                  U1MODE = 0x220
                    0x0220                  _U1MODE = 0x220
                    0x0220                  _U1MODEbits = 0x220
                    0x0222                  U1STA = 0x222
                    0x0222                  _U1STA = 0x222
                    0x0222                  _U1STAbits = 0x222
                    0x0224                  U1TXREG = 0x224
                    0x0224                  _U1TXREG = 0x224
                    0x0224                  _U1TXREGbits = 0x224
                    0x0226                  U1RXREG = 0x226
                    0x0226                  _U1RXREG = 0x226
                    0x0226                  _U1RXREGbits = 0x226
                    0x0228                  U1BRG = 0x228
                    0x0228                  _U1BRG = 0x228
                    0x0230                  U2MODE = 0x230
                    0x0230                  _U2MODE = 0x230
                    0x0230                  _U2MODEbits = 0x230
                    0x0232                  U2STA = 0x232
                    0x0232                  _U2STA = 0x232
                    0x0232                  _U2STAbits = 0x232
                    0x0234                  U2TXREG = 0x234
                    0x0234                  _U2TXREG = 0x234
                    0x0234                  _U2TXREGbits = 0x234
                    0x0236                  U2RXREG = 0x236
                    0x0236                  _U2RXREG = 0x236
                    0x0236                  _U2RXREGbits = 0x236
                    0x0238                  U2BRG = 0x238
                    0x0238                  _U2BRG = 0x238
                    0x0240                  SPI1STAT = 0x240
                    0x0240                  _SPI1STAT = 0x240
                    0x0240                  _SPI1STATbits = 0x240
                    0x0242                  SPI1CON1 = 0x242
                    0x0242                  _SPI1CON1 = 0x242
                    0x0242                  _SPI1CON1bits = 0x242
                    0x0244                  SPI1CON2 = 0x244
                    0x0244                  _SPI1CON2 = 0x244
                    0x0244                  _SPI1CON2bits = 0x244
                    0x0248                  SPI1BUF = 0x248
                    0x0248                  _SPI1BUF = 0x248
                    0x0260                  SPI2STAT = 0x260
                    0x0260                  _SPI2STAT = 0x260
                    0x0260                  _SPI2STATbits = 0x260
                    0x0262                  SPI2CON1 = 0x262
                    0x0262                  _SPI2CON1 = 0x262
                    0x0262                  _SPI2CON1bits = 0x262
                    0x0264                  SPI2CON2 = 0x264
                    0x0264                  _SPI2CON2 = 0x264
                    0x0264                  _SPI2CON2bits = 0x264
                    0x0268                  SPI2BUF = 0x268
                    0x0268                  _SPI2BUF = 0x268
                    0x02c0                  TRISA = 0x2c0
                    0x02c0                  _TRISA = 0x2c0
                    0x02c0                  _TRISAbits = 0x2c0
                    0x02c2                  PORTA = 0x2c2
                    0x02c2                  _PORTA = 0x2c2
                    0x02c2                  _PORTAbits = 0x2c2
                    0x02c4                  LATA = 0x2c4
                    0x02c4                  _LATA = 0x2c4
                    0x02c4                  _LATAbits = 0x2c4
                    0x02c6                  ODCA = 0x2c6
                    0x02c6                  _ODCA = 0x2c6
                    0x02c6                  _ODCAbits = 0x2c6
                    0x02c8                  TRISB = 0x2c8
                    0x02c8                  _TRISB = 0x2c8
                    0x02c8                  _TRISBbits = 0x2c8
                    0x02ca                  PORTB = 0x2ca
                    0x02ca                  _PORTB = 0x2ca
                    0x02ca                  _PORTBbits = 0x2ca
                    0x02cc                  LATB = 0x2cc
                    0x02cc                  _LATB = 0x2cc
                    0x02cc                  _LATBbits = 0x2cc
                    0x02ce                  ODCB = 0x2ce
                    0x02ce                  _ODCB = 0x2ce
                    0x02ce                  _ODCBbits = 0x2ce
                    0x02d0                  TRISC = 0x2d0
                    0x02d0                  _TRISC = 0x2d0
                    0x02d0                  _TRISCbits = 0x2d0
                    0x02d2                  PORTC = 0x2d2
                    0x02d2                  _PORTC = 0x2d2
                    0x02d2                  _PORTCbits = 0x2d2
                    0x02d4                  LATC = 0x2d4
                    0x02d4                  _LATC = 0x2d4
                    0x02d4                  _LATCbits = 0x2d4
                    0x02d6                  ODCC = 0x2d6
                    0x02d6                  _ODCC = 0x2d6
                    0x02d6                  _ODCCbits = 0x2d6
                    0x02fc                  PADCFG1 = 0x2fc
                    0x02fc                  _PADCFG1 = 0x2fc
                    0x02fc                  _PADCFG1bits = 0x2fc
                    0x0300                  ADC1BUF0 = 0x300
                    0x0300                  _ADC1BUF0 = 0x300
                    0x0302                  ADC1BUF1 = 0x302
                    0x0302                  _ADC1BUF1 = 0x302
                    0x0304                  ADC1BUF2 = 0x304
                    0x0304                  _ADC1BUF2 = 0x304
                    0x0306                  ADC1BUF3 = 0x306
                    0x0306                  _ADC1BUF3 = 0x306
                    0x0308                  ADC1BUF4 = 0x308
                    0x0308                  _ADC1BUF4 = 0x308
                    0x030a                  ADC1BUF5 = 0x30a
                    0x030a                  _ADC1BUF5 = 0x30a
                    0x030c                  ADC1BUF6 = 0x30c
                    0x030c                  _ADC1BUF6 = 0x30c
                    0x030e                  ADC1BUF7 = 0x30e
                    0x030e                  _ADC1BUF7 = 0x30e
                    0x0310                  ADC1BUF8 = 0x310
                    0x0310                  _ADC1BUF8 = 0x310
                    0x0312                  ADC1BUF9 = 0x312
                    0x0312                  _ADC1BUF9 = 0x312
                    0x0314                  ADC1BUFA = 0x314
                    0x0314                  _ADC1BUFA = 0x314
                    0x0316                  ADC1BUFB = 0x316
                    0x0316                  _ADC1BUFB = 0x316
                    0x0318                  ADC1BUFC = 0x318
                    0x0318                  _ADC1BUFC = 0x318
                    0x031a                  ADC1BUFD = 0x31a
                    0x031a                  _ADC1BUFD = 0x31a
                    0x031c                  ADC1BUFE = 0x31c
                    0x031c                  _ADC1BUFE = 0x31c
                    0x031e                  ADC1BUFF = 0x31e
                    0x031e                  _ADC1BUFF = 0x31e
                    0x0320                  AD1CON1 = 0x320
                    0x0320                  _AD1CON1 = 0x320
                    0x0320                  _AD1CON1bits = 0x320
                    0x0322                  AD1CON2 = 0x322
                    0x0322                  _AD1CON2 = 0x322
                    0x0322                  _AD1CON2bits = 0x322
                    0x0324                  AD1CON3 = 0x324
                    0x0324                  _AD1CON3 = 0x324
                    0x0324                  _AD1CON3bits = 0x324
                    0x0328                  AD1CHS = 0x328
                    0x0328                  _AD1CHS = 0x328
                    0x0328                  _AD1CHSbits = 0x328
                    0x0328                  AD1CHS0 = 0x328
                    0x0328                  _AD1CHS0 = 0x328
                    0x0328                  _AD1CHS0bits = 0x328
                    0x032c                  AD1PCFG = 0x32c
                    0x032c                  _AD1PCFG = 0x32c
                    0x032c                  _AD1PCFGbits = 0x32c
                    0x032c                  AD1PCFGL = 0x32c
                    0x032c                  _AD1PCFGL = 0x32c
                    0x032c                  _AD1PCFGLbits = 0x32c
                    0x0330                  AD1CSSL = 0x330
                    0x0330                  _AD1CSSL = 0x330
                    0x0330                  _AD1CSSLbits = 0x330
                    0x033c                  CTMUCON = 0x33c
                    0x033c                  _CTMUCON = 0x33c
                    0x033c                  _CTMUCONbits = 0x33c
                    0x033e                  CTMUICON = 0x33e
                    0x033e                  _CTMUICON = 0x33e
                    0x033e                  _CTMUICONbits = 0x33e
                    0x0480                  U1OTGIR = 0x480
                    0x0480                  _U1OTGIR = 0x480
                    0x0480                  _U1OTGIRbits = 0x480
                    0x0482                  U1OTGIE = 0x482
                    0x0482                  _U1OTGIE = 0x482
                    0x0482                  _U1OTGIEbits = 0x482
                    0x0484                  U1OTGSTAT = 0x484
                    0x0484                  _U1OTGSTAT = 0x484
                    0x0484                  _U1OTGSTATbits = 0x484
                    0x0486                  U1OTGCON = 0x486
                    0x0486                  _U1OTGCON = 0x486
                    0x0486                  _U1OTGCONbits = 0x486
                    0x0488                  U1PWRC = 0x488
                    0x0488                  _U1PWRC = 0x488
                    0x0488                  _U1PWRCbits = 0x488
                    0x048a                  U1IR = 0x48a
                    0x048a                  _U1IR = 0x48a
                    0x048a                  _U1IRbits = 0x48a
                    0x048c                  U1IE = 0x48c
                    0x048c                  _U1IE = 0x48c
                    0x048c                  _U1IEbits = 0x48c
                    0x048e                  U1EIR = 0x48e
                    0x048e                  _U1EIR = 0x48e
                    0x048e                  _U1EIRbits = 0x48e
                    0x0490                  U1EIE = 0x490
                    0x0490                  _U1EIE = 0x490
                    0x0490                  _U1EIEbits = 0x490
                    0x0492                  U1STAT = 0x492
                    0x0492                  _U1STAT = 0x492
                    0x0492                  _U1STATbits = 0x492
                    0x0494                  U1CON = 0x494
                    0x0494                  _U1CON = 0x494
                    0x0494                  _U1CONbits = 0x494
                    0x0496                  U1ADDR = 0x496
                    0x0496                  _U1ADDR = 0x496
                    0x0496                  _U1ADDRbits = 0x496
                    0x0498                  U1BDTP1 = 0x498
                    0x0498                  _U1BDTP1 = 0x498
                    0x0498                  _U1BDTP1bits = 0x498
                    0x049a                  U1FRML = 0x49a
                    0x049a                  _U1FRML = 0x49a
                    0x049a                  _U1FRMLbits = 0x49a
                    0x049c                  U1FRMH = 0x49c
                    0x049c                  _U1FRMH = 0x49c
                    0x049c                  _U1FRMHbits = 0x49c
                    0x049e                  U1TOK = 0x49e
                    0x049e                  _U1TOK = 0x49e
                    0x049e                  _U1TOKbits = 0x49e
                    0x04a0                  U1SOF = 0x4a0
                    0x04a0                  _U1SOF = 0x4a0
                    0x04a0                  _U1SOFbits = 0x4a0
                    0x04a6                  U1CNFG1 = 0x4a6
                    0x04a6                  _U1CNFG1 = 0x4a6
                    0x04a6                  _U1CNFG1bits = 0x4a6
                    0x04a8                  U1CNFG2 = 0x4a8
                    0x04a8                  _U1CNFG2 = 0x4a8
                    0x04a8                  _U1CNFG2bits = 0x4a8
                    0x04aa                  U1EP0 = 0x4aa
                    0x04aa                  _U1EP0 = 0x4aa
                    0x04aa                  _U1EP0bits = 0x4aa
                    0x04ac                  U1EP1 = 0x4ac
                    0x04ac                  _U1EP1 = 0x4ac
                    0x04ac                  _U1EP1bits = 0x4ac
                    0x04ae                  U1EP2 = 0x4ae
                    0x04ae                  _U1EP2 = 0x4ae
                    0x04ae                  _U1EP2bits = 0x4ae
                    0x04b0                  U1EP3 = 0x4b0
                    0x04b0                  _U1EP3 = 0x4b0
                    0x04b0                  _U1EP3bits = 0x4b0
                    0x04b2                  U1EP4 = 0x4b2
                    0x04b2                  _U1EP4 = 0x4b2
                    0x04b2                  _U1EP4bits = 0x4b2
                    0x04b4                  U1EP5 = 0x4b4
                    0x04b4                  _U1EP5 = 0x4b4
                    0x04b4                  _U1EP5bits = 0x4b4
                    0x04b6                  U1EP6 = 0x4b6
                    0x04b6                  _U1EP6 = 0x4b6
                    0x04b6                  _U1EP6bits = 0x4b6
                    0x04b8                  U1EP7 = 0x4b8
                    0x04b8                  _U1EP7 = 0x4b8
                    0x04b8                  _U1EP7bits = 0x4b8
                    0x04ba                  U1EP8 = 0x4ba
                    0x04ba                  _U1EP8 = 0x4ba
                    0x04ba                  _U1EP8bits = 0x4ba
                    0x04bc                  U1EP9 = 0x4bc
                    0x04bc                  _U1EP9 = 0x4bc
                    0x04bc                  _U1EP9bits = 0x4bc
                    0x04be                  U1EP10 = 0x4be
                    0x04be                  _U1EP10 = 0x4be
                    0x04be                  _U1EP10bits = 0x4be
                    0x04c0                  U1EP11 = 0x4c0
                    0x04c0                  _U1EP11 = 0x4c0
                    0x04c0                  _U1EP11bits = 0x4c0
                    0x04c2                  U1EP12 = 0x4c2
                    0x04c2                  _U1EP12 = 0x4c2
                    0x04c2                  _U1EP12bits = 0x4c2
                    0x04c4                  U1EP13 = 0x4c4
                    0x04c4                  _U1EP13 = 0x4c4
                    0x04c4                  _U1EP13bits = 0x4c4
                    0x04c6                  U1EP14 = 0x4c6
                    0x04c6                  _U1EP14 = 0x4c6
                    0x04c6                  _U1EP14bits = 0x4c6
                    0x04c8                  U1EP15 = 0x4c8
                    0x04c8                  _U1EP15 = 0x4c8
                    0x04c8                  _U1EP15bits = 0x4c8
                    0x04cc                  U1PWMRRS = 0x4cc
                    0x04cc                  _U1PWMRRS = 0x4cc
                    0x04cc                  _U1PWMRRSbits = 0x4cc
                    0x04ce                  U1PWMCON = 0x4ce
                    0x04ce                  _U1PWMCON = 0x4ce
                    0x04ce                  _U1PWMCONbits = 0x4ce
                    0x0600                  PMCON = 0x600
                    0x0600                  _PMCON = 0x600
                    0x0600                  _PMCONbits = 0x600
                    0x0602                  PMMODE = 0x602
                    0x0602                  _PMMODE = 0x602
                    0x0602                  _PMMODEbits = 0x602
                    0x0604                  PMADDR = 0x604
                    0x0604                  _PMADDR = 0x604
                    0x0604                  _PMADDRbits = 0x604
                    0x0604                  PMDOUT1 = 0x604
                    0x0604                  _PMDOUT1 = 0x604
                    0x0604                  _PMDOUT1bits = 0x604
                    0x0606                  PMDOUT2 = 0x606
                    0x0606                  _PMDOUT2 = 0x606
                    0x0608                  PMDIN1 = 0x608
                    0x0608                  _PMDIN1 = 0x608
                    0x060a                  PMDIN2 = 0x60a
                    0x060a                  _PMDIN2 = 0x60a
                    0x060c                  PMAEN = 0x60c
                    0x060c                  _PMAEN = 0x60c
                    0x060c                  _PMAENbits = 0x60c
                    0x060e                  PMSTAT = 0x60e
                    0x060e                  _PMSTAT = 0x60e
                    0x060e                  _PMSTATbits = 0x60e
                    0x0620                  ALRMVAL = 0x620
                    0x0620                  _ALRMVAL = 0x620
                    0x0622                  ALCFGRPT = 0x622
                    0x0622                  _ALCFGRPT = 0x622
                    0x0622                  _ALCFGRPTbits = 0x622
                    0x0624                  RTCVAL = 0x624
                    0x0624                  _RTCVAL = 0x624
                    0x0626                  RCFGCAL = 0x626
                    0x0626                  _RCFGCAL = 0x626
                    0x0626                  _RCFGCALbits = 0x626
                    0x0640                  CRCCON = 0x640
                    0x0640                  _CRCCON = 0x640
                    0x0640                  _CRCCONbits = 0x640
                    0x0640                  CRCCON1 = 0x640
                    0x0640                  _CRCCON1 = 0x640
                    0x0640                  _CRCCON1bits = 0x640
                    0x0642                  CRCCON2 = 0x642
                    0x0642                  _CRCCON2 = 0x642
                    0x0642                  _CRCCON2bits = 0x642
                    0x0644                  CRCXOR = 0x644
                    0x0644                  _CRCXOR = 0x644
                    0x0644                  _CRCXORbits = 0x644
                    0x0644                  CRCXORL = 0x644
                    0x0644                  _CRCXORL = 0x644
                    0x0644                  _CRCXORLbits = 0x644
                    0x0646                  CRCXORH = 0x646
                    0x0646                  _CRCXORH = 0x646
                    0x0646                  _CRCXORHbits = 0x646
                    0x0648                  CRCDAT = 0x648
                    0x0648                  _CRCDAT = 0x648
                    0x0648                  CRCDATL = 0x648
                    0x0648                  _CRCDATL = 0x648
                    0x064a                  CRCDATH = 0x64a
                    0x064a                  _CRCDATH = 0x64a
                    0x064c                  CRCWDAT = 0x64c
                    0x064c                  _CRCWDAT = 0x64c
                    0x064c                  CRCWDATL = 0x64c
                    0x064c                  _CRCWDATL = 0x64c
                    0x064e                  CRCWDATH = 0x64e
                    0x064e                  _CRCWDATH = 0x64e
                    0x0650                  CMSTAT = 0x650
                    0x0650                  _CMSTAT = 0x650
                    0x0650                  _CMSTATbits = 0x650
                    0x0652                  CVRCON = 0x652
                    0x0652                  _CVRCON = 0x652
                    0x0652                  _CVRCONbits = 0x652
                    0x0654                  CM1CON = 0x654
                    0x0654                  _CM1CON = 0x654
                    0x0654                  _CM1CONbits = 0x654
                    0x065c                  CM2CON = 0x65c
                    0x065c                  _CM2CON = 0x65c
                    0x065c                  _CM2CONbits = 0x65c
                    0x0664                  CM3CON = 0x664
                    0x0664                  _CM3CON = 0x664
                    0x0664                  _CM3CONbits = 0x664
                    0x0680                  RPINR0 = 0x680
                    0x0680                  _RPINR0 = 0x680
                    0x0680                  _RPINR0bits = 0x680
                    0x0682                  RPINR1 = 0x682
                    0x0682                  _RPINR1 = 0x682
                    0x0682                  _RPINR1bits = 0x682
                    0x0686                  RPINR3 = 0x686
                    0x0686                  _RPINR3 = 0x686
                    0x0686                  _RPINR3bits = 0x686
                    0x0688                  RPINR4 = 0x688
                    0x0688                  _RPINR4 = 0x688
                    0x0688                  _RPINR4bits = 0x688
                    0x068e                  RPINR7 = 0x68e
                    0x068e                  _RPINR7 = 0x68e
                    0x068e                  _RPINR7bits = 0x68e
                    0x0690                  RPINR8 = 0x690
                    0x0690                  _RPINR8 = 0x690
                    0x0690                  _RPINR8bits = 0x690
                    0x0692                  RPINR9 = 0x692
                    0x0692                  _RPINR9 = 0x692
                    0x0692                  _RPINR9bits = 0x692
                    0x0696                  RPINR11 = 0x696
                    0x0696                  _RPINR11 = 0x696
                    0x0696                  _RPINR11bits = 0x696
                    0x06a4                  RPINR18 = 0x6a4
                    0x06a4                  _RPINR18 = 0x6a4
                    0x06a4                  _RPINR18bits = 0x6a4
                    0x06a6                  RPINR19 = 0x6a6
                    0x06a6                  _RPINR19 = 0x6a6
                    0x06a6                  _RPINR19bits = 0x6a6
                    0x06a8                  RPINR20 = 0x6a8
                    0x06a8                  _RPINR20 = 0x6a8
                    0x06a8                  _RPINR20bits = 0x6a8
                    0x06aa                  RPINR21 = 0x6aa
                    0x06aa                  _RPINR21 = 0x6aa
                    0x06aa                  _RPINR21bits = 0x6aa
                    0x06ac                  RPINR22 = 0x6ac
                    0x06ac                  _RPINR22 = 0x6ac
                    0x06ac                  _RPINR22bits = 0x6ac
                    0x06ae                  RPINR23 = 0x6ae
                    0x06ae                  _RPINR23 = 0x6ae
                    0x06ae                  _RPINR23bits = 0x6ae
                    0x06c0                  RPOR0 = 0x6c0
                    0x06c0                  _RPOR0 = 0x6c0
                    0x06c0                  _RPOR0bits = 0x6c0
                    0x06c2                  RPOR1 = 0x6c2
                    0x06c2                  _RPOR1 = 0x6c2
                    0x06c2                  _RPOR1bits = 0x6c2
                    0x06c4                  RPOR2 = 0x6c4
                    0x06c4                  _RPOR2 = 0x6c4
                    0x06c4                  _RPOR2bits = 0x6c4
                    0x06c6                  RPOR3 = 0x6c6
                    0x06c6                  _RPOR3 = 0x6c6
                    0x06c6                  _RPOR3bits = 0x6c6
                    0x06c8                  RPOR4 = 0x6c8
                    0x06c8                  _RPOR4 = 0x6c8
                    0x06c8                  _RPOR4bits = 0x6c8
                    0x06ca                  RPOR5 = 0x6ca
                    0x06ca                  _RPOR5 = 0x6ca
                    0x06ca                  _RPOR5bits = 0x6ca
                    0x06cc                  RPOR6 = 0x6cc
                    0x06cc                  _RPOR6 = 0x6cc
                    0x06cc                  _RPOR6bits = 0x6cc
                    0x06ce                  RPOR7 = 0x6ce
                    0x06ce                  _RPOR7 = 0x6ce
                    0x06ce                  _RPOR7bits = 0x6ce
                    0x06d0                  RPOR8 = 0x6d0
                    0x06d0                  _RPOR8 = 0x6d0
                    0x06d0                  _RPOR8bits = 0x6d0
                    0x06d2                  RPOR9 = 0x6d2
                    0x06d2                  _RPOR9 = 0x6d2
                    0x06d2                  _RPOR9bits = 0x6d2
                    0x06d4                  RPOR10 = 0x6d4
                    0x06d4                  _RPOR10 = 0x6d4
                    0x06d4                  _RPOR10bits = 0x6d4
                    0x06d6                  RPOR11 = 0x6d6
                    0x06d6                  _RPOR11 = 0x6d6
                    0x06d6                  _RPOR11bits = 0x6d6
                    0x06d8                  RPOR12 = 0x6d8
                    0x06d8                  _RPOR12 = 0x6d8
                    0x06d8                  _RPOR12bits = 0x6d8
                    0x0740                  RCON = 0x740
                    0x0740                  _RCON = 0x740
                    0x0740                  _RCONbits = 0x740
                    0x0742                  OSCCON = 0x742
                    0x0742                  _OSCCON = 0x742
                    0x0742                  _OSCCONbits = 0x742
                    0x0742                  OSCCONL = 0x742
                    0x0742                  _OSCCONL = 0x742
                    0x0743                  OSCCONH = 0x743
                    0x0743                  _OSCCONH = 0x743
                    0x0744                  CLKDIV = 0x744
                    0x0744                  _CLKDIV = 0x744
                    0x0744                  _CLKDIVbits = 0x744
                    0x0748                  OSCTUN = 0x748
                    0x0748                  _OSCTUN = 0x748
                    0x0748                  _OSCTUNbits = 0x748
                    0x074e                  REFOCON = 0x74e
                    0x074e                  _REFOCON = 0x74e
                    0x074e                  _REFOCONbits = 0x74e
                    0x0758                  DSCON = 0x758
                    0x0758                  _DSCON = 0x758
                    0x0758                  _DSCONbits = 0x758
                    0x075a                  DSWAKE = 0x75a
                    0x075a                  _DSWAKE = 0x75a
                    0x075a                  _DSWAKEbits = 0x75a
                    0x075c                  DSGPR0 = 0x75c
                    0x075c                  _DSGPR0 = 0x75c
                    0x075c                  _DSGPR0bits = 0x75c
                    0x075e                  DSGPR1 = 0x75e
                    0x075e                  _DSGPR1 = 0x75e
                    0x075e                  _DSGPR1bits = 0x75e
                    0x0760                  NVMCON = 0x760
                    0x0760                  _NVMCON = 0x760
                    0x0760                  _NVMCONbits = 0x760
                    0x0766                  NVMKEY = 0x766
                    0x0766                  _NVMKEY = 0x766
                    0x0770                  PMD1 = 0x770
                    0x0770                  _PMD1 = 0x770
                    0x0770                  _PMD1bits = 0x770
                    0x0772                  PMD2 = 0x772
                    0x0772                  _PMD2 = 0x772
                    0x0772                  _PMD2bits = 0x772
                    0x0774                  PMD3 = 0x774
                    0x0774                  _PMD3 = 0x774
                    0x0774                  _PMD3bits = 0x774
                    0x0776                  PMD4 = 0x776
                    0x0776                  _PMD4 = 0x776
                    0x0776                  _PMD4bits = 0x776
                    0x0144                  IC1 = 0x144
                    0x0144                  _IC1 = 0x144
                    0x014c                  IC2 = 0x14c
                    0x014c                  _IC2 = 0x14c
                    0x0154                  IC3 = 0x154
                    0x0154                  _IC3 = 0x154
                    0x015c                  IC4 = 0x15c
                    0x015c                  _IC4 = 0x15c
                    0x0164                  IC5 = 0x164
                    0x0164                  _IC5 = 0x164
                    0x0194                  OC1 = 0x194
                    0x0194                  _OC1 = 0x194
                    0x019e                  OC2 = 0x19e
                    0x019e                  _OC2 = 0x19e
                    0x01a8                  OC3 = 0x1a8
                    0x01a8                  _OC3 = 0x1a8
                    0x01b2                  OC4 = 0x1b2
                    0x01b2                  _OC4 = 0x1b2
                    0x01bc                  OC5 = 0x1bc
                    0x01bc                  _OC5 = 0x1bc
                    0x0240                  SPI1 = 0x240
                    0x0240                  _SPI1 = 0x240
                    0x0260                  SPI2 = 0x260
                    0x0260                  _SPI2 = 0x260
                    0x0220                  UART1 = 0x220
                    0x0220                  _UART1 = 0x220
                    0x0230                  UART2 = 0x230
                    0x0230                  _UART2 = 0x230
                    0x0001                  __MPLAB_BUILD = 0x1
START GROUP
LOAD c:/program files/microchip/mplabc30/v3.25/bin/bin/../../lib\libpic30-coff.a
LOAD c:/program files/microchip/mplabc30/v3.25/bin/bin/../../lib\libm-coff.a
LOAD c:/program files/microchip/mplabc30/v3.25/bin/bin/../../lib\libc-coff.a
END GROUP
OUTPUT(PIC24boot.cof coff-pic30)
LOAD data_init
LOAD default_isr

__c30_signature
                  0x0014c4         0x30
 __c30_signature
                  0x0014c4          0x6 Objects\USB Device - HID Bootloader - C30\usb_descriptors.o
 __c30_signature
                  0x0014ca          0x6 Objects\USB Device - HID Bootloader - C30\main.o
 __c30_signature
                  0x0014d0          0x6 Objects\USB Device - HID Bootloader - C30\usb_function_hid.o
 __c30_signature
                  0x0014d6          0x6 Objects\USB Device - HID Bootloader - C30\usb_device.o
 __c30_signature
                  0x0014dc          0x6 Objects\USB Device - HID Bootloader - C30\usb_hal_pic24.o
 __c30_signature
                  0x0014e2          0x6 c:/program files/microchip/mplabc30/v3.25/bin/bin/../../lib\libpic30-coff.a(crt0_standard.o)
 __c30_signature
                  0x0014e8          0x6 c:/program files/microchip/mplabc30/v3.25/bin/bin/../../lib\libpic30-coff.a(data_init_standard.o)
 __c30_signature
                  0x0014ee          0x6 c:/program files/microchip/mplabc30/v3.25/bin/bin/../../lib\libc-coff.a(memset.o)

_0171a54055e73d96
                    0x0800         0x10
 _0171a54055e73d96
                    0x0800         0x10 Objects\USB Device - HID Bootloader - C30\usb_device.o
                    0x0800                  BDT

USB_VARS            0x0810         0xc0
 USB_VARS           0x0810         0xc0 Objects\USB Device - HID Bootloader - C30\main.o
                    0x0810                  PacketFromPCBuffer
                    0x0850                  PacketToPC
                    0x0890                  PacketFromPC

.nbss               0x08d0         0x9c
 .nbss              0x08d0         0x52 Objects\USB Device - HID Bootloader - C30\main.o
                    0x08d2                  ConfigsProtected
                    0x08d4                  ProgrammedPointer
                    0x08d8                  BufferedDataIndex
                    0x08da                  ProgrammingBuffer
                    0x091a                  ErasePageTracker
                    0x091b                  BootState
                    0x091c                  ProgramMemStopAddress
                    0x0920                  MaxPageToErase
 .nbss              0x0922         0x4a Objects\USB Device - HID Bootloader - C30\usb_device.o
                    0x0922                  CtrlTrfData
                    0x092a                  SetupPkt
                    0x0932                  USBStatusStageEnabledFlag2
                    0x0934                  USBStatusStageEnabledFlag1
                    0x0936                  USBStatusStageTimeoutCounter
                    0x0937                  ep_data_out
                    0x0939                  ep_data_in
                    0x093c                  BothEP0OutUOWNsSet
                    0x093e                  endpoint_number
                    0x093f                  USTATcopy
                    0x0940                  pDst
                    0x0942                  controlTransferState
                    0x0943                  shortPacketStatus
                    0x0944                  pBDTEntryEP0OutNext
                    0x0946                  pBDTEntryEP0OutCurrent
                    0x0948                  USBAlternateInterface
                    0x094a                  pBDTEntryIn
                    0x094e                  pBDTEntryOut
                    0x0952                  outPipes
                    0x0959                  USBActiveConfiguration
                    0x095a                  USBDeviceState
                    0x095c                  USBBusIsSuspended
                    0x095e                  RemoteWakeup
                    0x0960                  inPipes
                    0x0966                  USBDeferINDataStagePackets
                    0x0968                  USBDeferStatusStagePacket
                    0x096a                  USBDeferOUTDataStagePackets

.ndata              0x096c          0x6
 .ndata             0x096c          0x6 Objects\USB Device - HID Bootloader - C30\main.o
                    0x096c                  blinkStatusValid
                    0x096e                  USBInHandle
                    0x0970                  USBOutHandle

.nbss               0x0972          0x2
 .nbss              0x0972          0x2 Objects\USB Device - HID Bootloader - C30\usb_function_hid.o
                    0x0972                  active_protocol
                    0x0973                  idle_rate

.const              0x849e         0xc0 load address 0x00049e  
 .const             0x849e         0xc0 Objects\USB Device - HID Bootloader - C30\usb_descriptors.o
                    0x849e                  USB_SD_Ptr
                    0x84a4                  USB_CD_Ptr
                    0x84a6                  hid_rpt01
                    0x84c4                  sd002
                    0x84ea                  sd001
                    0x851e                  sd000
                    0x8522                  configDescriptor1
                    0x854c                  device_dsc

.text             0x00055e        0xc66
 .text            0x00055e        0x7bc Objects\USB Device - HID Bootloader - C30\usb_device.o
                  0x00055e                  USBDeviceInit
                  0x0005ee                  USBCtrlEPAllowStatusStage
                  0x00064e                  USBEnableEndpoint
                  0x000678                  USBTransferOnePacket
                  0x0006ae                  USBStallEndpoint
                  0x0006e0                  USBCancelIO
                  0x000760                  USBCtrlEPAllowDataStage
                  0x0007ae                  USBDeviceTasks
 .text            0x000d1a        0x3ca Objects\USB Device - HID Bootloader - C30\main.o
                  0x000d1a                  UserInit
                  0x000d40                  EraseFlash
                  0x000d70                  WriteFlashSubBlock
                  0x000dac                  ReadProgramMemory
                  0x000dc6                  BootApplication
                  0x001042                  ProcessIO
                  0x001052                  main
                  0x001082                  USBCBSuspend
                  0x001084                  USBCBWakeFromSuspend
                  0x001086                  USBCB_SOF_Handler
                  0x001088                  USBCBErrorHandler
                  0x00108a                  USBCBCheckOtherReq
                  0x00108c                  USBCBStdSetDscHandler
                  0x00108e                  USBCBInitEP
                  0x0010a2                  USBCBSendResume
                  0x0010d2                  USER_USB_CALLBACK_EVENT_HANDLER
 .text            0x0010e4         0x90 Objects\USB Device - HID Bootloader - C30\usb_function_hid.o
                  0x0010e4                  USBCheckHIDRequest
 .text            0x001174         0x50 Objects\USB Device - HID Bootloader - C30\usb_hal_pic24.o
                  0x001174                  USBSleepOnSuspend

.dinit            0x0011c4         0x2a
 .dinit           0x0011c4         0x2a data_init

.isr              0x0011ee          0x2
 .isr             0x0011ee          0x2 default_isr
                  0x0011ee                  _DefaultInterrupt
