:020000040000fa
:08000000c4140400000000001c
:020000040000fa
:10280800c414040000000000da17040000000000ef
:10281800da17040000000000da17040000000000c6
:10282800da17040000000000da17040000000000b6
:10283800da17040000000000da17040000000000a6
:10284800da17040000000000da1704000000000096
:10285800da17040000000000da1704000000000086
:102868008617040000000000da17040000000000ca
:10287800da17040000000000da1704000000000066
:10288800da17040000000000da1704000000000056
:10289800da17040000000000da1704000000000046
:1028a800da17040000000000da1704000000000036
:1028b800da17040000000000da1704000000000026
:1028c800da17040000000000da1704000000000016
:1028d800da17040000000000da1704000000000006
:1028e800da17040000000000da17040000000000f6
:1028f800da17040000000000da17040000000000e6
:10290800da17040000000000da17040000000000d5
:10291800da17040000000000da17040000000000c5
:10292800da17040000000000da17040000000000b5
:10293800da17040000000000da17040000000000a5
:10294800da17040000000000da1704000000000095
:10295800da17040000000000da1704000000000085
:10296800da17040000000000da1704000000000075
:10297800da17040000000000da1704000000000065
:020000040000fa
:102988008f802000007f22000001880000000000e6
:102998000c000700a07c21000100200011000700a6
:1029a800000020000000e0000200320000000200e9
:1029b80000000000a4170200000000000040da0038
:1029c8000000fe004440a900000020000000e000d4
:1029d8000300320000002000a00188004440a80045
:1029e8000000060091018800800078000000eb00dc
:1029f80015003700e280400032a0b4009101ba000f
:102a0800e280400032a0b4009102ba00e2804000a7
:102a180032a0b4000002eb00472bde00f507b2003d
:102a2800602ce10004003a000059eb008301e90042
:102a3800fdff3e00040037006128e100010032007c
:102a48000082eb00040007001101ba000200e00058
:102a5800e8ff3a00000006003159ba008301e90096
:102a68000c0032002159ba008301e9000800320045
:102a78000400e00003003a00e280400032a0b40005
:102a8800f5ff370011d9ba008301e900faff3a00cf
:102a98008100e800e180400032a0b4000000060098
:020000040000fa
:10000800081400000c140000101400001414000060
:1000180018140000c0140000c0140000c014000030
:100028001c140000201400002414000028140000f0
:10003800c01400002c140000301400003414000018
:10004800381400003c140000401400004414000060
:10005800481400004c140000c0140000c014000034
:100068005014000054140000581400005c140000e0
:1000780060140000c0140000c0140000c014000088
:10008800c014000064140000681400006c14000020
:100098007014000074140000781400007c14000030
:1000a8008014000084140000c0140000c014000074
:1000b800c0140000881400008c1400009014000084
:1000c800c014000094140000c0140000c014000004
:1000d800c014000098140000c0140000c0140000f0
:1000e800c01400009c140000a0140000c0140000fc
:1000f800c0140000c0140000c0140000c0140000a8
:10010800c0140000c0140000c0140000c014000097
:10011800c0140000c0140000a4140000c0140000a3
:10012800c0140000a8140000ac140000b0140000b3
:10013800c0140000c0140000c0140000c014000067
:10014800b4140000c0140000c0140000c014000063
:10015800c0140000b8140000c0140000c01400004f
:10016800c0140000c0140000c0140000c014000037
:10017800c0140000c0140000bc140000c01400002b
:10018800c0140000c0140000c0140000c014000017
:10019800c0140000c0140000c0140000c014000007
:1001a800c0140000c0140000c0140000c0140000f7
:1001b800c0140000c0140000c0140000c0140000e7
:1001c800c0140000c0140000c0140000c0140000d7
:1001d800c0140000c0140000c0140000c0140000c7
:1001e800c0140000c0140000c0140000c0140000b7
:0801f800c0140000c014000057
:020000040000fa
:102aa8000000fa00c9a2a900c9c2a900c9e2a90088
:102ab800d16c20009140780000ceb30000c06000c7
:102ac8004041b300cde6b700f16c2000914078009a
:102ad80000ceb30000c060003041b300cfe6b700bd
:102ae800e16c20009140780000ceb30000c0600087
:102af8002041b300cee6b700000128002008880076
:102b0800f0e12400b00c880000e12400a00c88004b
:102b180092c1bf00f041b30092e1b70092e1a90071
:102b2800111920009140780030ceb30000c0600039
:102b38000044a00091e1b7000119200091407800fd
:102b480080cfb30000c060006040b30090e1b700e0
:102b5800f0e12400000d880000e12400f00c88005a
:102b68009cc1bf00f041b3009ce1b7009ce1a90003
:102b7800b11920009140780030ceb30000c0600049
:102b88000044a0009be1b700a11920009140780003
:102b980080cfb30000c060006040b3009ae1b70086
:102ba800f0e12400500d880000e12400400d880069
:102bb800a6c1bf00f041b300a6e1b700a6e1a90095
:102bc800511a20009140780030ceb30000c0600058
:102bd8000044a000a5e1b700411a20009140780008
:102be80080cfb30000c060006040b300a4e1b7002c
:102bf80000e1240010088800b0e024000b00070062
:102c08000080fa00000006000000fa00f0e124004d
:102c1800b00c8800f0e12400000d8800f0e12400e9
:102c2800500d88000080fa00000006000200fa003b
:102c3800000f78001e007800b00c8800f0e1240036
:102c4800000d8800f0e12400500d88000080fa0093
:102c5800000006000000fa00b10c8000101e2b00d6
:102c6800008040000080fa00000006000200fa0020
:102c7800000f7800f0e12400b00c88001e007800f6
:102c8800000d8800f0e12400500d88000080fa0053
:102c9800000006000000fa00010d8000101e2b0045
:102ca800008040000080fa00000006000200fa00e0
:102cb800000f7800f0e12400b00c8800f0e1240057
:102cc800000d88001e007800500d88000080fa0072
:102cd800000006000000fa00510d8000101e2b00b5
:102ce800008040000080fa00000006000200fa00a0
:102cf800000f7800f0e12400b00c88001e00780076
:102d0800000d88001e007800500d88000080fa0031
:102d1800000006000000fa00510d8000101e2b0074
:102d280000814000010d8000101e2b000080400033
:102d3800000061000080fa00000006000200fa00ae
:102d4800000f78001e007800b00c8800f0e1240025
:102d5800000d88001e007800500d88000080fa00e1
:102d6800000006000000fa00b10c8000101e2b00c5
:102d780000814000510d8000101e2b000080400093
:102d8800000061000080fa00000006000200fa005e
:102d9800000f78001e007800b00c88001e00780034
:102da800000d8800f0e12400500d88000080fa0032
:102db800000006000000fa00b10c8000101e2b0075
:102dc80000814000010d8000101e2b000080400093
:102dd800000061000080fa00000006000200fa000e
:102de800000f78001e007800b00c88001e007800e4
:102df800000d88001e007800500d88000080fa0041
:102e0800000006000000fa00b10c8000101e2b0024
:102e180000814000010d8000101e2b000080400042
:102e280000016100510d8000101e2b000080400041
:102e3800000061000080fa00000006000000fa00af
:102e4800b10c8000101e2b0000814000010d800095
:102e5800101e2b000080400000017100510d800001
:102e6800101e2b0000804000000071000080fa0056
:102e7800000006000000fa00f0ff07000000e00074
:102e880008003200b00c800000408800000d80006f
:102e980010408800500d8000204088005aff07002d
:102ea8000600370000408000b00c88001040800009
:102eb800000d880020408000500d88000080fa0036
:102ec800000006000000fa00300880000100200021
:102ed8000080fa00000006000000fa000000eb0085
:102ee80000048800000328008008880040422f0062
:102ef8006008880084e0a90094e0a8000080fa0037
:102f0800000006003600f800809fbe00829fbe00c9
:102f1800849fbe00869fbe000000fa00d5ff070010
:102f280084e0a9000080fa004f03be004f02be00f3
:102f38004f01be004f00be003600f90000400600f9
:102f48000400fa006000b800008fbe00010007000e
:102f5800ffff37000200fa000080eb0060198800cc
:102f680080252000000f780044a7a8001e0fe90064
:102f78000080eb009e0f1000fcff3a00c8fe07001f
:0c2f8800d5ff07000080fa0000000600e2
:020000040000fa
:102f9400060800000200000002000000000000001b
:102fa400000800000600000000000000000000000f
:020000040000fa
:042fb4000000fe001b
:00000001FF
