:020000040000fa
:08000000c4140400000000001c
:020000040000fa
:10000800081400000c140000101400001414000060
:1000180018140000c0140000c0140000c014000030
:100028001c140000201400002414000028140000f0
:10003800c01400002c140000301400003414000018
:10004800381400003c140000401400004414000060
:10005800481400004c140000c0140000c014000034
:100068005014000054140000581400005c140000e0
:1000780060140000c0140000c0140000c014000088
:10008800c014000064140000681400006c14000020
:100098007014000074140000781400007c14000030
:1000a8008014000084140000c0140000c014000074
:1000b800c0140000881400008c1400009014000084
:1000c800c014000094140000c0140000c014000004
:1000d800c014000098140000c0140000c0140000f0
:1000e800c01400009c140000a0140000c0140000fc
:1000f800c0140000c0140000c0140000c0140000a8
:10010800c0140000c0140000c0140000c014000097
:10011800c0140000c0140000a4140000c0140000a3
:10012800c0140000a8140000ac140000b0140000b3
:10013800c0140000c0140000c0140000c014000067
:10014800b4140000c0140000c0140000c014000063
:10015800c0140000b8140000c0140000c01400004f
:10016800c0140000c0140000c0140000c014000037
:10017800c0140000c0140000bc140000c01400002b
:10018800c0140000c0140000c0140000c014000017
:10019800c0140000c0140000c0140000c014000007
:1001a800c0140000c0140000c0140000c0140000f7
:1001b800c0140000c0140000c0140000c0140000e7
:1001c800c0140000c0140000c0140000c0140000d7
:1001d800c0140000c0140000c0140000c0140000c7
:1001e800c0140000c0140000c0140000c0140000b7
:0801f800c0140000c014000057
:020000040000fa
:10280800c414040000000000409a04000000000006
:10281800409a040000000000409a040000000000f4
:10282800409a040000000000409a040000000000e4
:10283800409a040000000000409a040000000000d4
:10284800409a040000000000409a040000000000c4
:10285800409a040000000000409a040000000000b4
:102868003099040000000000409a040000000000b5
:10287800409a040000000000409a04000000000094
:10288800409a040000000000409a04000000000084
:10289800409a040000000000409a04000000000074
:1028a8002099040000000000409a04000000000085
:1028b80038990400000000000a9904000000000094
:1028c800409a040000000000409a04000000000044
:1028d800409a040000000000409a04000000000034
:1028e800409a040000000000409a04000000000024
:1028f800409a040000000000409a04000000000014
:10290800409a040000000000409a04000000000003
:10291800409a040000000000409a040000000000f3
:10292800409a040000000000409a040000000000e3
:10293800409a040000000000409a040000000000d3
:10294800409a040000000000409a040000000000c3
:10295800409a040000000000409a040000000000b3
:10296800409a040000000000409a040000000000a3
:10297800409a040000000000409a04000000000093
:020000040000fa
:102988000f6222000e7f22000e0188000000000066
:10299800000020000000e0000200320000012000da
:1029a800200288000c000700608329000100200035
:1029b80011000700000020000000e00002003200c3
:1029c8000000020000000000b487020000000000c0
:1029d8000040da000000fe004440a900001b20006f
:1029e8000000e0000300320000002000a001880081
:1029f8004440a8000000060091018800800078008b
:102a08000000eb0015003700e280400032a0b4005f
:102a18009101ba00e280400032a0b4009102ba00ed
:102a2800e280400032a0b4000002eb00472bde0039
:102a3800f507b200602ce10004003a000059eb00f1
:102a48008301e900fdff3e00040037006128e10032
:102a5800010032000082eb00040007001101ba00f7
:102a68000200e000e8ff3a00000006003159ba0011
:102a78008301e9000c0032002159ba008301e90002
:102a8800080032000400e00003003a00e280400041
:102a980032a0b400f5ff370011d9ba008301e9006c
:102aa800faff3a008100e800e180400032a0b4005b
:102ab8000000060000000000000000000000000008
:102ac80000000000000000000000000000000000fe
:102ad80000000000000000000000000000000000ee
:102ae80000000000000000000000000000000000de
:102af80000000000000000000000000000000000ce
:102b080000000000000000000000000000000000bd
:102b180000000000000000000000000000000000ad
:102b2800000000000000000000000000000000009d
:102b3800000000006022b800060220000000d0005b
:102b48008180d2000482d2008582d2000000a000d9
:102b58000202520083825a0003003100020242003e
:102b680083824a000000a1000603e900f3ff3a004f
:102b780000000600e68747008e1f7800d0bf9f0040
:102b8800e1bf9f000e0037005fba9700144078003d
:102b9800efb99700934078000201e900814f500097
:102ba800040032000080fb008180fb00010050001f
:102bb8000600370066875700041fe800030fe80087
:102bc8000200e000f0ff3a000000eb004f07780039
:102bd8006f00b10000000600800178000200370095
:102be800b15978000201e9000200e000fcff3a0058
:102bf8000000060080017800020037008159780043
:102c08000201e9000200e000fcff3a0000000600b3
:102c1800800078003104e000feff3a000080ea00fe
:102c280000804000000006008001780006003700a0
:102c38000201e900b1427800855978000302780062
:102c48000504e00006003200030278000200e000fc
:102c5800f7ff3a0002003700005aeb000201e900d2
:0c2c68000200e000fcff3a000000060043
:020000040000fa
:102c74001201000000020000000000000008000033
:102c8400d804000009000000010000000102000057
:102c940003010000090200002000000001010000ff
:102ca40000c000003209000004000000000200001f
:102cb4000806000050000000070500008102000023
:102cc4004000000001070000050100000240000070
:102cd40000010000040300000904000034030000a4
:102ce4004d00000069000000630000007200000055
:102cf4006f0000006300000068000000690000002d
:102d04007000000020000000540000006500000076
:102d140063000000680000006e0000006f00000007
:102d24006c0000006f0000006700000079000000e4
:102d340020000000490000006e0000006300000055
:102d44002e0000003a0300004d000000690000005e
:102d540063000000720000006f00000063000000c8
:102d640068000000690000007000000020000000fe
:102d74004d000000610000007300000073000000bb
:102d84002000000053000000740000006f000000e9
:102d94007200000061000000670000006500000090
:102da40020000000440000007200000069000000e0
:102db40076000000650000001a03000031000000e6
:102dc4003200000033000000340000003500000031
:102dd4003600000037000000380000003900000011
:102de4003000000039000000390000004c9600005b
:102df4006c96000070960000a4960000de96000019
:102e040000950000000000000000000001f900002f
:102e1400000000000000000008870000040000001b
:102e24000000000009af00000000000001000000e5
:102e34000a1b000000000000010000000cc3000099
:102e440001000000000000000daf000002000000bf
:102e54000000000010ff000000000000000000005f
:102e640011ff0000000000000100000012ff00003c
:102e7400000000000100000018ff00000000000036
:102e84000100000019ff0000000000000100000024
:102e940020ff0000000000000000000021ff0000ef
:102ea400000000000000000026df00000100000018
:102eb4000000000037730000000000000000000064
:102ec4003a25000004000000000000003b2500003b
:102ed400000000000000000029ff000004000000c2
:102ee4000000000017ff00000000000000000000c8
:102ef400107c0000ec7b0000688300001e7c000056
:102f0400a87d000040820000a2820000444100002d
:102f14005441000030300000303000002e430000e7
:102f240053560000000000000303000006010000e7
:102f34000406000002050000000300000530000044
:102f440030300000303000002c0000000080000011
:102f54000402000020000000000000004d69000091
:102f6400637200006f630000687000004d61000030
:102f74007373000020530000746f0000726100003e
:102f84006765000020200000202000003030000091
:102f940030310000212300002425000026270000f2
:102fa400282900002d4000005e5f0000607b0000c7
:102fb4007d7e0000205c00002f3a00002a3f0000c4
:102fc400223c00003e7c00002e2e00000000000089
:020000040000fa
:102fd4000200fa00000f78009e0078002145880066
:102fe4000080fa00000006000200fa000000eb0076
:102ff400000f780065003700208a20001e00400082
:1030040011c0b30001487800c1ff21001e00780000
:103014004900dd00008140009e007800200320006c
:103024000088b90080007800c0452200008040007c
:10303400f10f20008100610090417800e0c161003f
:1030440081c0710001487800c810de001041900072
:10305400604161008140710011409800c11f22004d
:103064001e0078004900dd00008140009e007800c9
:10307400200320000088b90080007800e045220089
:1030840000804000f10f2000810061009041780031
:10309400e0c1610081c0710001487800c810de0001
:1030a400104190006041610081407100114098001e
:1030b4001e0078006c00b90080007800e046220011
:1030c400008140009e007800200320000088b900a1
:1030d400800078000046220000804000f10f2000ac
:1030e4008100610090417800e0c1610081c07100fd
:1030f40001487800c810de00104190006041610072
:1031040081407100114098001e0078006c00b900e5
:103114008000780060472200808040001100780021
:103124000000a100800878001e0078006c00b9003f
:103134008000780060472200808040001100780001
:103144000010a100800878001e0078006c00b9000f
:1031540080007800e0462200008140000080eb00ff
:103164008080eb000089be001e0078006c00b9006e
:103174008000780020472200008140000080eb009e
:103184008080eb000089be001e0fe8001e0078005e
:103194000000e00098ff34000000eb00f0238900f9
:1031a4006000b800d0238900e123890010002000ca
:1031b4000080fa00000006000000fa008aff070001
:1031c4000080fa00000006000400fa00000f7800f6
:1031d400110798001e007800900090001e009000d7
:1031e400010001000080fa00000006000400fa005b
:1031f400204798000040eb00004f7800180037008b
:103204009e80fb00208a200000804000104078004f
:103214000004e00011003a009e80fb00200320001f
:103224000088b900000078000003b000d1432200f8
:10323400e14078002e40900080cf500007003a0013
:103244009e80fb00200320000088b90080007800e5
:10325400c043220000804000050037001e4fe800f4
:103264001e4078000004e000e5ff32000000eb009f
:103274000080fa00000006000400fa0020479800cd
:103284002e409000d9ff0700000f78001e00780040
:103294000000e00002003a000000eb0003003700e9
:1032a4001e007800606890000080fb000080fa0037
:1032b400000006000e00fa00004f98005107980025
:1032c400620798000000eb00000f78000e489000a1
:1032d400c6ff0700100798001e0090000000e000e1
:1032e4003d003a000040eb004047980037003700ab
:1032f4004e4090008080fb00208a20000080400027
:10330400104078000004e0002d0032004e40900090
:103314008080fb00208a2000008040008040eb0079
:10332400014878004e4090008080fb00d243220088
:10333400200320000088b90000007800000041004c
:103344000003b0008e489000014878004e40900081
:103354008080fb00200320000088b90080007800f2
:1033640020462200008040005e019000f10f200002
:10337400810061001041780060416100814071006a
:1033840001487800de009000c808de00104190007b
:103394006041610081407100114098004e409000ee
:1033a4008080fb00200320000088b90080007800a2
:1033b400c043220000804000100798000600370038
:1033c4004e4090000040e800404798004e40900076
:1033d4000004e000c6ff32001e0090000000e00080
:1033e40002003a0030022000a30037004e40900053
:1033f4000080fb006c00b900800078006047220068
:1034040080804000110078000000a100800878004e
:103414004e4090000080fb006c00b90080007800f2
:103424006047220080804000110078000010a10055
:10343400800878004e4090000080fb006c00b900ca
:1034440080007800e0462200008140000080eb000c
:103454008080eb000089be004e4090000080fb009d
:103464006c00b900800078002047220000814000f1
:103474000080eb008080eb000089be001e009000fd
:103484006e019000f10f200081006100006990003e
:10349400604161008140710001689800ee00900075
:1034a400c808de001069900060416100814071002d
:1034b400116898005e009000100078000000e000a1
:1034c400040032005e009000900078006e009000ce
:1034d400010001005e009000a00090006e009000ca
:1034e40001000100300798003e00900010007800b1
:1034f4000000e0000300320060002000000f7800ac
:10350400260037003e00900010009000610060002b
:103514000000e000210032003e00900020009000f6
:103524006101b8001e009000f10f200081006100cd
:10353400005a900060426200814072000158980075
:10354400c810de00105a9000604262008140720090
:1035540011589800f10f200081806100205a9000da
:10356400604262008140720021589800c818de0051
:1035740030599000604161008140710031589800d9
:103584003e009000a000900000202000808f50009a
:103594000200360040022000000f78001e00780070
:1035a4000000e00009003a001e009000340007000b
:1035b400000f78001e0078000000e00003003a00cd
:1035c4001e00900068010700000f78001e007800bc
:1035d4000000e00017003a00f02381000000e00042
:1035e40024003a009e009000f12389001e019000ff
:1035f400c24990008381fb00524a90000482fb0080
:103604004822dd008481710003007800e2499000c3
:103614008381fb00724990000281fb004811dd00a8
:103624000281710082007800d0238900e12389009f
:10363400100037004e4090008080fb00d2432200ef
:10364400200320000088b900000078000000410039
:103654000003b0008040eb00014878004e40900029
:103664008080fb00208a20000080400011c0b3004d
:10367400014878001e0078000080fa00000006006f
:103684001000fa007007980010c0b300004f7800d3
:103694000000eb00100798007e009000e0609000ae
:1036a4008180fb00706090000080fb004800dd001a
:1036b40000807000400290007e00900080609000c6
:1036c4008180fb00106090000080fb004800dd005a
:1036d40000807000800078007e00900000699000f7
:1036e4000281fb00106890000080fb004800dd00b0
:1036f400000071006011b800040001000004a20081
:103704000004e0000300320080002000100798004d
:10371400120137007e009000c06090008180fb00a1
:10372400506090000080fb004800dd0000807000c5
:10373400000178006000b8000089be007e0090009f
:10374400806090008180fb00106090000080fb008e
:103754004800dd0000807000400798004e00900093
:10376400e0f8930050c5b30080cf50007f003a00ca
:103774004e009000f0f89300a0cab30080cf500030
:103784007a003a004e009000e070900060c4b300ec
:1037940080cf500027003a004e009000f070900057
:1037a40010c4b30080cf500022003a004e009000b5
:1037b4008078900040c5b30080cf50001d003a00cf
:1037c4004e0090009078900010c3b30080cf50005a
:1037d40018003a004e009000e060900090c2b300e0
:1037e40080cf500013003a007e0090009040780093
:1037f400e0c060000148780090409000e0c06000a4
:1038040011409800a0409000e0c060002140980062
:10381400b0409000e0c06000314098007e0090000d
:1038240021c0b300616898000040eb00004f7800ad
:103834004e0037007e009000806090008180fb0085
:10384400106090000080fb004800dd0000807000e4
:103854002005b0009040780060c4b30080cf5000d1
:1038640042003a007e009000806090008180fb005e
:10387400106090000080fb004800dd0000807000b4
:103884003005b0009040780010c4b30080cf5000e1
:1038940036003a007e009000806090008180fb003a
:1038a400106090000080fb004800dd000080700084
:1038b4004005b0009040780040c5b30080cf500070
:1038c4002a003a007e009000806090008180fb0016
:1038d400106090000080fb004800dd000080700054
:1038e4005005b0009040780030c3b30080cf500042
:1038f4001e003a007e009000806090008180fb00f2
:10390400106090000080fb004800dd000080700023
:103914002004b0009040780090c2b30080cf5000e3
:1039240012003a007e00900090407800e0c06000f1
:103934000148780090409000e0c060001140980079
:10394400a0409000e0c0600021409800b04090008a
:10395400e0c06000314098007e00900031c0b300a8
:10396400616898000040eb00004f78001e4078002a
:103974000004e000790032007e0090008060900036
:103984008180fb00106090000080fb004800dd0097
:1039940000807000500798005e009000e0f89300eb
:1039a40050c5b30080cf500005003a005e0090007f
:1039b400f0f89300a0cab30080cf50000300320097
:1039c4004000200010079800640037005e0090005b
:1039d400e01bb000300798007e0090008040eb00b0
:1039e400616898000040eb004047980050003700a1
:1039f4003e009000804890008180fb00104a9000b7
:103a04000482fb004822dd008480700001017800fc
:103a1400a04890008180fb00304890000080fb00ab
:103a24004800dd0000807000800178007e00900076
:103a3400f10f2000810061001042780060426200b2
:103a44008140720001487800c810de0010429000e6
:103a5400604262008140720011409800f10f200022
:103a640081806100204290006042620081407200c7
:103a740021409800c818de00304190006041610088
:103a840081407100314098003e009000c040900099
:103a9400414f98004e4890000080fb00ee0f50000c
:103aa40019003e00110020000008dd00010524007b
:103ab400810060000100e0000b003a000180210059
:103ac400810060000100e0000b003a006200600029
:103ad4000000e0000c0032007e00900011c0b30032
:103ae40061689800080037007e00900021c0b30090
:103af40061689800040037007e00900031c0b30074
:103b040061689800000000007e00900060689000ea
:103b14000004e0000a003a003e00900070004000fb
:103b2400300798004e4090000040e800404798005d
:103b34004e409000e34f5000adff360001003700c7
:103b4400000000007e009000606890000004e00027
:103b540002003a0050002000100798001e00900058
:103b64000080fa00000006001800fa00889fbe00da
:103b7400300f98000000eb00000f78000040eb00cd
:103b8400604798000040eb00704798003e089000a2
:103b9400e06090008180fb00706090000080fb007a
:103ba4004800dd0000807000400290003e08900054
:103bb400806090008180fb00106090000080fb001a
:103bc4004800dd0000807000800078003e0890000e
:103bd4009082fb00104390000683fb004833dd0015
:103be4008682720005017800a04290008582fb0065
:103bf400304090000080fb004800dd00008072002f
:103c0400800178003e089000806a90008582fb0065
:103c1400106890000080fb004800dd000080720006
:103c2400040001000004a2000004e00003003200cc
:103c340080002000000f7800210337003e08900028
:103c4400c06090008180fb00506090000080fb0009
:103c54004800dd0000807000800178003e0990007b
:103c64001282fb00924290008582fb00c82add008c
:103c74000502720004007800224290000482fb00d6
:103c8400324190000281fb004811dd000201720004
:103c9400820078008089be003e0890008060900019
:103ca4008180fb00106090000080fb004800dd0074
:103cb40000807000400798004e009000e0f89300e8
:103cc40050c5b30080cf500005003a004e0090006c
:103cd400f0f89300a0cab30080cf50000300320074
:103ce40030002000000f7800490237003e089000a1
:103cf400806090008180fb00106090000080fb00d9
:103d04004800dd0000807000e1002000b71f0700bc
:103d1400500798003e089000806090008180fb006e
:103d2400106090000080fb004800dd0000807000ff
:103d34006d004000904078003e0890005168980063
:103d44003e0990009281fb00124290000482fb0025
:103d54004822dd008481710003007800a2419000b4
:103d64008381fb00324190000281fb004811dd0099
:103d740002817100820078005e0190008001eb00f6
:103d840000014100818149003e089000f10f2000ac
:103d940081006100404290006042620081407200f4
:103da40041409800c810de0050429000604262001a
:103db4008140720051409800f10f20008180610021
:103dc400604290006042620081407200614098004d
:103dd400c818de00704190006041610081407100ac
:103de400714098003e089000806090008180fb0044
:103df400106090000080fb004800dd00008070002f
:103e040070004000904078003e089000416898009f
:103e14003e089000806090008180fb00106090005c
:103e24000080fb004800dd0000807000610120007c
:103e34006e1f07006101b8003e089000f10f2000da
:103e440081006100405a900060426200814072002b
:103e540041589800c810de00505a90006042620039
:103e64008140720051589800f10f20008180610058
:103e7400605a90006042620081407200615898006c
:103e8400c818de00705990006041610081407100e3
:103e9400715898003e099000c25990008381fb003c
:103ea400525a90000482fb004822dd008481710094
:103eb40003007800e25990008381fb00725990005e
:103ec4000281fb004811dd0002817100820078004c
:103ed400e00f5000e08f580021003a003e089000a7
:103ee400806090008180fb00106090000080fb00e7
:103ef4004800dd000080700041022000541f0700cc
:103f04000001be003e089000f10f20008100610016
:103f1400405a90006042620081407200415898000b
:103f2400c810de00505a9000604262008140720066
:103f340051589800f10f200081806100605a900070
:103f4400604262008140720061589800c818de0027
:103f5400705990006041610081407100715898006f
:103f64003e089000c04090008180fb0050419000ca
:103f74000281fb004811dd0082807000010278009c
:103f8400e04090008180fb00704090000080fb00c6
:103f94004800dd0000807000800278003e08900038
:103fa400406890000081fb008001eb003e0b900014
:103fb400c65b90008783fb00565c90000884fb007e
:103fc4004844dd008883730007007800e65b9000b6
:103fd4008783fb00765b90000683fb004833dd009b
:103fe4000683730086007800009bb90006037800fe
:103ff400028cb90088037800070343000010b8005e
:1040040001034300860078000401400085814800d4
:104014003e089000f10f200081006100004a9000ea
:10402400604262008140720001489800c810de00be
:10403400104a90006042620081407200114898006a
:10404400f10f200081806100204a900060426200ec
:104054008140720021489800c818de003049900061
:104064006041610081407100314898003e08900031
:10407400806090008180fb00106090000080fb0055
:104084004800dd000080700011012000d71e0700e9
:10409400800078003e089000f20f2000028160004a
:1040a400a0699000e0c1610002c17100226898001b
:1040b400c808de00306990006041610081407100f1
:1040c400316898003e089000806090008180fb0079
:1040d400106090000080fb004800dd00008070004c
:1040e40031012000c11e07008000eb00100798007a
:1040f400210798001e009000ae009000e00f5000d1
:10410400e08f58000b003a003e0890008060900059
:104114008180fb00106090000080fb004800dd00ff
:104124000080700001022000c91e070010079800db
:10413400210798003e089000806090008180fb0079
:10414400106090000080fb004800dd0000807000db
:10415400b1002000a51e0700600798006e009000c3
:104164000000e000050032006e0090006100600075
:10417400004078000004e000030032004002200008
:10418400000f7800220137003e089000a0689000dc
:104194008180fb00306890000080fb004800dd0057
:1041a40000807000c500dd006e00900000804000bb
:1041b4008000e9006e009000000178001100090001
:1041c4008280d8008000eb0070079800010f9800ef
:1041d4005e0090006103b8003e08900040689000c3
:1041e4000081fb008001eb003e0a9000c45a90005d
:1041f4008582fb00545c90000884fb004844dd0089
:104204008882720005007800e45a90008582fb00e1
:10421400745a90000482fb004822dd00048272007c
:1042240084007800009ab90004027800028cb90076
:1042340088027800050242000010b8000102420022
:104244008400780006014000878148007e009000c9
:104254008e08900002004000838048001e019000f8
:10426400ae0190000000510081805900100f9800a9
:10427400210f98003e089000506890000080fb00d9
:104284008000eb000001be001e089000ae08900004
:1042940029fa07000001be003e089000f10f20003b
:1042a40081006100405290006042620081407200cf
:1042b40041509800c810de005052900060426200e5
:1042c4008140720051509800f10f200081806100fc
:1042d4006052900060426200814072006150980018
:1042e400c818de0070519000604161008140710087
:1042f400715098003e099000c25190008381fb00e8
:10430400525290000482fb004822dd008481710037
:1043140003007800e25190008381fb007251900009
:104324000281fb004811dd000281710082007800e7
:1043340042ff200003002000820f5000838f5800aa
:1043440004003e003e08900011c0b300616898006c
:104354001b0037003e099000c25190008381fb008e
:10436400525290000482fb004822dd0084817100d7
:1043740003007800e25190008381fb0072519000a9
:104384000281fb004811dd00028171008200780087
:1043940042ff2f0003002000820f5000838f58003b
:1043a40004003e003e08900021c0b30061689800fc
:1043b400030037003e08900031c0b30061689800e4
:1043c4003e08900060689000e34f50004c003a00b3
:1043d4003e089000806090008180fb001060900097
:1043e4000080fb004800dd0000807000c102200056
:1043f400171e07000001be003e089000f10f2000c8
:1044040081006100404a9000604262008140720075
:1044140041489800c810de00504a90006042620093
:104424008140720051489800f10f200081806100a2
:10443400604a9000604262008140720061489800c6
:10444400c818de007049900060416100814071002d
:10445400714898003e099000824990008381fb00d6
:10446400124a90000482fb004822dd00848171001e
:1044740003007800a24990008381fb003249900038
:104484000281fb004811dd00028171008200780086
:104494007e0190008e099000000141008181490055
:1044a4003e089000f10f200081006100005290004e
:1044b400604262008140720001509800c810de0022
:1044c40010529000604262008140720011509800c6
:1044d400f10f200081806100205290006042620050
:1044e4008140720021509800c818de0030519000bd
:1044f4006041610081407100315098003e003700f6
:104504003e089000c0489000e0c060004148980018
:10451400d0489000e0c0600051489800e048900006
:10452400e0c0600061489800f0489000e0c060007e
:10453400714898003e099000824990008381fb00f5
:10454400124a90000482fb004822dd00848171003d
:1045540003007800a24990008381fb003249900057
:104564000281fb004811dd000281710082007800a5
:104574003e099000a26990008381fb00326990009b
:104584000281fb004811dd00028171004411de004c
:104594008001eb0000014100818149003e08900048
:1045a400f10f20008100610000529000604262001f
:1045b4008140720001509800c810de001052900033
:1045c400604262008140720011509800f10f200097
:1045d400818061002052900060426200814072003c
:1045e40021509800c818de003051900060416100ed
:1045f4008140710031509800ee00900000202000ae
:10460400808f50000200360040022000000f780026
:104614003e08900060689000e34f50000d003200a7
:104624001e0078000000e0009e0032004e00900062
:10463400a0c0900090c2b30080cf500005003200ab
:104644004e009000a0c0900080c2b30080cf500004
:1046540096003a004e009000b05090008180fb001c
:10466400405090000080fb004800dd000080700096
:104674000000e0000a003a004e009000a0c0900044
:1046840090c2b30080cf5000070032004e0090006b
:10469400a0c0900080c2b30080cf5000020032005e
:1046a40030002000000f78001e0078000000e000b9
:1046b400400032006e4090000004a2000004e000bc
:1046c4003c00320010c0b300604798003e089000e0
:1046d400e06090008180fb00706090000080fb002f
:1046e4004800dd0000807000c00290003e08900089
:1046f400806090008180fb00106090000080fb00cf
:104704004800dd0000807000000278003e0990003f
:104714009281fb00124390000683fb004833dd00c6
:104724008681710003007800a24190008381fb0020
:10473400324190000281fb004811dd0002817100ca
:10474400820078004e019000a27190008381fb00ea
:10475400327190000281fb004811dd00028171007a
:104764008001eb0000014100818149003e08900076
:10477400806890008180fb00106890000080fb003e
:104784004800dd000080700084007800050001000e
:104794000004a2000004e0000300320080002000b6
:1047a400000f7800460037000000eb00000f78008f
:1047b4003b0037001e0078000000e0003d0032009e
:1047c4007e4090000004a2000004e0003b003200a0
:1047d40010c0b300704798003e089000e06090005d
:1047e4008180fb00706090000080fb004800dd00c9
:1047f40000807000c00290003e089000806090002d
:104804008180fb00106090000080fb004800dd0008
:1048140000807000000278003e0990009281fb0045
:10482400124390000683fb004833dd00868171004b
:1048340003007800a24190008381fb003241900084
:104844000281fb004811dd000281710082007800c2
:1048540066014000e08148003e08900080689000b6
:104864008180fb00106890000080fb004800dd00a0
:104874000080700084007800050001000004a2009c
:104884000004e0000300320080002000000f7800e4
:104894000b0037000000eb00000f78000000000060
:1048a40005fd37000000000005003700000000008f
:1048b4000300370000000000010037000000000082
:1048c4001e0078004f04be000080fa0000000600bd
:1048d4000600fa00404798004e40900043fa070053
:1048e400100798001e0090000000e00002003a004b
:1048f4000080eb0049003700110020001e009000ea
:10490400540a07008000eb001e009000510a0700c3
:104914001e009000e06090008180fb0070609000b9
:104924000080fb004800dd0000807000b0009000b3
:104934001e009000006990000281fb001068900046
:104944000080fb004800dd00000071000100010050
:104954000040eb00004f7800230037009e80fb00ee
:10496400200320000088b900000078000003b00094
:10497400d1432200e14078004e40900080cf5000a7
:1049840018003a009e80fb00208a2000008040002e
:1049940011c0b300014878009e80fb00d24322007e
:1049a400200320000088b9000000780000004100c6
:1049b400e002b0008040eb00014878009e80fb00dc
:1049c400d2432200200320000088b90000007800b0
:1049d400000041000003b0008040eb000148780073
:1049e400040037001e4fe8001e4078000004e00079
:1049f400daff3200f12381001e009000808f500006
:104a040005003a006000b800d0238900e123890042
:104a14000000eb00f02389000000eb000080fa00a6
:104a2400000006000c00fa0040079800214f98008f
:104a340010002000100798000040eb004047980049
:104a44000040eb00504798004e00900090407800e2
:104a5400e0c2b30080cf500097003a004e009000af
:104a64000000e80010407800604798006e40900015
:104a74000004e00004003200ee409000f0c2b300f5
:104a840080cf500002003a0030c0b300a2003700cb
:104a9400ee409000e0c2b30080cf500088003a009e
:104aa4004e0090000080e8001040780060479800b5
:104ab4006e4090000004e00004003200ee409000dc
:104ac400f0c2b30080cf50007f003a0030c0b30082
:104ad400910037001e009000e10f500054003a008e
:104ae4005e4090000040e80050479800ee4090007f
:104af40000c4b30080cf500004003600ee409000a4
:104b0400a0c5b30080cf50003b003600ee409000bb
:104b1400f0c2b30080cf500004003600ee40900095
:104b240090c3b30080cf5000330036006e40900035
:104b34000004e00030003500ee409000e0c2b30015
:104b440080cf50000c003a004e4090000004a200b8
:104b54000004e0000500320010c0b3004047980094
:104b64000040eb005047980023003700200020004d
:104b740010079800200037000040eb00004f780039
:104b8400070037001e80fb00c17c2900e14078004b
:104b94006e40900080cf5000050032001e4fe800a8
:104ba4001e407800f04f5000f6ff36000100370039
:104bb400000000001e407800f14f50000e003a0043
:104bc4002e4890000004a2000004e00008003a000f
:104bd400ee409000f0c3b30080cf500006003200d6
:104be400ee409000a0c2b30080cf5000020032001b
:104bf40020002000100798004e4090000004e000c0
:104c0400060032005e409000e34f5000080036007a
:104c14002000200010079800050037005e40900037
:104c2400e84f5000020036002000200010079800d2
:104c34001e009000e20f500024003a000040eb00f8
:104c4400004f7800180037001e80fb00d17d29003a
:104c5400e14078006e40900080cf500011003a008f
:104c64002e4890000004a2000004e00008003a006e
:104c7400ee409000f0c3b30080cf50000900320032
:104c8400ee409000a0c2b30080cf50000500320077
:104c94000000eb00100798001e0090000040780010
:104ca4001d0037001e4fe8001e407800e84f5000fa
:104cb400e5ff360005003700000000000300370060
:104cc4000000000001003700000000004e009000ca
:104cd40010407800604798006e4090000080fb0010
:104ce4000000ea004f00de0000407800ce00900093
:104cf4008100e800410798000004e000040032004d
:104d0400ee409000f0c2b30080cf500071ff3a0033
:104d14001e009000004078000080fa0000000600a9
:104d24000600fa0010079800210798000040eb00e5
:104d3400004f7800060037001e80fb00ae00900094
:104d4400008040009e409000716098001e4fe80073
:104d54001e00900090407800114798009e409000fb
:104d6400e0c2b30000c068000080fb000000ea005d
:104d74004f00de00004078009e0090008100e800b3
:104d8400110798000004e0000e0032001e4090005d
:104d94000004e0000b0032009e409000f0c2b3001b
:104da40080cf5000e4ff3a00060037001e80fb006d
:104db400ae0090000080400001c2b3007160980012
:104dc4001e4fe8001e407800e74f5000f7ff360002
:104dd4009e409000e0c2b30080cf50001b003a0018
:104de400060037001e80fb00ae00900000804000eb
:104df4009e409000716098001e4fe8001e009000d5
:104e040090407800114798001e4090000080fb00fd
:104e14000000ea004f00de00004078009e00900091
:104e24008100e800110798000004e000edff3a005b
:104e3400060037001e80fb00ae009000008040009a
:104e440001c2b300716098001e4fe8001e40780054
:104e5400ea4f5000f7ff36000080fa000000060019
:104e64001a00fa00200f9800310f9800420f9800a2
:104e74000000eb00100f9800680047000041eb00b1
:104e8400be08900026010700300f98003e089000ed
:104e94000000e00002003a000080eb00ce00370082
:104ea4004e009000de00900070079800010f9800fb
:104eb4006e009000e06090008180fb0070609000c4
:104ec4000080fb004800dd0000807000e0009000de
:104ed4006e009000006990000281fb001068900051
:104ee4000080fb004800dd000000710001000100ab
:104ef4000004e000090032004e0890006e006000db
:104f04000000e000050032006e009000a1c1b30073
:104f1400017098000080eb00af0037002e0890006d
:104f24000000e00005003a006e00900021c2b300ca
:104f3400017098000080eb00a70037008040eb0070
:104f44003e089000b7fe0700204798002e409000ce
:104f5400e14f50001c003a004e009000de0090002b
:104f640070079800010f98000000eb00100f9800e4
:104f7400ae0890003e08900069ff07002e089000dc
:104f84007002b00080007800f20147006e01470013
:104f940068004700270020000003eb008002eb00bc
:104fa400030278008201780001017800ae089000c5
:104fb4007c030700000f78001e0078000000e0006a
:104fc40006003200210037006e00900031c1b300aa
:104fd400017098000080eb007f0037004e089000bd
:104fe400680060000000e00006003a006800470026
:104ff400ae0890007a0007000004a2000004e0005c
:105004000d0032002e0890007008900030079800c0
:105014006600470012c0b300800078002e0890009c
:10502400770c0700000f78004e0890000020a000c5
:10503400400f98001a003700ce089000b0ff2f00f0
:1050440000806000400f9800150037001e007800b3
:10505400ef0f500012003a004e0890006400600008
:105064000000e0000e0032000000eb00000f7800aa
:10507400ee0090002e089000410898004e00900029
:10508400de0090002e0990000089be004e009000c2
:10509400de0090002e099000200198003101980054
:1050a4001e0078000000e00010003a004e08900056
:1050b400640060000000e0000c0032000000eb001f
:1050c400300798006600470013c0b3000041eb00ae
:1050d400800078002e089000f6030700000f780087
:1050e4004e0890000040a000400f98001e00780079
:1050f4000000e0002e003a004e08900061006000bd
:10510400004078000004e00005003200ae08900082
:10511400111890000010a0009018980004003700a7
:10512400ae089000111890000010a100901898008b
:105134004e089000620060000000e00005003200ac
:10514400ae089000111890000000a000901898007c
:1051540004003700ae089000111890000000a10070
:10516400901898004e089000700060000000e00065
:105174000f003200210020006011b8002e089000ba
:10518400d0100700200798002e0090000000e000d7
:1051940003003200c0012000000f78000400370033
:1051a400ce089000f0fe2f0000806000400f9800b1
:1051b4001e0078000000e000060032006e0090003f
:1051c4009e00780081407800017098000080eb0018
:1051d400010037000000eb000080fa000000060028
:1051e4000e00fa0050079800610798006e009000c6
:1051f4001000be0020079800310798000000eb0063
:10520400400798002e009000be009000e00f500070
:10521400e08f580012003a005e00900020019000d8
:10522400c24990008381fb00524a90000482fb0033
:105234004822dd008481710003007800e249900077
:105244008381fb00724990000281fb004811dd005c
:1052540002817100820078002007980031079800cd
:105264006e009000f009900068014700e4004700d8
:105274000e80e800030278008201780001017800c2
:10528400800078005e009000b3060700000f7800ed
:105294001e0078000000e00002003a000040eb002d
:1052a4000b0037001e007800200890000000e0008a
:1052b40006003a001e007800500890000000e0004c
:1052c40002003a000040eb000100370010c0b300b8
:1052d4000080fa00000006000600fa00200798008b
:1052e4002e009000200890008000eb00008fbe008c
:1052f4001e00be00c000dd0000002000008fbe00c4
:105304002e009000500890008000eb001e1f7000db
:105314001e9770001e00be000080fa000000060008
:105324000a00fa002007980031079800024f9800fd
:105334003e00900037f60700000f78001e0078004a
:105344000000e00002003a000000eb007e0037009d
:1053540062002000a14722002e0090001ff60700e3
:105364001e007800e10f500002003a003e00900059
:10537400750037003e0090000000e800904078007f
:10538400a0c3b30080cf500066003a003e009000f6
:105394001040780095f70700ae009000a000980038
:1053a4002e009000200090000000e00002003a006f
:1053b4000000eb00640037002e00900020019000f4
:1053c400c24990008381fb00524a90000482fb0092
:1053d4004822dd008481710003007800e2499000d6
:1053e4008381fb00724990000281fb004811dd00bb
:1053f40002817100820078002e0190000089be00b5
:105404003e0090000080e800300798001e8fe900fd
:105414001e0078000000e00002003a003e00900008
:10542400490037003e00900090407800f0c2b3007d
:1054340080cf50003b003a003e0090000000e8009e
:10544400300798001e0fe9001e0078000000e000fd
:1054540034003a003e0090003b003700be0090004c
:105464001e0090000080400090407800f0c2b3001d
:1054740080cf500007003a001e0090000000e800b2
:10548400be00900000804000104078000004e0005e
:105494002b0032001e0090000000e00018003200d3
:1054a400be0090002e009000480007000000e000bd
:1054b400130032000e4890000004e0000e00320099
:1054c400be0090002e009000a50007000000e00040
:1054d400020032000000eb001b003700be00900009
:1054e4002e009000390007000000e00004003200a4
:1054f4000000eb00140037000000eb00120037003e
:105504001e0090000000e80010079800be00900004
:105514001e00900000804000300798001e0090009c
:105524001e0f10003e0090000900070010079800ad
:105534001e009000e10f4000c8ff3a000100370050
:10554400000000003e0090000080fa000000060009
:105554000600fa00200798000000eb00000f780016
:10556400010037001e0fe8002e00900090407800e4
:10557400214798002e4090000080fb000000ea00c4
:105584004f00de0000407800ae0090008100e8008b
:10559400210798000004e00004003200ae409000af
:1055a400f0c2b30080cf5000eeff3a002e409000ce
:1055b4000004e00002003a000080eb000100370024
:1055c4001e0078000080fa00000006004600fa0081
:1055d40010279800212798006e0f47008040eb00a9
:1055e4002e2090000ffd0700204798002e409000c9
:1055f4000004e00006003a001e2090002000900005
:1056040031c1b300017098000080eb0052003700f4
:105614002e409000e14f50001b003a001e209000e5
:105624001000be0040079800510798000000eb00ee
:10563400600798009e0078002e209000b8fd0700b7
:10564400710220001e8040006c014700e800470002
:1056540027002000f60320008002eb0002027800fd
:1056640081017800000178009e0078001e209000df
:10567400cc010700300798003e0090000000e000d5
:105684002d003200330037002e409000e34f5000cd
:1056940023003a002e2090000000e800904078009b
:1056a400e0c2b30080cf5000020032000000eb00e3
:1056b400290037001e2090001000be00400798000b
:1056c400510798000000eb00600798006c01470048
:1056d400e8004700660047001400200082017800bb
:1056e40001017800800078001e2090009a050700d0
:1056f400200798003e0090000000e00006003a00f9
:105704002e009000f4fe07001e2190000089be00c8
:105714000000eb00100037000080eb000e003700a3
:105724001e2090002000900031c1b3000170980049
:105734000080eb00080037001e007800d0009000c5
:10574400400090001e2190000089be000000eb0084
:10575400010037000080eb000080fa000000060022
:105764005600fa00102f9800212f9800700047006f
:10577400200798000000eb00502798000000eb0081
:10578400002f98001e2890001000be00000f980003
:10579400110f98000e0890009e089000e00f500032
:1057a400e08f580012003a001e289000200190005b
:1057b400c24990008381fb00524a90000482fb009e
:1057c4004822dd008481710003007800e2499000e2
:1057d4008381fb00724990000281fb004811dd00c7
:1057e4000281710082007800000f9800110f980068
:1057f4001e28900020009000401798008040eb0085
:105804002e28900087fc0700604798006e409000a7
:105814000004e000030032006e409000e34f5000ab
:1058240006003a001e2890002000900031c1b30009
:10583400017098000080eb008d0037006e409000ee
:10584400e14f50000d003a00ae0090002e28900069
:1058540033fd0700a00420000e00400013c0b30075
:1058640002c1b300800078002e00900011020700ee
:105874000000e00007003a00080037001e289000ee
:105884002000900031c1b300017098000080eb004b
:10589400770037000080eb00750037000e0a900097
:1058a4009e0a90004e10900000017800c2499000ba
:1058b4008381fb00524b90000683fb004833dd00dc
:1058c4008681710003007800e24990008381fb0027
:1058d400724990000281fb004811dd0002817100d1
:1058e40082007800800f5200818f5a0003003a0032
:1058f4006000b800008fbe00030037000e0990005e
:105904009e099000028fbe000e0890009e08900031
:10591400200f9800310f98000e0890009e08900008
:105924001e2990000089be000e0890009e08900079
:105934006027980071279800de219000020520005e
:105944000e014100c10420008e8040006e0047001b
:105954000302780082017800010178008000780059
:105964001e289000fc040700400798004e00900099
:105974000000e00007003a001e289000200090007c
:10598400fe00900081407800017098000080eb00d8
:10599400370037004e0090005048900000cf980028
:1059a4004e00900070009000302798004e00900048
:1059b40000089000202798004e00900046fe070043
:1059c40050079800610798004e089000de08900088
:1059d4001e2990000089be004e089000de08900049
:1059e40060279800712798000000eb00002f9800b2
:1059f4000000eb0050279800de21900002052000f3
:105a04000e014100c10420008e8040006e0047005a
:105a14000302780082017800010178008000780098
:105a24001e289000cc040700400798000e08900040
:105a34009e0890001e2990000089be001e28900038
:105a440020009000410420008e8040001e02be0011
:105a54005e019000ee019000070007000000e000e6
:105a6400020032000000eb00010037000080eb0070
:105a74000080fa00000006001200fa0030079800c7
:105a84004207980053079800640798007507980028
:105a9400010f98003e019000825990008381fb0021
:105aa400125a90000482fb004822dd0084817100b8
:105ab40003007800a25990008381fb0032599000c2
:105ac4000281fb004811dd00028171008200780030
:105ad400800078003e009000006190000281fb008d
:105ae400106090000080fb004800dd0000007100a1
:105af400010178008000eb003ff407003e009000b5
:105b0400806090008180fb00106090000080fb00aa
:105b14004800dd0000807000000f78003e00900017
:105b2400806090008180fb00106090000080fb008a
:105b34004800dd0000807000b20020000102200057
:105b44002df407001e007800e1c2b300014878007c
:105b54001e00780001c1b300314898001e0078008f
:105b64008040eb0041489800ce0090001e00780071
:105b7400510898004e019000de01900000002000c2
:105b8400f1ff200002027800030178008001780010
:105b94000100780003026200000061008000eb0055
:105ba400c000dd00000020000001be006120b8003c
:105bb40000017100818171004018de0001002000a5
:105bc400800078001e007800210898001e017800eb
:105bd4006000b80060099800710998000e089000f0
:105be400c04090001e007800514898000e089000b4
:105bf400900090001e007800710098000e0890003c
:105c0400900090001e007800010898001e007800a3
:105c14008000eb00110898001e0078008000eb0063
:105c2400310898001e0078008000eb0041089800bd
:105c34003e009000806090008180fb001060900026
:105c44000080fb004800dd000080700080007800c8
:105c54003e009000006190000281fb001060900003
:105c64000080fb004800dd00000071000002b0006d
:105c740002022000d9f307003e00900080609000eb
:105c84008180fb00106090000080fb004800dd0074
:105c94000080700001022000010f40001e00780007
:105ca400e1c2b30011409800ee0090001e0078009d
:105cb400510898006e019000fe0190000000200041
:105cc400f1ff2000020278000301780080017800cf
:105cd4000100780003026200000061008000eb0014
:105ce400c000dd00000020000001be006120b800fb
:105cf40000017100818171004018de000100200064
:105d0400800078001e007800210898004e01900061
:105d1400de0190003e00900048060700100798003e
:105d2400210798003e009000c06090008180fb0035
:105d3400506090000080fb004800dd00008070008f
:105d440080007800410090000000a000c00098008e
:105d54003e009000c06090008180fb005060900085
:105d64000080fb004800dd00008070001e019000f0
:105d7400ae0190000288be008000eb003e0090005f
:105d8400340507000004a2000004e0000200320011
:105d94000000eb0001003700100020000080fa0032
:105da400000006001400fa0020079800310798004c
:105db40042079800530798006407980075079800f5
:105dc400060f9800170f98000000eb0010079800ca
:105dd4005e0090001000be00e00f5000e08f5800fd
:105de40016003a002e00900020019000c249900055
:105df4008381fb00524a90000482fb004822dd00ac
:105e04008481710003007800e24990008381fb00e3
:105e1400724990000281fb004811dd00028171008b
:105e2400820078005e0190000089be000300370004
:105e34000000000001003700000000000e80e800b0
:105e44007e029000ee0190005e01900080007800d8
:105e54002e009000c0030700000f78001e00900081
:105e6400ef0f50001d0032001e009000fd0f500087
:105e740006003a002e00900020009000d1c1b3002b
:105e8400017098001e009000880037007e0090008a
:105e94000000e800700798001e0078003048900069
:105ea400ef4f5000080032001e0078003048900088
:105eb400e84f5000040032001e00780010407800c3
:105ec400fb4f400006003a001e00780010407800a6
:105ed4000004e000d9ff3a00010037000000000090
:105ee4001e009000ef0f5000040032001e007800e6
:105ef400104078000004e00002003a00f0002000a6
:105f04006a0037001e089000680060000000e0008e
:105f14000a0032001e007800304890008080fb00a8
:105f24000e089000808060001e00780030489000c9
:105f34000080fb00808f5000bdff3a001e089000d7
:105f4400804078001e0078000141780080007800cd
:105f54004e009000650507000004e000b6ff320023
:105f64009e0078003e0090007002b000b200200055
:105f74001af307002e009000a00090003e0090004d
:105f8400410898001e007800d3fc07003e019000f1
:105f940040019800510198003e009000d00090000c
:105fa400400090003e01900060019800710198004b
:105fb4003e0090008000eb00510898003e009000e5
:105fc4008000eb00610898003e0190006000b8007a
:105fd40020099800310998001e007800f00890000c
:105fe400600890003e019000000998001109980093
:105ff4001e007800304890008080fb003e00900036
:10600400011098003e0090000010900070006000a5
:106014000000e0000d0032001e007800d04890001f
:106024003e009000616098001e007800f00090002f
:106034003e009000111098001e0078008008900027
:106044003e00900021109800080037001e007800e0
:10605400b00890003e009000111098001e007800d7
:10606400c00890003e009000211098007e0090002f
:106074000000e900700798003e009000fe009000c8
:10608400710898002e0090001000be003e019000a0
:106094000089be002e0090001000be003e0190005a
:1060a40020019800310198000000eb000080fa0004
:1060b400000006000c00fa00300798004107980021
:1060c400224f9800334f98000000eb00000f780037
:1060d4004e0090008000eb0001087800ce00900094
:1060e4003e0090004f0107000000e0001b003a0052
:1060f4003e4890000004e0000a0032003e00900098
:106104002000070010079800210798003e00900027
:1061140040089000007090000080fb00000f7800a1
:10612400030037006000b8001007980021079800aa
:106134001e0078000000e0000a003a001e029000f1
:10614400ae0290002e499000ce0090003e009000d8
:106154007b000700000f7800020037006001200078
:10616400000f78003e009000400890009e007800e8
:1061740081407800017098001e0078000080fa00c9
:10618400000006000a00fa00400798000000eb0037
:10619400000f78004e00900040089000100798000f
:1061a4004e009000400890002200200003002000d0
:1061b400e101070020079800310798002e009000a5
:1061c400be009000e00f5000e08f580003003a003a
:1061d40070012000000f78003f0037001e0090007f
:1061e40060689000e14f500010003a008040eb00de
:1061f40084ff2000050020002e019000be019000c5
:106204001e009000300907000001be00f0ff2f00bf
:1062140001002000800f5100818f590026003a00b0
:1062240090002000000f7800230037001e0090002b
:1062340060689000e24f500010003a008040eb008c
:1062440084ff2f00050020002e019000be01900065
:106254001e0090001c0907000001be00f0ff2f0083
:1062640001002000800f5100818f590012003a0074
:1062740090002000000f78000f0037008040eb00f2
:1062840084ff2f00f5ff20002e019000be01900036
:106294001e0090000c0907000001be00f0ff2f0053
:1062a400f1ff2000800f5100818f590002003a0055
:1062b40090002000000f78001e0078000000e0002d
:1062c40005003a002e019000be0190001e009000cf
:1062d40019020700000f7800110020001e00900032
:1062e400dc0307000004a2000004e0000200320006
:1062f40090002000000f78004e0090002e019000c6
:10630400be01900042009800530098004e00900097
:106314002e019000be019000620098007300980066
:106324001e007800804078001e00900001709800e4
:106334002e009000be0090000080fa0000000600cd
:106344002000fa00300f9800410f9800225f980057
:10635400640f9800750f98000000eb001007980078
:106364000000eb00700798003e0890001000be008b
:1063740020079800310798003e08900040089000dc
:10638400400798003e0890001000be005007980097
:10639400610798004e08900010027800ee01470053
:1063a4006a0147008e80e800640047006a02070023
:1063b400000f78001e0078000000e00006003a009c
:1063c4003e08900040089000d1c1b30001709800cd
:1063d400d0012000910037003e0890007102200097
:1063e400808040001e007800b20020000ff20700f9
:1063f4001e007800ae589000314898001e007800c6
:106404008040eb0041489800ee0890001e007800a0
:10641400510898006e099000fe09900000002000c9
:10642400f1ff200002027800030178008001780067
:106434000100780003026200000061008000eb00ac
:10644400c000dd00000020000001be006120b80093
:1064540000017100818171004018de0001002000fc
:10646400800078001e007800210898001e01780042
:106474006000b80060099800710998002045800008
:106484000000e00003003200214580007000470056
:1064940001000100ce5090001e0078005148980081
:1064a4009e0890001e007800710098008e089000ed
:1064b4001e007800010898009e0890001e007800d5
:1064c400310898008e0890001e007800410898005a
:1064d4003e0890006e099000fe099000420098006a
:1064e400530098003e0890006e099000fe09900049
:1064f40062009800730098003e0890008000eb0052
:10650400510898003e0890008000eb006108980054
:106514003e0990006000b8002009980031099800f5
:106524001e007800f0089000600890003e0990007a
:1065340000099800110998001e0078003048900066
:106544008080fb003e089000011098003e089000f7
:1065540000109000700060000000e0000d003200a8
:106564001e007800d04890003e08900061609800ba
:106574001e007800f00090003e0890001110980072
:106584001e007800800890003e08900021109800ba
:10659400080037001e007800b00890003e08900004
:1065a400111098001e007800c00890003e0890006a
:1065b400211098004e089000900078003e0890004a
:1065c400710898002e009000be0090003e099000d3
:1065d4000089be002e009000be0090003e0990008d
:1065e40020019800310198003e0890004008900076
:1065f400c06090008180fb00506090000080fb0030
:106604004800dd00008070008000780041009000a8
:106614000000a000c00098001e0090000080fa0056
:10662400000006002200fa00700f9800011798007d
:106634000000eb00000f98007e0890001000be00e0
:10664400400f9800510f98000000eb00600f980075
:106654000000eb00300798007e089000400890008e
:10666400300f98007e0890001000be00100f9800b4
:10667400210f980010c0b300004f98000e10900036
:1066840090007800210798005a0037000040eb0082
:10669400004f78002e019000120798004e099000d8
:1066a400de0990005207980063079800fc01470038
:1066b40078014700f0004700720047002e02900066
:1066c400a5010700700798002e0090000000e80064
:1066d400200798007e0090000000e0000d003200ca
:1066e4007e00900010407800fb4f40000400320010
:1066f4007e009000104078000004e00005003a009d
:106704001e4fe8000e4890009e40780080cf500055
:10671400e2ff39007e0090000000e0002f003a0004
:106724007e0890004008900000017800c249900063
:106734008381fb00524a90000482fb004822dd0062
:106744008481710003007800e24990008381fb009a
:10675400724990000281fb004811dd000281710042
:10676400820078004e099000de099000820f5000ec
:10677400838f580008003a007e089000400890007b
:1067840060689000e34f50000300320020002000b6
:1067940030079800170037005e019000ee0190006a
:1067a400420f9800530f98007e0890004008900014
:1067b400f800470012c0b3001c000700f70f500098
:1067c40003003a0020002000300798000900370039
:1067d4001000200030079800060037000e48900093
:1067e4009e40780080cf500002003a001000200044
:1067f400300798003e0090000000e000a3ff320044
:106804000e1090009e019000030878003e00900056
:10681400e10f500002003a000000eb0001003700d5
:10682400f00020000080fa00000006000a00fa00d0
:106834002007980031079800024f98003e0090000e
:106844001000be000001be002e0090003a000700b8
:10685400008fbe001e00be00e00f5000e08f580005
:1068640002003a0070012000310037002e00900031
:1068740060689000e14f500007003a008040eb0050
:1068840084ff2000050020001e01be002e009000a1
:106894008d070700150037002e00900060689000f7
:1068a400e24f500007003a008040eb0084ff2f00c5
:1068b400050020001e01be002e0090008207070084
:1068c4000a0037002e00900060689000e34f5000eb
:1068d40006003a008040eb0084ff2f00f5ff200003
:1068e4001e01be002e009000770707003e009000b6
:1068f4001001be008040eb001e02be002e0090007e
:10690400710707003e0090003e1878002e107800b2
:106914000e4890000004e000040032001e01be0096
:106924002e00900084000700010037000000eb00f7
:106934000080fa00000006001600fa00000f98001c
:10694400120f9800230f98006000b80060079800a9
:10695400710798000e089000606890000080fb00aa
:10696400e10f50000b003200e30f500012003a0018
:1069740070ff2f00f1ff20002007980031079800d6
:10698400f0ff2f00f1ff2000400798005107980006
:106994001200370070ff200001002000200798003b
:1069a40031079800f0ff2f000100200040079800f5
:1069b400510798000900370070ff2f0001002000e4
:1069c4002007980031079800f0ff2f0001002000f5
:1069d4004007980051079800000000001e0990002d
:1069e400ae0990001000200001002000800f51002b
:1069f400818f590004003e00200020000100200087
:106a0400100f9800210f98001e099000ae09900005
:106a1400028fbe003f0037001e01be000e0890002a
:106a24007603070060079800710798006e019000d4
:106a3400fe0190004e009000de009000800f510097
:106a4400818f590003003a006000b800008fbe0037
:106a5400360037006e009000fe009000e00f5000fa
:106a6400e08f5800300032001200200003002000a4
:106a74001e0f41005e9749006e019000fe019000d8
:106a84002e009000be009000800f5100818f5900ad
:106a9400140032000e099000c25190008381fb0063
:106aa400525290000482fb004822dd008481710070
:106ab40003007800e25190008381fb007251900042
:106ac4000281fb004811dd00028171008200780020
:106ad40062004000e0804800be0f5000ae8f5800b6
:106ae40003003e002000200001002000008fbe00b3
:106af4001e089000ae0890001e01be00800f5100d9
:106b0400818f590003003a006000b800008fbe0076
:106b1400060037001e00be00e00f5000e08f580052
:106b2400bdff3a0001003700000000001e00be0057
:106b34000080fa00000006000e00fa0040079800ea
:106b440052079800630798000000eb00000f7800dc
:106b54005e019000ee0190004e009000b702070025
:106b640010079800210798008000eb004e00900069
:106b7400b80107000004a2000004e0000500320090
:106b84004e00900091c0b300017098009000200066
:106b94006f0037004e019000825990008381fb0002
:106ba400125a90000482fb004822dd0084817100a7
:106bb40003007800a25990008381fb0032599000b1
:106bc4000281fb004811dd0002817100820078001f
:106bd400800078004e009000006190000281fb006c
:106be400106090000080fb004800dd000000710090
:106bf400010178008000eb00ffef07000040eb008c
:106c040060479800290037004e009000e060900033
:106c14008180fb00706090000080fb004800dd0074
:106c240000807000500390004e009000806090003f
:106c34008180fb00106090000080fb004800dd00b4
:106c440000807000800278001e019000ae01900068
:106c54001e009000ae00900061004000e0804800fb
:106c640010079800210798004e009000806890005b
:106c74008180fb00106890000080fb004800dd006c
:106c8400008070000042eb008500780006000100df
:106c94000004e00002003a0090002000000f780099
:106ca4006e4090000040e800604798004e0090005d
:106cb400d06890006e40900080cf500003003600f2
:106cc4001e0078000000e000cfff32004e0090006c
:106cd400c06090008180fb00506090000080fb0049
:106ce4004800dd0000807000000278004e00900033
:106cf400506890000080fb008000eb001e019000b3
:106d0400ae0190000000510081805900008abe004d
:106d14004e009000c06090008180fb0050609000a5
:106d24000080fb004800dd000080700080007800d7
:106d3400410090000000a100c00098001e007800ef
:106d4400804078004e009000017098001e0078008a
:106d54000080fa00000006001a00fa00700798008c
:106d6400010f9800120f9800230f9800340f980019
:106d74007e009000a0009000310798003e01900032
:106d8400825990008381fb00125a90000482fb0018
:106d94004822dd008481710003007800a25990002c
:106da4008381fb00325990000281fb004811dd0011
:106db40002817100820078004b09dd004500de008d
:106dc40000007100c508de00004f98000e489000d6
:106dd4000080fb00be0890008001780011000900cb
:106de4008380d800000f78003e0090006068900017
:106df400e34f5000270032001e0890001000be0030
:106e0400e00f5000e08f580022003a003e0090004e
:106e1400a06890008180fb00306890000080fb0037
:106e24004800dd0000807000800078003e0890007b
:106e3400808f500005003e000e089000f1002000f5
:106e4400010878000000eb00ce0037007e009000bf
:106e54001000be007e019000220290000001be00de
:106e640004007800f5010700100798002107980036
:106e74001e0078008000eb001e019000ae0190001f
:106e84000200400083804800100798002107980002
:106e9400610037003e009000506890000080fb00c5
:106ea4009e00780000017800110009008280d8005b
:106eb400500798002e089000900078005e00900023
:106ec400808f5000070036002e0890008000eb00f1
:106ed400010878007e0090001000be001e0990009a
:106ee4000089be003e009000506890008080fb0046
:106ef4002e089000100078000088b9000000780087
:106f04001e0f1000300037001e0890001000be0055
:106f14000001be003e009000380207001e099000e8
:106f24000089be003e009000606890000080fb0075
:106f3400e30f50000c003a001e0890001001be0040
:106f440080ff2f00f1ff2000800f5100818f590036
:106f540011003a000e089000f100200001087800aa
:106f64000000eb00870037001e0890001001be00ef
:106f740080ff2f0001002000800f5100818f5900f5
:106f840007003a000e089000f10020000108780084
:106f94000000eb007b003700000000000100370018
:106fa400000000002e089000100078008000e80027
:106fb4002e089000010878003e0090005068900070
:106fc4000080fb001e0f10002e0890009000780037
:106fd4005e009000808f5000cbff39001e089000a7
:106fe4001000be000001be003e00900093010700a7
:106ff40010079800210798001e0078008000eb001d
:107004001e019000ae019000020040008380480001
:1070140010079800210798003e009000c06090007f
:107024008180fb00506090000080fb004800dd0080
:10703400008070001001be001e009000ae009000a1
:10704400800f5100818f5900370032008000eb001f
:107054003e0090007f0007000004a2000004e0004e
:10706400050032000e08900091002000010878000d
:107074000000eb00430037003e009000e060900009
:107084008180fb00706090000080fb004800dd0000
:1070940000807000400290003e00900080609000ec
:1070a4008180fb00106090000080fb004800dd0040
:1070b40000807000800078003e009000006990001d
:1070c4000281fb00106890000080fb004800dd0096
:1070d400000071001e019000ae0190000400010048
:1070e4000004a2000004e000050032000e08900035
:1070f40081002000010878000000eb002100370027
:107104003e009000c06090008180fb0050609000c1
:107114000080fb004800dd00008070001e0190002c
:10712400ae0190000288be003e0090008060900096
:107134008180fb00106090000080fb004800dd00af
:1071440000807000400f98000e4890000080fb0003
:107154003e09900080017800110009000381d800e5
:107164008000fd004500dd00ce0890000080400056
:10717400600798000e0890008000eb00010878007a
:107184006e0090000080fa00000006000200fa0081
:10719400000f78008000eb001e0078002d0007002f
:1071a4000004a2000004e00002003200900020006d
:1071b400260037001e007800e06090008180fb000c
:1071c400706090000080fb004800dd0000807000cb
:1071d400400290001e007800806090008180fb00d7
:1071e400106090000080fb004800dd00008070000b
:1071f400800078001e007800406190000281fb004e
:10720400506090000080fb004800dd000000710029
:107214001001be001e007800806a90008582fb0089
:10722400106890000080fb004800dd0000807200c0
:10723400040001000004a2000004e0000200320087
:1072440080002000010037000000eb000080fa00fd
:10725400000006000a00fa00300798004107980071
:107264004e0090000000e00003003200e10f5000e7
:107274003d0032009a0037003e009000c06090004c
:107284008180fb00506090000080fb004800dd001e
:107294000080700040009000610060000000e00089
:1072a4008c0032003e009000e06090008180fb0082
:1072b400706090000080fb004800dd0000807000da
:1072c400d00290003e009000806090008180fb001e
:1072d400106090000080fb004800dd00008070001a
:1072e400800078003e009000406190000281fb0025
:1072f400506090000080fb004800dd000000710039
:107304001001be003e009000006a90000482fb0061
:10731400106890000080fb004800dd00000072004f
:107324000042eb00050001000004e00002003a0006
:107334000040eb006b0037003e009000c0609000fe
:107344008180fb00506090000080fb004800dd005d
:107354000080700080007800410090000000a100cf
:10736400c00098005e0037003e009000c0609000ae
:107374008180fb00506090000080fb004800dd002d
:107384000080700040009000620060000000e00097
:10739400520032003e009000c06090008180fb00eb
:1073a400506090000080fb004800dd000080700009
:1073b40020019000b0019000028fbe000040eb005d
:1073c40040479800320037003e009000e060900093
:1073d4008180fb00706090000080fb004800dd00ad
:1073e40000807000d00290003e009000a0609000e9
:1073f4008180fb00306090000080fb004800dd00cd
:1074040000807000800078003e00900000699000c9
:107414000281fb00106890000080fb004800dd0042
:10742400000071000042eb001e01be0005000100d7
:107434000004e00002003a000040eb00290037009d
:107444004e4090000040e800404798003e01900004
:10745400c25990008381fb00525a90000482fb00c1
:107464004822dd008481710003007800e259900015
:107474008381fb00725990000281fb004811dd00fa
:1074840002817100820078001e0f40005e97480060
:107494003e009000c06890004e40900080cf5000a5
:1074a400c9ff3e003e009000c06090008180fb0058
:1074b400506090000080fb004800dd0000807000f8
:1074c40080007800410090000010a100c0009800e6
:1074d4000300370000000000010037000000000036
:1074e40010c0b3000080fa00000006000800fa0093
:1074f4001007980021079800624798006e4090009a
:107504000080fb00640060000000e00040003200e6
:107514000040eb00004f7800170037001e80fb008e
:107524009e00900000804000904078001147980031
:107534009e409000a0c2b30080cf500012003200e1
:107544009e409000f0c3b30080cf50000900320089
:107554001e80fb00ae009000008040009040780048
:107564001e40900080cf5000020032000040eb002b
:10757400300037001e4fe8001e407800e74f5000ef
:10758400e6ff3600010037000000000080c0b300b1
:10759400004f7800170037001e80fb009e0090000b
:1075a4000080400090407800114798009e40900071
:1075b400a0c2b30080cf5000120032009e40900061
:1075c400f0c3b30080cf5000090032001e80fb00de
:1075d400ae00900000804000904078001e40900073
:1075e40080cf5000020032000040eb001100370051
:1075f4001e4fe8001e407800ea4f5000e6ff3600b8
:10760400010037000000000010c0b300090037007b
:10761400b2002000ae0090001e00900056ed07005e
:1076240000f0a7000000ea000000e9004f00de00bf
:10763400004078000080fa00000006000a00fa000a
:107644002007980032079800430798002e00900006
:10765400606890000080fb00e30f500022003a00b5
:107664003e009000ce00900062015000e08158007e
:107674002e009000506890000080fb008000eb001a
:10768400009ab90004027800028bb90086027800df
:10769400050242000010b800010242008400780094
:1076a4002e029000845290008582fb0014539000b7
:1076b4000683fb004833dd008682720005017800f2
:1076c400a45290008582fb00345290000482fb0097
:1076d4004822dd000482720084017800021f400009
:1076e40003974800420037003e009000ce0090000f
:1076f400e00f5000e08f5800070032003e01900078
:10770400ce0190001000200001002000800f5100e5
:10771400818f590014003a002e0190008249900094
:107724008381fb00124a90000482fb004822dd00a2
:107734008481710003007800a24990008381fb00da
:10774400324990000281fb004811dd000281710082
:10775400820078003e019000ce019000021f40009c
:1077640003974800220037003e009000ce009000ae
:1077740062015000e08158002e0090005068900093
:107784000080fb008000eb00009ab900040278003e
:10779400028bb90086027800050242000010b8008e
:1077a40001024200840078002e029000845290006e
:1077b4008582fb00145390000683fb004833dd00f0
:1077c4008682720005017800a45290008582fb0035
:1077d400345290000482fb004822dd0004827200cf
:1077e40084017800021f4000039748000000000055
:1077f4001e00be000080fa00000006002000fa000f
:10780400889fbe00500f9800620f9800730f980075
:107814006000b80030079800410798005e089000a7
:10782400606890000080fb00e10f500015003200fa
:10783400e30f500035003a006e099000fe099000f5
:107844004218dd00ce10de00810070004210dd0021
:1078540010079800210798000040eb00004f7800c3
:10786400f0ff2f00f1ff20005007980061079800f7
:1078740080ff2f00f1ff200070079800010f98008f
:10788400330037007e0890006300b90000017800df
:107894006e0890006000b90000007800000141000b
:1078a400ee089000300020000008b80001014100fb
:1078b40082007800100798002107980010079800ac
:1078c400210798001e00900000407800614f60007e
:1078d4001e009000ae0090008100d1000080d30013
:1078e4001007980021079800f0ff2f0001002000e6
:1078f400500798006107980080ff200001002000d5
:1079040070079800010f9800110037006e0890006e
:10791400fe08900000004000818048001007980095
:10792400210798000040eb00004f7800f0ff2f0083
:1079340001002000500798006107980080ff2f0085
:107944000100200070079800010f9800000000005b
:107954005e089000c04090008180fb005041900080
:107964000281fb004811dd00828070000104780070
:10797400e04090008180fb00704090000080fb009c
:107984004800dd0000807000800478005e099000eb
:10799400825990008381fb00125a90000482fb00fc
:1079a4004822dd008481710003007800a259900010
:1079b4008381fb00325990000281fb004811dd00f5
:1079c40002817100820078000001be001e00900058
:1079d400ae00900058ec0700080040008980480081
:1079e400100f9800210f98005e09900082599000b2
:1079f4008381fb00125a90000482fb004822dd00c0
:107a04008481710003007800a25990008381fb00f7
:107a1400325990000281fb004811dd00028171009f
:107a24008200780061005000e08058001e01900040
:107a3400ae01900002027800030178008001780012
:107a44000100780003026200000061008000eb0086
:107a5400c000dd00000020000001be006120b8006d
:107a640000017100818171001207980023079800ba
:107a74005e089000c06090008180fb005060900020
:107a84000080fb004800dd000080700020019000b1
:107a9400b00190001e089000ae089000800f5100c5
:107aa400818f5900e9003a005e08900060689000f8
:107ab400e34f50000c003a009e0090005e089000d6
:107ac400206190000281fb00306090000080fb0088
:107ad4004800dd00000071005d10070030079800c9
:107ae40041079800b60137005e0890006068900076
:107af400e24f50000d003a009e0090005e08900096
:107b0400206190000281fb00306090000080fb0047
:107b14004800dd0000007100341007008000eb0015
:107b24003007980041079800a50137005e089000cf
:107b340060689000e14f5000a1013a005e08900097
:107b4400a06090008180fb00306090000080fb000a
:107b54004800dd0000807000800078001e00900066
:107b640000804000104078000080fb008000eb00a3
:107b740030079800410798001e4078000004e00098
:107b8400080032003e009000ce0090004c09dd0059
:107b94004400de0000007100c408de0030079800d5
:107ba400410798001e009000ae0090006102400062
:107bb400e08248005e099000825990008381fb00b6
:107bc400125b90000683fb004833dd008681710060
:107bd40003007800a25990008381fb003259900081
:107be4000281fb004811dd000281710082007800ef
:107bf40061005000e080580004037800050178001b
:107c04008001780001007800030263000000610035
:107c14008000eb00c000dd00000020000001be0079
:107c24006120b80000017100818171001207980081
:107c3400230798001e009000ae009000e00f500053
:107c4400e08f580046003a00110020005e089000c2
:107c540080fd07000004a2000004e00003003200dd
:107c64005e009000ee009000620137005e08900014
:107c7400e06090008180fb00706090000080fb0059
:107c84004800dd0000807000c00290005e08900093
:107c9400a06090008180fb00306090000080fb00b9
:107ca4004800dd0000807000000278001e0890008b
:107cb400ae08900061014000e08148005e08900039
:107cc400806890008180fb00106890000080fb00b9
:107cd4004800dd0000807000840078000500010089
:107ce4000004a2000004e0000f0032005e089000cf
:107cf400c06090008180fb00506090000080fb0019
:107d04004800dd0000807000000178000080eb0076
:107d14008080eb0020019800310198005e00900003
:107d2400ee009000330137005e089000c0609000c0
:107d34008180fb00506090000080fb004800dd0063
:107d440000807000000178001e089000ae089000ca
:107d540061004000e0804800200198003101980053
:107d64005e089000a06090008180fb00306090006d
:107d74000080fb004800dd00008070008000780077
:107d84001e00900000804000104078000080fb003e
:107d94008000eb00300f9800410f98001e407800df
:107da4000004e0000d0032003e099000ce0990006e
:107db4004418dd00cc10de00810070004410dd00aa
:107dc4003e019000ce0190000200400083804800f4
:107dd4003007980041079800f90037003e099000e9
:107de400ce099000f000200001002000020278007b
:107df400030178008001780001007800030262002a
:107e0400000061008000eb00c000dd0000002000e5
:107e14000001be006120b800000171008181710081
:107e24004818dd00c810de00810070004810dd0035
:107e34003e019000ce019000020040008380480083
:107e44003007980041079800dd003700110020003a
:107e54005e089000fffc07000004a2000004e0009c
:107e6400030032005e009000ee009000e100370055
:107e74005e089000e06090008180fb0070609000dc
:107e84000080fb004800dd0000807000400290008c
:107e94005e089000a06090008180fb00306090003c
:107ea4000080fb004800dd00008070008000780046
:107eb4005e089000006990000281fb001068900049
:107ec4000080fb004800dd00000071001e099000e6
:107ed400ae099000040001000004a2000004e000c8
:107ee4000f0032005e089000c06090008180fb00ab
:107ef400506090000080fb004800dd0000807000ae
:107f0400000178000080eb008080eb0020019800e5
:107f1400310198005e009000ee009000b50037003b
:107f24005e089000c06090008180fb00506090006b
:107f34000080fb004800dd00008070001e099000f6
:107f4400ae09900022009800330098005e0890006b
:107f540060689000e34f50000c003a009e009000cf
:107f64005e089000206190000281fb003060900068
:107f74000080fb004800dd0000007100340f0700a2
:107f840030079800410798008d0037005e08900084
:107f940060689000e24f50000d003a009e0090008f
:107fa4005e089000206190000281fb003060900028
:107fb4000080fb004800dd00000071000b0f07008b
:107fc4008000eb0030079800410798007c003700e0
:107fd4005e08900060689000e14f500078003a001d
:107fe4005e089000a06090008180fb0030609000eb
:107ff4000080fb004800dd000080700080007800f5
:108004001e00900000804000104078000080fb00bb
:108014008000eb0030079800410798001e4078006c
:108024000004e000080032003e009000ce00900002
:10803400cc09dd004400de0000807100c408de00cd
:1080440030079800410798001e009000ae00900091
:1080540061024000e08248005e099000825990006d
:108064008381fb00125b90000683fb004833dd0034
:108074008681710003007800a25990008381fb007f
:10808400325990000281fb004811dd000281710029
:108094008200780061005000e080580004037800fa
:1080a4000501780080017800010078000302630074
:1080b400000061008000eb00c000dd000000200033
:1080c4000001be006120b8000001710081817100cf
:1080d40012079800230798005e089000a0609000a3
:1080e4008180fb00306090000080fb004800dd00d0
:1080f40000807000800078001e0090000080400026
:10810400104078000080fb008000eb00300f9800e6
:10811400410f98001e4078000004e0000d0032007a
:108124003e099000ce0990004418dd00cc10de001a
:10813400810070004410dd003e019000ce019000eb
:1081440002004000838048003007980041079800ef
:108154001b0037003e099000ce099000f00020007b
:1081640001002000020278000301780080017800f9
:108174000100780003026200000061008000eb004f
:10818400c000dd00000020000001be006120b80036
:1081940000017100818171004818dd00c810de0003
:1081a400810070004810dd003e019000ce01900077
:1081b400020040008380480030079800410798007f
:1081c4003e019000ce0190007e0090008e08900049
:1081d400800f5100818f5900040039007e01900006
:1081e4008e09900032079800430798003e009000e3
:1081f400ce0090004f04be000080fa00000006008c
:108204001c00fa00300f9800410f9800225f98007c
:108214003e08900040089000200798004e08900007
:108224009000780011079800100020004007980083
:108234003e08900040089000700798003e089000a7
:108244001000be0050079800610798003e08900097
:108254001000be00000f9800110f98000e08900047
:108264009e089000e00f5000e08f580011003a0083
:108274002e019000c24990008381fb00524a900075
:108284000482fb004822dd00848171000300780031
:10829400e24990008381fb00724990000281fb0057
:1082a4004811dd000281710082007800000f9800ff
:1082b400110f98000000eb00200f9800f401470014
:1082c40070014700e80047006a0047001e02900062
:1082d400a1fa0700000f78001e0078000000e000fb
:1082e40006003a004e009000804078002e00900076
:1082f400017098004e0090007d0037001e00780049
:1083040090407800614798001e0078001040780083
:10831400fb4f4000040032001e007800104078003b
:108324000004e00005003a002e009000c1c0b30034
:1083340001709800c00020006d0037001e00780016
:1083440051ceb300014878002e009000c060900028
:108354008180fb00506090000080fb004800dd003d
:108364000080700080007800410090000000a000b0
:10837400c00098001e00780030489000ef4f500075
:1083840006003a006e4090008080fb00000420004c
:10839400008060000000e00011003a001e00900020
:1083a4000000e0000e0032001e0090000000e90012
:1083b40010079800f401470070014700e8004700e7
:1083c4006a0047001e02900063fa0700000f78005d
:1083d4001e00780030489000ef4f5000beff32007e
:1083e4004e0090000000e00022003a003e08900099
:1083f40040029000d00290002e019000c2499000eb
:108404008381fb00524b90000683fb004833dd0060
:108414008681710003007800e24990008381fb00ab
:10842400724990000281fb004811dd000281710055
:1084340082007800800f5200818f5a000d003200b4
:108444002e5890000004e0000a0032003e0890001c
:10845400d0009000400090002e01900026000700fc
:1084640000f0a7000000ea000000e9004f00de0071
:10847400400798003e089000400890008000eb0000
:1084840074fb07000004a2000004e00006003200b0
:108494003e0890004008900091c0b300017098001d
:1084a4000080eb00120037003e0890004008900066
:1084b4001100200067fb07000004a2000004e00094
:1084c400060032003e0890004008900091c0b300be
:1084d400017098000080eb00050037004e0090000a
:1084e400804078002e009000017098004e009000ab
:1084f4000080fa00000006001400fa0070079800db
:10850400010f9800120f98000000eb00400798003c
:108514001e089000606890000080fb00e10f50008e
:108524000a003200e30f500010003a00f0ff2f0061
:10853400f1ff2000008fbe0080ff2f00f1ff20001c
:10854400200798003107980010003700f0ff2f0033
:1085540001002000008fbe0080ff200001002000e9
:10856400200798003107980008003700f0ff2f001b
:1085740001002000008fbe0080ff2f0001002000ba
:108584002007980031079800000000007e0090004a
:108594008e089000e00f5000e08f58000700320072
:1085a4007e0190008e099000100020000100200040
:1085b400800f5100818f590038003a0010022000ca
:1085c40040079800380037007e0190008e09900023
:1085d4001e08900089fc0700500798006107980066
:1085e4005e009000ee009000be0f5000ae8f580069
:1085f40003003a00f00020004007980027003700ed
:108604005e009000ee009000e00f5000e08f5800f4
:10861400070032005e019000ee019000100020007f
:1086240001002000800f5100818f590003003a009f
:108634001002200040079800180037005e019000e7
:10864400ee0190002e009000be009000800f5100bb
:10865400818f590002003900f00020004007980083
:108664008040eb006022b8007e0190008e099000eb
:108674001e08900014000700be0f5000ae8f580073
:1086840002003a0090002000400798005e0190002c
:10869400ee01900072079800030f98004e009000be
:1086a4000000e000c8ff320011c0b3006022b8002f
:1086b4006011b8001e089000030007004e009000ef
:1086c4000080fa00000006001c00fa00889fbe002b
:1086d400000f9800120f9800230f9800340f980091
:1086e400450f9800215f98000e089000c06090002c
:1086f4008180fb00506090000080fb004800dd009a
:1087040000807000500798000e0890006068900088
:10871400e34f50000b0032000e0890006068900098
:10872400e24f5000070032000e089000606890008d
:10873400e14f500003003200f0ff2f00f1ff200052
:108744003d0237000e089000606890000080fb0036
:10875400e30f500005003a00f0ff2f00f1ff200066
:10876400300798004107980005003700f0ff2f00fc
:108774000100200030079800410798000000000025
:108784002e5890000004e000050032001100200083
:108794000e089000affa07006000b8002602370008
:1087a4000e089000606890000080fb00e10f50000c
:1087b4000d003200e30f500025003a001e0990001e
:1087c400ae0990004218dd00ce10de00810070007a
:1087d4004210dd0010079800210798000040eb00cc
:1087e400004f7800230037002e0890006300b90082
:1087f400000178001e0890006000b90000007800b5
:10880400000141009e089000300020000008b800dc
:1088140001014100820078001007980021079800a8
:1088240010079800210798001e009000004078006f
:10883400614f60001e009000ae0090008100d100e6
:108844000080d30010079800210798000900370022
:108854001e089000ae08900000004000818048008f
:1088640010079800210798000040eb00004f7800a3
:10887400000000000e089000c04090008180fb00c2
:10888400504190000281fb004811dd00828070009d
:1088940001047800e04090008180fb00704090006b
:1088a4000080fb004800dd00008070008004780038
:1088b4000e099000825990008381fb00125a9000a7
:1088c4000482fb004822dd008481710003007800eb
:1088d400a25990008381fb00325990000281fb0071
:1088e4004811dd0002817100820078000001be00a1
:1088f4001e009000ae0090008fe8070008004000c2
:108904008980480060079800710798000e0990005c
:10891400825990008381fb00125a90000482fb006c
:108924004822dd008481710003007800a259900080
:108934008381fb00325990000281fb004811dd0065
:10894400028171008200780061005000e0805800cc
:108954001e019000ae01900002027800030178002d
:1089640080017800010078000302620000006100c9
:108974008000eb00c000dd00000020000001be000c
:108984006120b80000017100818171001207980014
:10899400230798000e089000c06090008180fb00bf
:1089a400506090000080fb004800dd0000807000f3
:1089b40020019000b00190006e009000fe00900035
:1089c400800f5100818f59003300320011002000c4
:1089d4000e0890001ffa07000004a2000004e00043
:1089e400030032003e009000ce0090009201370058
:1089f4000e089000e06090008180fb0070609000a1
:108a04000080fb004800dd00008070004002900000
:108a14000e089000a06090008180fb003060900000
:108a24000080fb004800dd000080700080007800ba
:108a34000e089000006990000281fb00106890000d
:108a44000080fb004800dd00000071006e01900012
:108a5400fe019000040001000004a2000004e000f4
:108a6400080032005e0190000080eb008080eb0083
:108a740020019800310198003e009000ce00900043
:108a84006d0137005e0090006e019000fe019000c1
:108a940022009800330098000e089000606890004f
:108aa400e34f500070003a000e089000a060900060
:108ab4008180fb00306090000080fb004800dd00f6
:108ac40000807000800078001e009000008040004c
:108ad400be08900081407800014878000e0890009c
:108ae400a06090008180fb00306090000080fb005b
:108af4004800dd0000807000800078001e009000b7
:108b04000000e800008240003e099000ce09900079
:108b140000f02f0001002000820278000301780099
:108b24008001780001007800838262000000610007
:108b34008000eb00c000dd00000020000001be004a
:108b44006128b8000001710081817100c81add003c
:108b54004810de0000807200c818de000040780073
:108b6400004a78000e089000a06090008180fb000d
:108b7400306090000080fb004800dd000080700041
:108b8400800078001e0090000080e8000082400011
:108b94003e099000ce09900000002000f10f200053
:108ba40082027800030178008001780001007800d7
:108bb40083826200000061008000eb00c000dd00e1
:108bc400000020000001be006128b800000171000f
:108bd400818171004018de0001002000004078000f
:108be400004a78000e089000a06090008180fb008d
:108bf400306090000080fb004800dd0000807000c1
:108c0400800078001e009000630040000082400055
:108c14003e099000ce0990000000200001f02000e1
:108c24008202780003017800800178000100780056
:108c340083826200000061008000eb00c000dd0060
:108c4400000020000001be006128b800000171008e
:108c5400818171004818de00010020000040780086
:108c6400004a7800ef0037000e089000606890001a
:108c7400e24f500030003a000e089000a0609000cf
:108c84008180fb00306090000080fb004800dd0024
:108c940000807000800078001e009000008040007a
:108ca400be08900081407800014878000e089000ca
:108cb400a06090008180fb00306090000080fb0089
:108cc4004800dd0000807000800078001e009000e5
:108cd4000000e800008240003e099000ce099000a8
:108ce40000f02f00010020008202780003017800c8
:108cf4008001780001007800838262000000610036
:108d04008000eb00c000dd00000020000001be0078
:108d14006128b8000001710081817100c81add006a
:108d24004810de0000807200c818de0000407800a1
:108d3400004a7800bb0037000e089000606890007d
:108d4400e14f5000b7003a000e089000a060900078
:108d54008180fb00306090000080fb004800dd0053
:108d640000807000800078001e00900000804000a9
:108d740090407800114798001e4078000004e000fd
:108d8400090032003e089000804078004000200036
:108d94008008dd001e4090006f40600000c070003d
:108da40010479800020037003e08900010479800d2
:108db4000e089000a06090008180fb00306090005d
:108dc4000080fb004800dd00008070008000780017
:108dd4001e009000008040001e4190000248780070
:108de4001e009000ae00900061024000e082480046
:108df4000e099000825990008381fb00125b900061
:108e04000683fb004833dd0086817100030078008f
:108e1400a25990008381fb00325990000281fb002b
:108e24004811dd0002817100820078006100500069
:108e3400e080580004037800050178008001780080
:108e44000100780003026300000061008000eb0071
:108e5400c000dd00000020000001be006120b80059
:108e640000017100818171001207980023079800a6
:108e74001e009000ae009000e00f5000e08f5800fc
:108e840038003a00110020000e089000f1f80700a5
:108e94000004a2000004e000030032003e00900041
:108ea400ce009000640037000e089000e06090004f
:108eb4008180fb00706090000080fb004800dd00b2
:108ec40000807000c00290000e089000a060900026
:108ed4008180fb00306090000080fb004800dd00d2
:108ee40000807000000278006e009000fe00900088
:108ef40061014000e08148000e0890008068900005
:108f04008180fb00106890000080fb004800dd00b9
:108f14000080700084007800050001000004a200b5
:108f24000004e000080032005e0190000080eb00c5
:108f34008080eb0020019800310198003e009000f1
:108f4400ce0090003c0037006e009000fe009000c0
:108f540061004000e08048005e019000200198001c
:108f6400310198000e089000a06090008180fb0001
:108f7400306090000080fb004800dd00008070003d
:108f8400800078001e00900000804000904178002e
:108f9400134798001e4078000004e00008003200e7
:108fa4003e089000ce089000cc0add004400de00ac
:108fb40000807200c408de00104798000d003700de
:108fc4003e089000ce0890004809dd004800de000d
:108fd40000007100c808de0000407800ef40600027
:108fe4001e41900000cfb3000040610000c070003b
:108ff400104798000e089000a06090008180fb004c
:10900400306090000080fb004800dd0000807000ac
:10901400800078001e009000008040009e41900077
:1090240003487800de009000410090000010a0008a
:10903400c00098006000b8004f04be000080fa0031
:10904400000006001a00fa00200f9800320f980062
:10905400430f98000000eb00400798002e08900092
:1090640040089000500798005e00900060689000ef
:109074000080fb00e10f50000a003200e30f5000b3
:1090840010003a0080ff2f00f1ff20002007980015
:1090940031079800f0ff2f00f1ff2000008fbe0081
:1090a4001000370080ff20000100200020079800f6
:1090b40031079800f0ff2f0001002000008fbe0050
:1090c4000800370080ff2f000100200020079800cf
:1090d40031079800f0ff2f0001002000008fbe0030
:1090e400000000002e08900060019000f001900044
:1090f40062079800730798006e019000fe019000cb
:109104005e009000bdf90700000f9800110f980051
:109114000e0890009e089000be0f5000ae8f5800bd
:1091240003003a0080002000400798002100370027
:109134005e019000c25190008381fb005252900066
:109144000482fb004822dd00848171000300780062
:10915400e25190008381fb00725190000281fb0078
:109164004811dd0002817100820078006201400034
:10917400e08148000e0890009e089000800f510086
:10918400818f590002003e00a00020004007980093
:109194000e0990009e0990002e009000be009000e1
:1091a400800f5100818f59000200390060022000b5
:1091b400400798002e0890000e0990009e09900028
:1091c40062009800730098003e089000ce0890005a
:1091d40061005000e0805800300f9800410f980063
:1091e4003e089000ce089000e00f5000e08f580039
:1091f400030032004e0090000000e000b9ff32008e
:109204004e0090000080fa00000006000400fa00fe
:10921400100798000000eb00000f78001e0090007b
:109224000c000700000f78009e00900011189000b9
:109234000010a100901898009e0090001118900052
:109244000000a100901898001e0078000080fa0029
:10925400000006001a00fa00881f7800400f9800ea
:109264000000eb00000f78000000eb00200f9800d6
:109274004e08900010189000610060000000e000ab
:10928400810032004e089000400890008000eb00fe
:10929400f0f707000004a2000004e000060032001a
:1092a4004e0890004008900091c0b30001709800ef
:1092b4000080eb00750037004e08900040089000d5
:1092c40011002000e3f707000004a2000004e000fe
:1092d400060032004e0890004008900091c0b30090
:1092e400017098000080eb00680037004e08900081
:1092f400f0009000600090004e0990004209900038
:10930400020278000001be00040078003bf9070067
:109314004e08900040089000700798004e08900096
:109324001000be0050079800610798004e08900096
:109334001000be00000f9800110f98004e08900016
:10934400700a9000f401470070014700f6004700de
:109354006a00470080f60700100798001e0090007e
:109364000000e00006003a004e089000400890001b
:10937400d1c1b300017098000080eb0043003700b6
:10938400204580000000e0000300320021458000f9
:109394006400470001000100be0090001e00900020
:1093a40031089800ae0090001e009000410898001b
:1093b4004e08900090089000000890001e01900054
:1093c40060099800710998004e0890000010900000
:1093d400804078001e009000314898004e089000ac
:1093e40040089000c06090008180fb0050609000b5
:1093f4000080fb004800dd000080700080007800e1
:10940400410090000000a000c00098004e089000a9
:10941400400890008000eb008ef707000004e00095
:10942400130032004e0890004008900000047800b9
:109434004e0890004008900054f707000040780060
:10944400007498004e08900040089000007090004e
:109454000004e00003003a000000eb00000f780075
:10946400090037000080eb00000f78000600370089
:109474004e0890004008900091c0b300017098001d
:109484000080eb00000f78001e0078004f04780085
:109494000080fa00000006000200fa00000f7800c5
:1094a4001e007800400890008040eb000170980096
:1094b4001e007800b0089000200890000080fa0098
:1094c400000006001800fa00000f9800120f980020
:1094d400230f9800310f98001e099000ae099000e8
:1094e40012079800230798000e0890004008900087
:1094f400300798003e089000e10f5000030032004e
:10950400e20f50000b003200140037000e089000e8
:1095140020099000b00990001e009000ae00900059
:10952400020040008380480010079800210798003b
:109534000a0037000e08900000099000900990007e
:109544001e009000ae009000000051008180590080
:109554001007980021079800000000000e089000f2
:10956400400890008000eb003af707000004a200d6
:109574000004e000050032003e00900091c0b300fa
:10958400017098000080eb002f0137000e08900056
:10959400d0009000400090000e09900060019800f7
:1095a400710198001e019000ae0190000e08900019
:1095b4009008900000089000800f5100818f59009e
:1095c400050036003e00900011c2b30001709800ff
:1095d4000080eb001c0137001e009000ae009000dc
:1095e4000e09900020099800310998001e0290008d
:1095f400ae0290003e019000825990008381fb00ee
:10960400125b90000683fb004833dd008681710005
:1096140003007800a25990008381fb003259900026
:109624000281fb004811dd00028171008200780094
:109634000001be000400be003fe50700400798009b
:10964400510798001e029000ae0290003e01900067
:10965400825990008381fb00125b90000683fb001b
:109664004833dd008681710003007800a259900020
:109674008381fb00325990000281fb004811dd0018
:1096840002817100820078004e0190000191b900be
:1096940002017800de019000009bb9008601780089
:1096a40003014100ce0190000018b80001014100ff
:1096b400820078000000520081805a001007980050
:1096c400210798009e0090000e0890006108980001
:1096d4003e009000506890000080fb008000eb008a
:1096e4000001be004e009000de00900012e507006d
:1096f40060079800710798003e0090005068900041
:109704000080fb008000eb006e0190000191b90025
:1097140002017800fe019000009ab90084017800eb
:1097240003014100ee0190000018b800010141005e
:10973400820078004e019000de019000000051008c
:10974400818059004007980051079800ce0090008e
:109754000e089000510898006e009000fe009000e2
:10976400e00f5000e08f5800720032006e0190004c
:10977400fe0190000e08900032fe0700004f7800b2
:109784001e4078000004e0006a00320060c2b300aa
:109794009e40780080cf500061003a000e0890008f
:1097a40010189000610060000000e0002200320008
:1097b4000e089000d0009000400090000e09900028
:1097c40060019800710198006e019000fe01900004
:1097d4001000200001002000800f5100818f5900eb
:1097e400080032006e009000fe00900061005000fe
:1097f400e08058000001be000e08900011fe070032
:10980400004f78000e0890006c0040000041eb000f
:10981400800078003e00900004f407000000e0009f
:10982400440032003e00900001c1b3000170980072
:109834000080eb00840037000e089000d0009000f8
:10984400400090000e09900060019800710198009a
:109854006e019000fe019000100020000100200025
:10986400800f5100818f5900090032006e00900072
:10987400fe00900061005000e08058000001be002e
:109884000e089000effd0700004f7800020037003b
:109894000040eb00004f78001e4078000004e00018
:1098a400050032003e00900001c1b3000170980031
:1098b4000080eb00640037003e0190008259900064
:1098c4008381fb00125a90000482fb004822dd00d1
:1098d4008481710003007800a25990008381fb0009
:1098e400325990000281fb004811dd0002817100b1
:1098f40082007800800078000e08900061089800cb
:109904003e009000506890000080fb000000e900d9
:10991400800078000e089000510898000500370078
:109924003e00900001c1b300017098000080eb007c
:10993400450037000e089000f00090006000900091
:109944000001be003e0090003cf70700600798004d
:10995400710798000e089000500890008000eb00fa
:1099640040079800510798006e019000fe01900096
:109974004e009000de00900002004000838048000a
:1099840060079800710798003e009000e060900026
:109994008180fb00706090000080fb004800dd00c7
:1099a40000807000400290003e00900080609000b3
:1099b4008180fb00106090000080fb004800dd0007
:1099c40000807000800078003e00900000699000e4
:1099d4000281fb00106890000080fb004800dd005d
:1099e400000071006e019000fe019000040001006f
:1099f4000004a2000004e000050032003e009000d4
:109a0400d1c1b300017098000080eb000e00370054
:109a14003e009000c06090008180fb005060900088
:109a24000080fb004800dd00008070006e019000a3
:109a3400fe0190000288be003e0090008040eb00d2
:109a4400017098000000eb000080fa00000006009e
:109a54001c00fa00200f9800310f9800420f980064
:109a6400530f9800ae089000110798005e0890000c
:109a740040089000400798000000eb002007980081
:109a8400be0890004e0890000088b90000007800dd
:109a9400300798005e089000101890006100600084
:109aa4000000e00005003a004e009000f1c1b30050
:109ab400017098000000eb001c0137003e0090008c
:109ac4000000e00005003a004e0090008040eb00ea
:109ad400017098000000eb00140137004e00900064
:109ae400e06090008180fb00706090000080fb00cb
:109af4004800dd0000807000e00090004e009000ff
:109b0400006990000281fb00106890000080fb0057
:109b14004800dd0000007100010001000004e000c5
:109b2400ea0032004e009000a1c1b3000170980019
:109b34000000eb00fd0037005e0890006008900014
:109b44006102b8004e019000825990008381fb00ad
:109b5400125b90000683fb004833dd0086817100b0
:109b640003007800a25990008381fb0032599000d1
:109b74000281fb004811dd0002817100820078003f
:109b8400800f5200818f5a0035003a005e08900021
:109b94008000eb00610898005e0890005008900077
:109ba4008000e8005e089000510898005e0890006c
:109bb400d00890004e009000506890000080fb0098
:109bc400808f500026003a005e08900060019000eb
:109bd400f001900052079800630798005e08900017
:109be4008000eb00510898001200200003002000c0
:109bf4005e08900013fd0700000f7800600220004b
:109c04009e007800808f50000c003a005e0890009f
:109c14005e019000ee0190006200980073009800cd
:109c24005e0890006c0040000041eb00800078006a
:109c34004e009000fdf20700000f78001e0078002f
:109c44000000e000060032001e007800804078002a
:109c54004e009000017098002e009000b300370071
:109c64005e089000f0009000600090000001be00cb
:109c74004e00900071f6070070079800010f9800dd
:109c84005e089000500890008000eb007e01900078
:109c94008e099000020040008380480070079800fd
:109ca400010f98004e009000c06090008180fb007e
:109cb400506090000080fb004800dd0000807000d0
:109cc4001001be007e0090008e089000800f5100ad
:109cd400818f5900370032008000eb004e00900065
:109ce4005cf507000004a2000004e0000500320057
:109cf4004e00900091c0b3000170980090002000c5
:109d04008a0037004e009000e06090008180fb00e4
:109d1400706090000080fb004800dd00008070004f
:109d2400400290004e009000806090008180fb0013
:109d3400106090000080fb004800dd00008070008f
:109d4400800078004e009000006990000281fb00c2
:109d5400106890000080fb004800dd0000007100e6
:109d64007e0190008e099000040001000004a2000e
:109d74000004e000050032004e00900081c0b300f2
:109d8400017098002e009000680037004e0090008b
:109d9400c06090008180fb00506090000080fb0058
:109da4004800dd00008070007e0190008e09900064
:109db4000288be004e019000825990008381fb000e
:109dc400125a90000482fb004822dd008481710055
:109dd40003007800a25990008381fb00325990005f
:109de4000281fb004811dd000281710082007800cd
:109df4005e099000620990008001eb0002005000af
:109e0400838058003e0190008001eb00820f5000d7
:109e1400838f5800010036000200be00100f980026
:109e24004e009000806090008180fb0010609000e4
:109e34000080fb004800dd00008070008000780096
:109e44005e08900060089000008040001e099000a9
:109e54009e00900061e307004e009000c0609000f7
:109e64008180fb00506090000080fb004800dd0012
:109e74000080700080007800410090000000a00085
:109e8400c00098009e0090001e08900000804000d2
:109e9400100798005e089000e00890001e089000eb
:109ea400808040005e08900061089800ae00900039
:109eb4001e0890000080400020079800be0090001b
:109ec4001e08900000805000300798003e0090006b
:109ed4000000e00018ff3a005e08900000099000be
:109ee400900990002e0090008000eb0002004000da
:109ef400838048005e0990000009980011099800c9
:109f04005e08900020099000b00990002e00900097
:109f14008000eb0002004000838048005e0990004e
:109f240020099800310998002e0090000080fa0062
:109f3400000006001800fa00000f9800110f9800a6
:109f4400220f9800330f98008e089000010f7800bc
:109f54003e08900040089000400798000000eb0085
:109f6400100798009e0890002e0890000088b90001
:109f740000007800300798003e0890001018900008
:109f8400620060000000e00005003a004e0090000e
:109f940001c2b300017098000000eb00f300370029
:109fa4003e0090000000e000ec003a004e009000fb
:109fb4008040eb00017098000000eb00eb003700dc
:109fc4003e089000600890006102b8004e019000c5
:109fd400825990008381fb00125b90000683fb0092
:109fe4004833dd008681710003007800a259900097
:109ff4008381fb00325990000281fb004811dd008f
:10a004000281710082007800800f5200818f5a0013
:10a0140020003a003e0890008000eb0061089800a0
:10a024003e089000500890008000e8003e08900030
:10a03400510898003e089000d00890004e0090000f
:10a04400506890000080fb00808f500011003a009f
:10a054003e0890008000eb00510898001200200098
:10a06400030020003e089000f6fb0700500798000c
:10a074005e0090000000e000060032005e009000e8
:10a08400804078004e009000017098001e009000ff
:10a09400b60037003e089000f00090006000900089
:10a0a4000001be004e00900064f5070060079800b0
:10a0b400710798003e089000500890008000eb0063
:10a0c4006e019000fe019000020040008380480071
:10a0d40060079800710798004e009000c0609000df
:10a0e4008180fb00506090000080fb004800dd0090
:10a0f400008070001001be006e009000fe00900011
:10a10400800f5100818f5900370032008000eb002e
:10a114004e0090004ff407000004a2000004e00089
:10a12400050032004e00900091c0b3000170980009
:10a13400900020008d0037004e009000e0609000f9
:10a144008180fb00706090000080fb004800dd000f
:10a1540000807000400290004e00900080609000eb
:10a164008180fb00106090000080fb004800dd004f
:10a1740000807000800078004e009000006990001c
:10a184000281fb00106890000080fb004800dd00a5
:10a19400000071006e019000fe01900004000100b7
:10a1a4000004a2000004e000050032004e0090000c
:10a1b40081c0b300017098001e0090006b0037004e
:10a1c4004e009000c06090008180fb0050609000c1
:10a1d4000080fb004800dd00008070006e019000ec
:10a1e400fe0190000288be004e019000825990004a
:10a1f4008381fb00125a90000482fb004822dd0098
:10a204008481710003007800a25990008381fb00cf
:10a21400325990000281fb004811dd000281710077
:10a22400820078003e099000620990008001eb00f2
:10a2340002005000838058003e0190008001eb0032
:10a24400820f5000838f5800010036000200be00c8
:10a25400200798003e0890000009900090099000a3
:10a264003e089000b00890002008900000015100c2
:10a27400818159002e0090008000eb00800f510076
:10a28400818f59000c0031003e0890009008900026
:10a2940000089000000178003e089000b00890008b
:10a2a400200890000000780000005100200798006a
:10a2b400ae019000330798004e009000806090003b
:10a2c4008180fb00106090000080fb004800dd00ee
:10a2d40000807000800078003e08900060089000c4
:10a2e400008040002e019000800078001e0078005d
:10a2f4003ae207002e0090001e0f40003e08900036
:10a30400e00890002e009000808040003e089000fd
:10a31400610898003e08900020099000b009900060
:10a324002e0090008000eb00020040008380480073
:10a334003e09900020099800310998009e00900081
:10a344002e0090000080400010079800be0090008e
:10a354002e00900000805000300798003e009000ce
:10a364000000e00016ff3a001e0090000080fa0092
:10a37400000006000200fa00000f78001e007800ba
:10a3840020099000b00990001e0078009008900009
:10a39400000890000000690081806900008070005e
:10a3a40000f0a7000000ea000000e9004f00de0012
:10a3b400004078000080fa00000006004c00fa001b
:10a3c4005027980068004700100798000000eb0031
:10a3d40040279800e00320000e0040000041eb00fd
:10a3e400de209000ceeb0700200798002e0090009e
:10a3f4000000e00005003a00f023810011c2b30020
:10a40400017098000080eb00670037007e18900010
:10a414008e20900020279800312798001e2090005d
:10a42400e06090008180fb00706090000080fb0081
:10a434004800dd0000807000e00090001e209000c5
:10a44400006990000281fb00106890000080fb000e
:10a454004800dd0000007100010001000004e0007c
:10a46400050032001e209000a1c1b30001709800c5
:10a474000080eb004c0037008040eb002e00900081
:10a4840068e90700604798006e4090000004e0000f
:10a49400030032006e409000e34f500005003a0084
:10a4a4001e20900031c1b300017098000080eb00c1
:10a4b4003d0037006e409000e14f50001b003a0011
:10a4c4007e1890008e209000202798003127980055
:10a4d4000000eb00402798009e0090002e009000a2
:10a4e4000fea07001e0090007002b00080007800a0
:10a4f400830420008e814100420420000e014100ab
:10a50400e00320000e004000270020000003eb00c1
:10a514008002eb00030278008201780001017800d8
:10a524009e0090001fee0700000f78001e007800c8
:10a534000000e00012003a001e0090007008900035
:10a54400601f98001e0090000010900070006000d2
:10a554000000e0000300320040012000000f7800fa
:10a5640007003700c00320000e00400012c0b300f3
:10a57400800078001e00900021f70700000f78008b
:10a584001e0078000000e000060032001e2090004b
:10a594009e00780081407800017098000080eb00f4
:10a5a400010037000000eb000080fa000000060004
:10a5b4005000fa0060279800712798006a0f47003e
:10a5c4000000eb0050279800000420000e0040001b
:10a5d4000041eb00ee20900051eb070010079800bb
:10a5e4001e0090000000e00005003a00f023810006
:10a5f40011c2b300017098000080eb00b80037006e
:10a604000e2090009e20900030279800412798004b
:10a614002e209000e06090008180fb00706090002c
:10a624000080fb004800dd0000807000e000900026
:10a634002e209000006990000281fb0010689000b9
:10a644000080fb004800dd000000710001000100f3
:10a654000004e000050032002e209000a1c1b300e8
:10a66400017098000080eb009d0037008040eb00f3
:10a674007e209000ebe80700404798004e40900091
:10a684000004e000030032004e409000e34f50000d
:10a6940005003a002e20900031c1b30001709800eb
:10a6a4000080eb008e0037004e409000e14f5000d8
:10a6b4001b003a000e2090009e2090003027980046
:10a6c400412798000000eb00502798009e00780076
:10a6d4007e20900092e90700710220001e80400055
:10a6e40080007800a30420008e81410062042000d1
:10a6f4000e014100000420000e004000270020004d
:10a704000003eb008002eb00030278008201780072
:10a71400010178009e007800a2ed0700701f9800e8
:10a724007e1890000000e00005003a002e20900002
:10a7340021c1b300017098000080eb00680037006d
:10a744008040eb001e009000b6e8070040479800e8
:10a754000000eb00502798000e2090009e209000ef
:10a7640030279800412798004e4090000004e000f4
:10a77400030032004e409000e34f500005003a00c1
:10a784002e20900031c1b300017098000080eb00ce
:10a79400530037004e409000e14f50001b003a0038
:10a7a4000e2090009e2090003027980041279800aa
:10a7b4000000eb00502798009e0078001e009000d7
:10a7c40057e90700720220001e0041008000780053
:10a7d400a30420008e814100620420000e01410088
:10a7e400000420000e004000270020000003eb00be
:10a7f4008002eb00030278008201780001017800f6
:10a804009e00780067ed0700701f98007e18900086
:10a814000000e000050032002e209000c1c0b3000b
:10a82400017098000080eb002d0037001e007800b6
:10a83400f008900031079800a30420008e814100a5
:10a84400620420000e014100e10320008e804000dc
:10a85400000420000e0040003e0290003ef107007c
:10a86400400798009e0078007e2090002ce90700a5
:10a87400720220009e0041004e009000b2002000b1
:10a88400d6e007002e209000c06090008180fb007d
:10a89400506090000080fb004800dd0000807000e4
:10a8a40080007800410090000000a000c0009800e3
:10a8b4002e2090008000eb0066f207000004a20046
:10a8c4000004e000050032002e20900091c0b30087
:10a8d400017098000080eb00010037000000eb00dd
:10a8e4000080fa00000006000400fa0020479800e7
:10a8f4002e4090003de20700000f78001e00780013
:10a904000000e00002003a00b0002000030037001d
:10a914001e007800007090000080fb000080fa00a8
:10a92400000006000400fa00204798002e40900022
:10a934002ee20700000f78001e0078000000e000ff
:10a94400030032001e0078008040eb000170980084
:10a954000080fa00000006000400fa0010079800c6
:10a964009e01900012002000110020000e007800cb
:10a9740070fd0700e10f5000020032000080eb0080
:10a98400020037001e4078000000fb000080fa003f
:10a99400000006000400fa00004f78001107980038
:10a9a4009e01900012002000110020000e0078008b
:10a9b40027fc0700e10f5000020032000080eb008a
:10a9c400010037000000eb000080fa0000000600e0
:10a9d4000c00fa0050079800640047000041eb00a7
:10a9e400de0090004eea0700000f78001e00780099
:10a9f4000000e00002003a000080eb001400370081
:10aa04001e00780083e00700100798001e009000e5
:10aa14000000e00007003200640047009e00780058
:10aa2400eaea07000000e000020032000080eb00c8
:10aa3400070037004e009000f02389002e0090009c
:10aa4400be009000d0238900e12389000000eb00c0
:10aa54000080fa00000006000c00fa00500798007d
:10aa64006400470012c0b300de0090002cea070027
:10aa7400000f78001e0078000000e00002003a0099
:10aa84000080eb001a0037001e00780061e0070028
:10aa9400100798001e0090000000e0001300320030
:10aaa400640047009e007800c8ea07000000e00048
:10aab4000e003200640047009e00780028eb070077
:10aac4000000e000020032000080eb0008003700c4
:10aad400640047009e007800bcea07000000e00024
:10aae400020032000080eb00010037000000eb00a0
:10aaf4000080fa00000006001e00fa00600f9800b3
:10ab04000000eb00500f980020002000000f780098
:10ab14006a0047000041eb00ee08900000ea0700dd
:10ab240010079800ea004700700047006200200008
:10ab34002ae007001e0090000000e00002003a0036
:10ab44000080eb00580037007e009000e060900029
:10ab54008180fb00706090000080fb004800dd00f5
:10ab640000807000e00090007e009000006990007a
:10ab74000281fb00106890000080fb004800dd00ab
:10ab840000007100010001000004e0000200320036
:10ab94000080eb00440037001e0090001de0070019
:10aba400200798002e0090000000e000070032000b
:10abb400700047009e00900084ea07000000e00057
:10abc400020032000080eb00370037000e0a9000cc
:10abd4009e0a90002e099000c24990008381fb00d8
:10abe400524b90000683fb004833dd0086817100e0
:10abf40003007800e24990008381fb0072499000d1
:10ac04000281fb004811dd0002817100820078009e
:10ac1400800f5200818f5a0002003a000080eb003e
:10ac2400210037000e0890009e089000300f980015
:10ac3400410f9800fa01470076014700e8004700f9
:10ac4400700047001e02780043f0070030079800a8
:10ac54003e0090000000e00002003a000080eb009b
:10ac6400110037003e009000104078000004e0001e
:10ac7400060032003e00900010407800fb4f400078
:10ac8400020032000080eb00070037003e00900015
:10ac9400104078000004e000e6ff3a006a00470034
:10aca4009e009000020007000080fa0000000600e9
:10acb4004200fa00701f9800012798007e18900047
:10acc4001000be00401f9800511f98000000eb00c8
:10acd400601f98008040eb000e20900051e70700b1
:10ace400204798002e4090000004e000030032004a
:10acf4002e409000e34f500006003a007e1890006a
:10ad04002000900031c1b300017098000080eb0076
:10ad1400380037002e409000e14f50001c003a00ec
:10ad24007e1890001000be00401f9800511f98002c
:10ad34000000eb00601f980064004700800078006a
:10ad44000e209000f6e7070064004700710220001f
:10ad540080804000c30320008e81410082032000d4
:10ad64000e0141006400470027002000f603200084
:10ad74008002eb0003027800820178000101780070
:10ad8400800078007e18900006ec0700000f780021
:10ad94001e0078000000e000020032000080eb009a
:10ada400140037002e109000700060000000e000d6
:10adb40006003a007e1890002000900051c1b300b4
:10adc400017098000080eb000a003700640047001f
:10add400fe0040006400470012c0b30008f50700fd
:10ade4000000e00002003a000000eb000100370020
:10adf4000080eb000080fa00000006002e00fa003c
:10ae04005017980061179800f1238100710798008a
:10ae1400d2238100e3238100028fbe000000eb00f7
:10ae2400300798000000eb00400798000040eb005a
:10ae3400304f98000000eb006007980020022000cb
:10ae44000e00400062002000a147220063df0700db
:10ae54007e0090008040eb00017098005e1090002e
:10ae64000000e000030032006e1090000000e000db
:10ae740002003a000000eb009f0137006e109000c2
:10ae84000000e900de10900000804000000f9800f0
:10ae9400e1003700200220000e004000617e2900fe
:10aea400cae90700e10f400005003a007e00900067
:10aeb400d1c0b300017098000000eb008e01370090
:10aec4001e109000ae109000600f9800710f980053
:10aed4000000eb00001798006e089000fe08900038
:10aee400e00f5000e08f580014003a007e019000fb
:10aef400c24990008381fb00524a90000482fb0007
:10af04004822dd008481710003007800e24990004a
:10af14008381fb00724990000281fb004811dd002f
:10af24000281710082007800600f9800710f980010
:10af34000000eb00200798000200370020002000ea
:10af440020079800030220008e8141007c01470005
:10af5400810220008e804000200220000e0040006c
:10af64002e0290007cef0700100f98001e0890003e
:10af7400d9e80700200f9800310f98002e089000a0
:10af8400be089000be0f5000ae8f58000f00320074
:10af94002e0090000000e800200798001e08900092
:10afa4000000e000040032001e0890001040780009
:10afb4000004e000e3ff3a001e08900030489000cf
:10afc400ef4f5000dfff32000100370000000000a7
:10afd4002e089000be089000be0f5000ae8f58009f
:10afe400050032007e009000d1c0b30001709800cb
:10aff4000000eb00400137001e119000ae119000dc
:10b00400028fbe00a0c0b300204f98000300370099
:10b014002e4890000040e900204f98002e489000f0
:10b024000000fb009e089000e140780000c2b300dd
:10b0340080cf5000f6ff32002e489000e74f5000ba
:10b04400380034002e4890008000fb006e00900011
:10b054000080400067005000600798001600370029
:10b064004e009000de10900000804000ae4890003a
:10b074008100fb001e099000e2c0780001487800be
:10b084004e0090000000e800400798002e48900011
:10b094000040e900204f9800ce0090006e10900010
:10b0a400808f500004003a000000eb004007980035
:10b0b40010c0b300304f98002e489000e74f500066
:10b0c400e7ff3c006e0090000000e8006007980075
:10b0d4004e009000de10900000804000e1c2b300fa
:10b0e400014878004e0090000000e80040079800f6
:10b0f400ce0090006e109000808f50000b003a003c
:10b104000000eb004007980010c0b300304f9800d7
:10b11400070037002e4890000040e900204f9800b7
:10b1240003003700000000000100370000000000a9
:10b134002e4890000000fb009e089000e14078003b
:10b1440000c2b30080cf5000f2ff32002e489000be
:10b154008000fb006e009000008040000000e800ca
:10b1640060079800160037004e009000de10900033
:10b1740000804000ae4890008100fb001e09900052
:10b18400e2c07800014878004e0090000000e8001a
:10b19400400798002e4890000040e900204f980096
:10b1a400ce0090006e109000808f500004003a0092
:10b1b4000000eb004007980010c0b300304f980027
:10b1c4002e4890000004e000e7ff3d006e00900070
:10b1d4000000e800600798004e009000de10900028
:10b1e40000804000f1c2b300014878004e00900096
:10b1f4000000e80040079800ce0090006e10900018
:10b20400808f500004003a000000eb0040079800d3
:10b2140010c0b300304f98001e00be00e00f500075
:10b22400e08f5800120032007e019000c249900065
:10b234008381fb00524a90000482fb004822dd0017
:10b244008481710003007800e24990008381fb004f
:10b25400724990000281fb004811dd0002817100f7
:10b2640082007800be0f5000ae8f580009ff3a00ec
:10b274006e0090000080e800600798004e00900087
:10b28400de10900000804000a1c3b30001487800a4
:10b294004e0090000000e80040079800ce009000a7
:10b2a4006e109000808f500004003a000000eb0004
:10b2b4004007980010c0b300304f98004e00900033
:10b2c400de10900000804000fe009000917090001d
:10b2d400014878004e0090000000e8004007980004
:10b2e400ce0090006e109000808f500004003a0051
:10b2f4000000eb004007980010c0b300304f9800e6
:10b304004e0090000000e00003003a00ee119000af
:10b3140043079800030037004e0090000000e90046
:10b32400400798000000eb00300798003e4890006a
:10b334000004e00049003200ce009000410f980064
:10b34400180037003e009000de109000008040009e
:10b3540010417800225f98003e009000de109000bb
:10b3640000804000ce0090005e11900081004100fa
:10b3740091407800014878004e009000de10900063
:10b3840000804000ae599000034878004e009000c1
:10b394000000e900400798003e0090000000e8002b
:10b3a40030079800ce0090003e00900000805000ce
:10b3b4000000e000e3ff3c004e0890000000e800bd
:10b3c400300798008e0890005e10900000805000b6
:10b3d40040079800180037003e009000de109000ef
:10b3e4000080400090407800215f98003e0090006b
:10b3f400de10900000804000ce0090005e119000ae
:10b404008100410091407800014878004e0090008e
:10b41400de109000008040002e5990000248780011
:10b424004e0090000000e900400798003e009000a4
:10b434000000e80030079800ce0090003e00900025
:10b44400008050000000e000e3ff3c000e08900084
:10b454008040eb000148780026003700ce019000c0
:10b46400430f9800180037003e009000de10900053
:10b474000080400090407800215f98003e009000da
:10b48400de10900000804000ce0090005e1190001d
:10b494008100410091407800014878004e009000fe
:10b4a400de109000008040002e5990000248780081
:10b4b4004e0090000000e900400798003e00900014
:10b4c4000000e80030079800ce0090003e00900095
:10b4d400008050000000e000e3ff3c004e089000b4
:10b4e4000000e800de109000008040008040eb0087
:10b4f400014878006e0090000080fa000000060009
:10b504004800fa0000279800112798002227980085
:10b5140063c798006ec090000004e0002800320069
:10b52400660047000041eb008e2090007ce7070096
:10b53400100798001e0090000000e00005003a008b
:10b54400f023810011c2b300017098000080eb0069
:10b55400730037009e0090000e2090000080500081
:10b56400800078002e209000211098002e2090005a
:10b574008000eb00011098003e009000ce00900087
:10b584002e21900060099800710998003e009000f7
:10b59400ce0090002e219000400998005109980097
:10b5a4005e009000907090002e20900061609800e2
:10b5b4002e2090008000eb00111098000e00370040
:10b5c4002e2090006060900008df0700500798006c
:10b5d4002e209000d008900040089000300798007a
:10b5e400410798002e209000201090008e2090009b
:10b5f400008040001007980011c0b3001e009000a6
:10b6040008e50700404798004e4090000004e00021
:10b61400030032004e409000e34f500005003a0012
:10b624005e00900031c1b300017098000080eb000f
:10b634003b0037004e409000e14f500014003a00a8
:10b644006c004700800078001e009000b4e50700fd
:10b654002e209000901290002e20900004022000d2
:10b66400000242002e209000fc0140006c004700c4
:10b674007202200000014100ec0047006600470010
:10b68400c70020001e239000c6e90700000f7800c1
:10b694001e0078000000e000060032005e0090000a
:10b6a4009e00780081407800017098000080eb00d3
:10b6b4001b0037002e209000ec0047007102b00000
:10b6c400010107006e109000804078002e20900049
:10b6d400514898006e089000fe0890002e219000ba
:10b6e40070019800010998008e1890002e20900097
:10b6f40011089800fe1090002e2090002108980058
:10b70400ae7090002e209000615098005e10900062
:10b714008000e8002e209000111098000000eb003b
:10b724000080fa00000006000c00fa0040079800b0
:10b73400214f98006000b800100798002107980076
:10b744002e489000a9de0700300798003e009000c4
:10b754000000e00004003a004e00900021002000a8
:10b7640011009800d60037004e0090001040900061
:10b774000004e000720032004e0190006000b80046
:10b7840070019800010998004e0090008040eb0081
:10b79400114098004e009000f10f20001100980015
:10b7a4003e009000e06890004e00900041409800f8
:10b7b4003e019000825990008381fb00125a900050
:10b7c4000482fb004822dd008481710003007800bc
:10b7d400a25990008381fb00325990000281fb0042
:10b7e4004811dd0002817100820078008000780039
:10b7f4004e009000310098003e009000d068900008
:10b804004e009000014898003e019000c251900003
:10b814008381fb00525290000482fb004822dd0029
:10b824008481710003007800e25190008381fb0061
:10b83400725190000281fb004811dd000281710009
:10b84400820078004e019000500198006101980038
:10b854003e009000606890000080fb00e20f500002
:10b8640010003200e30f500003003200e10f5000db
:10b8740017003200210037004e01900070ff2f00a6
:10b88400f1ff200050099800610998004e019000d2
:10b89400f0ff2f00f1ff20007009980001119800bb
:10b8a400160037004e01900070ff2f0001002000a9
:10b8b40050099800610998004e019000f0ff2f0094
:10b8c4000100200070099800011198000b00370056
:10b8d4004e01900070ff20000100200050099800e4
:10b8e400610998004e019000f0ff2f000100200034
:10b8f4007009980001119800000000004e019000aa
:10b90400200020000100200010099800210998005f
:10b914004e009000a0089000100890004e01900086
:10b9240030099800410998004e009000a00890004a
:10b93400100890000001be003e009000afef070029
:10b944004e00900090009000f00f2000808f500077
:10b954005a003a000040eb00004f78004f003700d7
:10b964004e009000a0089000100890000001be0056
:10b974003e009000a1ef07001007980021079800ef
:10b984004e00900080109000700890001e019000fe
:10b99400ae019000800f5100818f590004003a00dd
:10b9a4004e00900031002000110098004400370040
:10b9b4001e009000ae009000e00f5000e08f580091
:10b9c40008003a004e00900080089000700090003b
:10b9d40061004000e08048004e0190007001980032
:10b9e400010998004e009000a008900010089000f3
:10b9f40061004000e08048004e019000100998006a
:10ba0400210998004e00900050099000e009900030
:10ba14001e009000ae009000800f5100818f5900ed
:10ba24000b0032004e00900010099000a009900015
:10ba34004e009000e0009000500090006200400032
:10ba4400e0804800800f5100818f590005003900c3
:10ba54004e019000200020000100200010099800f1
:10ba6400210998004e00900010099000a009900050
:10ba74004e009000c008900030089000800f5100e4
:10ba8400818f590004003a004e0090008000eb00c2
:10ba9400110098000a0037001e4fe8001e4078008d
:10baa400e14f4000aeff3a004e009000f10f20003d
:10bab40011009800000000000100370000000000a1
:10bac4000080fa00000006000600fa001007980043
:10bad400210798000040eb00004f78001200370067
:10bae4002e0090009040780000c2b30080cf500038
:10baf40002003a0000000000130037002e009000fe
:10bb0400904078001e009000014878001e009000cc
:10bb14000000e800100798002e0090000000e800e4
:10bb2400200798001e4fe8001e407800e74f5000a1
:10bb3400ebff3600040037002e0090000000e80000
:10bb4400200798001e4fe8001e407800e74f500081
:10bb5400f9ff36002e0090009040780000c2b30038
:10bb640080cf50001c0032001e009000e1c2b300e0
:10bb7400014878001e0090000000e80010079800bb
:10bb8400100037002e0090009040780000c2b300ef
:10bb940080cf50000f0032002e00900090407800bb
:10bba4001e009000014878001e0090000000e8008c
:10bbb400100798002e0090000000e800200798006d
:10bbc4001e4fe8001e407800ea4f5000edff36009b
:10bbd40001003700000000001e0090008040eb00d0
:10bbe400014878000080fa00000006000600fa0010
:10bbf40010079800210798002e0090000000e8002c
:10bc04009e00900000804000100798001e009000e5
:10bc1400104078000080fb00000f78001e009000a8
:10bc24000000e900100798001e0078004800dd00bd
:10bc3400000f78001e009000104078000080fb0088
:10bc44001e0f70001e0078000080fa00000006003d
:10bc54000800fa0020079800310798003e00900081
:10bc640063004000ae009000008040002007980070
:10bc74002e009000104078000080fb008000eb0054
:10bc8400008fbe002e0090000000e90020079800fd
:10bc94001e01be004818dd00c810de0081007000df
:10bca4004810dd00008fbe002e0090001040780088
:10bcb4000080fb008000eb001e1f70001e977000c8
:10bcc4002e0090000000e900200798001e01be002d
:10bcd4004818dd00c810de00810070004810dd0047
:10bce400008fbe002e009000104078000080fb0002
:10bcf4008000eb001e1f70001e9770002e00900045
:10bd04000000e900200798001e01be004818dd006d
:10bd1400c810de00810070004810dd00008fbe00f6
:10bd24002e009000104078000080fb008000eb00a3
:10bd34001e1f70001e9770001e00be000080fa00d7
:10bd4400000006000200fa009ec0a9000080eb007b
:10bd5400702488000080eb0050248800aa24ef009f
:10bd6400220020008000eb00c04a2000a2db070074
:10bd74002000200030258800a824ef008644a90074
:10bd8400f009200080248800f00920006024880045
:10bd940082c4a8008804a800006022004800de00d5
:10bda400c02488000040eb00004f780007003700f3
:10bdb4001e80fb00c200dd00006022000081400004
:10bdc4006000b8000089be001e4fe8001e407800e5
:10bdd400e74f5000f6ff36009424a8009624ef00a5
:10bde40094a4a9009424a900800020005024880071
:10bdf400e0da21008040eb000148780040db2100bc
:10be04008040eb000148780050db2100904078002e
:10be1400e0c060000148780060db210090407800b9
:10be2400e0c0600001487800502480006800600091
:10be34000000e000ecff3a0010c0b30057e8b70080
:10be440010c0b30058e8b7005968ef005a68ef0013
:10be54005168ef000040eb00004f780015003700f8
:10be64001e80fb0080004000808420000080400091
:10be74008000eb00010878001e80fb008000400079
:10be840040842000008040008000eb00010878001e
:10be94001e80fb0091db21000041eb0082707800e2
:10bea4001e80fb00b1db21000041eb0082707800b2
:10beb4001e4fe8001e407800e14f5000e8ff3600b6
:10bec4008060220040428800d00020005025880075
:10bed400d0db2100103089000060220081c0b30053
:10bee400014878001060220041c0b3000148780086
:10bef400106022009040780000c8b30080c0700039
:10bf040010602200014878003e68ef005c28ef00d2
:10bf14005e28ef006068ef003c28ef000080fa0024
:10bf2400000006000200fa00e04180000000e0008a
:10bf340013003a009424ef008c24ef00200020002a
:10bf440030258800a824ef008644a900f0092000c9
:10bf540080248800f00920006024880082c4a8009e
:10bf6400010037009404a800a02480006100600050
:10bf74000000e000fbff320010002000e0418800d8
:10bf8400e0418000e10f50000c003a00a124800041
:10bf940000042000008060000000e00007003a0078
:10bfa4000080eb00502488008c24ef008c04a8004f
:10bfb4008c84a80020002000e04188000024800038
:10bfc400700060000000e0000700320010248000d0
:10bfd400700060000000e000030032000001200057
:10bfe40000248800ac040700402480006200600044
:10bff4000000e000020032008ec0a900a400370057
:10c0040050248000610060000000e000090032005c
:10c0140060248000610060000000e0000500320040
:10c0240048ff070040002000e04188001000200085
:10c034005024880050248000700060000000e0005c
:10c044000500320060248000700060000000e00001
:10c054000100320083040700012480000004200052
:10c06400008060000000e0000300320000042000b3
:10c0740000248800f6060700502480006400600055
:10c084000000e000140032006024800064006000be
:10c094000000e00004003200120020008000eb00e9
:10c0a40030072000b214070040002000502488000c
:10c0b40055c8bf000004e0000300320055c8bf00ab
:10c0c4000040e90055e8b70055c8bf000004e0008f
:10c0d40001003a0089010700512480000008200073
:10c0e400008060000000e00006003200612480004f
:10c0f40000082000008060000000e0000100320021
:10c104003b04070050248000620060000000e0004f
:10c114000c00320060248000620060000000e00037
:10c1240008003200120020008000eb00f0ff27001e
:10c134008f1407000080eb0070248800200020008a
:10c1440050248800e0418000e30f500002003e00cc
:10c154008ec0a9004e003700602480006800600093
:10c164000000e000490032000040eb00004f78007e
:10c174004100370050248000680060000000e000a7
:10c1840041003200902480000040780052e8b7005b
:10c1940052c8bf000080fb004400de00004078006d
:10c1a40053e8b700800020005024880052c8bf0024
:10c1b400684060000004e00013003a0053c8bf0068
:10c1c4000081fb0053c8bf008080fb00b0db21006e
:10c1d400008040009040780061c060000004a2002c
:10c1e400e1406000b0db210000004100e1c06000dc
:10c1f40090417800e2cfb30002c161008140710038
:10c20400014878001200370053c8bf000081fb00ca
:10c2140053c8bf008080fb0090db210000804000f9
:10c224009040780061c060000004a200e14060001a
:10c2340090db210000004100e1c0600090417800e3
:10c24400e2cfb30002c1610081407100014878006f
:10c2540053c8bf000004e00002003a001a040700bb
:10c26400040037000001eb00218520002007200096
:10c274003f1407001e4fe8001e407800e34f5000b3
:10c28400bcff360001003700000000008ec0a9008a
:10c294000080fa00000006000400fa00204798001d
:10c2a400314798003e4090000080fb006800600029
:10c2b4000000e000030032008040eb002e409000bc
:10c2c400810107003e4090000080fb006400600094
:10c2d4000000e0000300320011c0b3002e409000c3
:10c2e40079010700a14a20002e4090000080fb0045
:10c2f40000004000008f40001e007800be40900007
:10c30400014878000080fa00000006000800fa00e6
:10c314002047980031479800220798006347980007
:10c324003e4090000004e000070032002e409000e0
:10c334000080fb00800040008084200000804000da
:10c34400100f7800060037002e4090000080fb009c
:10c35400800040004084200000804000100f7800de
:10c364001e0078000000e00002003a000000eb002c
:10c3740037003700ae0090001e00780011009800ce
:10c384001e007800ee409000014878001e007800fe
:10c394001040900002c4b300824060001e00780088
:10c3a400114098001e0078001040900080407800f2
:10c3b4000134a0001e007800114098001e0078008f
:10c3c4009040900000c8b30080c070001e00780048
:10c3d400114098003e4090000004e0000e0032003e
:10c3e400818420002e4090000080fb00000040006b
:10c3f40080804000828420002e4090000080fb005a
:10c404000000400000004100104078000024a20019
:10c41400804878000d003700418420002e409000b1
:10c424000080fb0000004000808040004284200027
:10c434002e4090000080fb000000400000004100fe
:10c44400104078000024a200804878001e00780084
:10c454000080fa00000006000400fa00204798005b
:10c46400314798002e4090000004e00019003a0083
:10c474001042800081c0b30001487800104280005f
:10c48400d1db21001100980010428000c1c0b3002c
:10c494001140980010428000114280001141900028
:10c4a40001c8b300814071001140980040428000ef
:10c4b40041c0b300114098004042800041428000d6
:10c4c4001141900001c8b3008140710011409800ef
:10c4d4002e0037002e4090000080fb00000040003a
:10c4e400800078003e4090000080fb000080400007
:10c4f4004300dd008000780000602200008f4000cf
:10c504001e00780010409000804078000124a000b4
:10c514001e007800114098001e00780090409000a2
:10c5240000c8b30080c070001e007800114098005d
:10c534002e4090000080fb00000040008000780046
:10c544003e4090000080fb00008040004300dd007e
:10c55400e400400000602200008f40001e007800cc
:10c5640010409000804078000124a0001e00780054
:10c57400114098001e0078009040900000c8b3005d
:10c5840080c070001e007800114098000080fa00fe
:10c59400000006000200fa00004f7800a124800089
:10c5a40000022000008060000000e0005100320022
:10c5b4001e80fb008000400080842000008040003a
:10c5c400100278001e80fb00800040008084200060
:10c5d40000804000100078001001be00000420001c
:10c5e40001002000820278000301780080017800b5
:10c5f4000100780083826200000061008000eb008b
:10c60400c000dd00000020000001be006128b80069
:10c614000001710081817100028abe001e80fb004e
:10c6240080004000808420000080400010027800d8
:10c634001e80fb00800040008084200000804000b9
:10c64400100078001001be0000042000010020004a
:10c654000000690081806900008abe008184200096
:10c664001e80fb0000004000808040008284200087
:10c674001e80fb00000040000000410010407800d4
:10c684000024a200804878001e80fb008000400047
:10c694008084200000804000900078001e80fb0011
:10c6a4000001400080842000000041001000780058
:10c6b400104090000044b200904098001e80fb009f
:10c6c40080004000808420000080400090007800ba
:10c6d4001e80fb0000014000808420000000410017
:10c6e400100078001041900000c4b30000406900bd
:10c6f400904098000080fa00000006000000fa0054
:10c7040057c8bf000004a2000004e0003600320055
:10c7140010c0b30057e8b70058c8bf000004a20017
:10c724000004e0003000320010c0b30058e8b70045
:10c734004dc8bf00e24f50000d003a004042800057
:10c744008040eb00014878004042800081c4b3007f
:10c754001140980040428000414280001141900005
:10c7640001c8b30081407100114098001e003700d9
:10c774004dc8bf00e14f50001b003a005468ef0061
:10c784000042800081c0b30001487800004280006c
:10c79400d1db2100110098000042800041c0b300a9
:10c7a4001140980000428000014280001141900035
:10c7b40001c8b300814071001140980010c0b3005b
:10c7c40054e8b7001042800081c0b30001487800eb
:10c7d40010428000d1db210011009800104280003b
:10c7e40001c8b300114098000080fa000000060060
:10c7f4000000fa005968ef005a68ef004dc8bf0006
:10c80400e24f500010003a001042800081c0b30093
:10c81400014878001042800051dc2100110098008a
:10c824001042800081c4b30011409800104280007f
:10c83400114280001141900001c8b3008140710091
:10c84400114098001e00370030dc21001080fb00ee
:10c8540041dc21009180fb00c808dd00010070006c
:10c864008000780080ed8000808f50000700310048
:10c8740030dc21001080fb0041dc21009180fb00b2
:10c88400c808dd000100700080ed88009a000700f0
:10c894004042800051dc2100110098004042800099
:10c8a40081c4b3001140980040428000414280009e
:10c8b4001141900001c8b3008140710011409800fb
:10c8c4000080fa00000006000400fa0020479800e7
:10c8d4003147980000602200000f78002e4090003d
:10c8e4000080fb0000004000800078003e40900083
:10c8f4000080fb00008040004300dd001e0f40006c
:10c904009e0078001100780000f0a10080087800f3
:10c914003e4090000004e00007003a002e409000e2
:10c924000080fb0080004000408420000080400024
:10c934001e087800060037002e4090000080fb009f
:10c944008000400080842000008040001e087800a1
:10c954009e0078001100780000e0a10080087800b3
:10c964001e017800e40041001100780000e0a000fe
:10c97400800878000080fa00000006000000fa0039
:10c9840094a4a90071ed80000008200000806000dc
:10c994000000e00029003a0040db210090407800cc
:10c9a40000c8b30000c060000004e0000a003200c8
:10c9b40020c0b3004de8b7005ac8bf000004a2006d
:10c9c4000004e0000100320089ff07005868ef000e
:10c9d4005768ef00460037001042800081c0b30062
:10c9e4000148780010428000d1db2100110098003a
:10c9f40010428000c1c0b300114098001042800072
:10ca0400114280001141900001c8b30081407100bf
:10ca1400114098004042800041c0b300114098008a
:10ca240040428000414280001141900001c8b3009f
:10ca340081407100114098002d003700d0db2100a7
:10ca44009040780000c8b30000c060000004e0001b
:10ca54000f00320010c0b3004de8b70059c8bf0042
:10ca64000004a2000004e0000100320060ff07009f
:10ca74005868ef005768ef0056c8bf000004a200d2
:10ca84000004e0001a0032001cff07001800370001
:10ca940020c0b3004de8b7001042800081c0b3004d
:10caa4000148780010428000d1db21001100980079
:10cab4001042800041c0b300114098001042800031
:10cac400114280001141900001c8b30081407100ff
:10cad400114098005868ef005768ef0056c8bf002f
:10cae4000004a2000004e0000100320003ff07007c
:10caf4000080fa00000006000200fa0080c0b300c3
:10cb0400004f780080ed8000e70f50000d003e00dc
:10cb140080ed8000004f78004cc8bf000004e000a6
:10cb240003003a0010c0b3004ce8b700050037001a
:10cb34004cc8bf00e14f500002003a0020c0b300cf
:10cb44004ce8b70081ed80001e80fb00008050009f
:10cb540080ed8800404280001e48780050dc2100af
:10cb64007042880070ed8000610060000000e00009
:10cb740017003a00090037007142800060ed800020
:10cb840010417800824878008100e80071428800f2
:10cb94000000e80060ed88001e4fe9001e407800a8
:10cba4000004e000f4ff3a000c00370071428000fa
:10cbb40060ed800010417800824878008100e80030
:10cbc400714288000000e80060ed88001e4fe90013
:10cbd4001e4078000004e000f4ff3a000080fa00f0
:10cbe400000006000200fa0000428000104f7800a6
:10cbf4009e80fb0050db21001080fb0062db2100e3
:10cc04001281fb004811dd0002007000808f50008b
:10cc14000700360050db21001080fb0061db21009f
:10cc24009180fb00c808dd0001007000004f78000f
:10cc340050db21001080fb0061db21009180fb00b0
:10cc4400c808dd0001007000800078001e80fb0031
:10cc540000805000f10f20000101600051db210031
:10cc640091417800e0c1610002c1710082487800fe
:10cc7400c800de0060db21001041780060416100e3
:10cc840081407100014878000040eb001047980093
:10cc94001c00370020db21001080fb0031db210069
:10cca4009180fb00c808dd00010070009e409000e8
:10ccb4008180fb0052dc2100e2c07800014878004a
:10ccc4000000e800f10f20000101600021db2100d9
:10ccd40091417800e0c1610002c17100824878008e
:10cce400c800de0030db21001041780060416100a3
:10ccf40081407100014878001e4090000040e80027
:10cd0400104798001e4090009e4f5000e1ff3900ec
:10cd140050db21001080fb0061db21009180fb00cf
:10cd2400c808dd00010070000000e00020003200af
:10cd34001042800081c0b300014878001042800096
:10cd440051dc21001100980000428000900078001e
:10cd540000002400008060000000e0000a003a00a7
:10cd64001042800081c4b30011409800104280003a
:10cd7400114280001141900001c8b300814071004c
:10cd840011409800310037001042800081c0b30088
:10cd9400114098001042800011428000114190001f
:10cda40001c8b3008140710011409800270037008a
:10cdb4001042800081c0b300014878001042800016
:10cdc400d1db2100110098001042800041c0b30063
:10cdd40011409800104280001142800011419000df
:10cde40001c8b300814071001140980070db21003c
:10cdf4001080fb0081db21009180fb00c808dd006e
:10ce0400010070000000e0000700320070db210028
:10ce14001080fb0081db21009180fb00c808dd004d
:10ce2400010070000000010041db21001140780086
:10ce34000070a1008048780056c8bf000004a2001a
:10ce44000004e000010032002cfe07000080fa001c
:10ce5400000006000200fa0070ed80000070a000df
:10ce640070ed8800220020008000eb00c04a200002
:10ce740061d70700020220008000eb00006022005e
:10ce84005dd707009424a8000040eb00004f780011
:10ce9400090037001e80fb0091db21000041eb00fc
:10cea400827078001e80fb00b1db21000041eb00a2
:10ceb400827078001e4fe8001e407800e14f500059
:10cec400f4ff3600120020008000eb00f083200005
:10ced40049d707009424a9008060220040428800ba
:10cee4000060220000428800004280001042880056
:10cef400f0db2100104078003ee8b7003ec8bf00d8
:10cf04000004e00003003a0000012000e041880032
:10cf14000600370012002000e183200010002000ea
:10cf24001311070000022000e04188000080fa008d
:10cf3400000006000000fa00d0db210090407800d9
:10cf440000c8b30080cf500047003a00e0da210067
:10cf540001ccb3000148780000dc210010407800c7
:10cf64000080fb00e20f500009003200e30f500084
:10cf740023003200e10f500037003a00a06329007b
:10cf840060ed88002001200080ed88003600370025
:10cf9400f0db2100104078000004e00014003a00a7
:10cfa400f0db2100104078000080fb00000040000e
:10cfb40080007800806f2900008040001000780015
:10cfc40060ed880060ed80000080e800904078000b
:10cfd40000db21000148780060ed80006300400020
:10cfe4009040780010db2100014878001e003700d3
:10cff400e0da21008040eb00014878001a00370095
:10d00400f0db210010407800e34f50000e003e009a
:10d01400f0db2100104078000080fb00000040009d
:10d0240080007800a06f2900008040001000780084
:10d0340060ed880060ed8000104078000080fb0007
:10d0440080ed880008003700e0da21008040eb0022
:10d054000148780004003700e0da21008040eb004a
:10d0640001487800000000000080fa00000006007b
:10d074000200fa0050dc21008040eb0001487800f7
:10d0840060dc21008040eb0001487800d0db210007
:10d09400904078007fc060000080fb00e10f5000ea
:10d0a40011003200e20f5000130032000000e000d3
:10d0b40040003a0070ed80000070a00070ed880020
:10d0c40050c8bf000004e0003500320050dc2100ed
:10d0d40010407800804078000114a00050dc21004a
:10d0e400014878003300370070ed80000070a00024
:10d0f40070ed88002f00370070ed80000070a000f4
:10d1040070ed880010dc21009040780000c8b30066
:10d1140000c060000004e00009003a0010dc2100b7
:10d12400904078006fc060000080fb0080004000e9
:10d134004084200000804000100f78000800370071
:10d1440010dc2100904078006fc060000080fb007c
:10d15400800040008084200000804000100f780090
:10d164001e00780090007800000028000080600015
:10d174000000e0000c0032001e00780090007800ef
:10d1840000402000008060000000e0000800320041
:10d1940050dc210011c0b3000148780005003700bd
:10d1a4000000000003003700000000000100370009
:10d1b4000000000071ed8000000820000080600085
:10d1c4000000e0000800320050dc210060ed88001f
:10d1d40070ed80000000a00070ed880000db2100ed
:10d1e40021c0b300014878000080fa000000060066
:10d1f4000000fa0050258000620060000000e0009a
:10d2040014003200004280009040900000c8b30037
:10d2140080cf50000e003a004042800090409000c1
:10d2240040c8b30080cf500009003a00004280009b
:10d23400c1c0b30011409800004280000142800048
:10d244001141900001c8b300814071001140980061
:10d25400aa24a90000082000502488000080fa00b5
:10d26400000006000000fa008284a80000012000eb
:10d274005024880010c0b30051e8b7006068ef0084
:10d284000001eb008000eb0050072000381007007d
:10d294000080fa00000006000000fa005168ef0068
:10d2a4000001eb008000eb00400720003010070075
:10d2b4008284a90000012000002488006068ef0037
:10d2c4000080fa00000006000000fa00d0c2b3009b
:10d2d40055e8b70052c8bf008080fb00b0ff2f00a4
:10d2e400008060000000e00021003a0052c8bf0046
:10d2f4000080fb004200de00004078000080fb005c
:10d30400c200dd000060220000804000004288006e
:10d3140000428000104288002084200021842000e4
:10d32400914078000124a200014878000042800066
:10d334009000780000c0230080806000004023003b
:10d34400808f500008003a000042800010009000d6
:10d354008200200080007800d0db21001fd6070067
:10d364000c000700090037004200070007003700df
:10d3740052c8bf008080fb00b0ff2f000080600017
:10d38400e80f500001003a00580007000080fa003e
:10d39400000006000000fa004c68ef005668ef0039
:10d3a4005968ef005a68ef005468ef004d68ef00c9
:10d3b4004042800041428000914090000174a100ed
:10d3c40011409800808420008184200091407800de
:10d3d4000124a200014878004042800041428000bc
:10d3e400914090000174a1001140980080842000b5
:10d3f40081842000914078000124a2000148780033
:10d404001042800011428000914090000174a100fc
:10d4140011409800e0da21008040eb0001487800d8
:10d424000000eb0080ed880040db21008040eb0031
:10d434000148780050db210090407800e0c0600093
:10d444000148780060db210090407800e0c0600073
:10d4540001487800880007000001eb008000eb0021
:10d4640030002000c20f070044fd07000080fa00ce
:10d47400000006000000fa004dc8bf00e24f500053
:10d4840002003a00d7fd0700160037004d68ef0090
:10d4940054c8bf000004a2000004e00010003200e1
:10d4a4001042800081c0b30001487800104280001f
:10d4b400d1db21001100980010428000c1c0b300ec
:10d4c40011409800104280001142800011419000e8
:10d4d40001c8b30081407100114098000100370079
:10d4e4005468ef000080fa00000006000200fa0011
:10d4f40040428000100078004e00de006140600071
:10d50400004f7800808420008184200091407800be
:10d514000124a20001487800e0418000e80f500097
:10d524000e003a00f0db2100104078008080fb0000
:10d53400f007200000806000b0248800b024800040
:10d544000000e0000300320000012000e0418800f8
:10d554000200370040002000e04188004dc8bf00b1
:10d56400e14f500028003a004042800051dc210085
:10d574001100980060fd07004cc8bf00e24f500046
:10d584000a003a004042800041c0b30011409800b4
:10d5940040428000414280001141900001c8b30024
:10d5a4008140710011409800310037001e4078001e
:10d5b4000004e0000a003a004042800081c4b30045
:10d5c4001140980040428000414280001141900087
:10d5d40001c8b30081407100114098002400370055
:10d5e4004042800081c0b300114098004042800056
:10d5f400414280001141900001c8b3008140710094
:10d60400114098001a00370040db21009040780058
:10d6140000c8b30000c060000004e0001300320042
:10d6240070db21001080fb0081db21009180fb0076
:10d63400c808dd00010070000000e00007003200af
:10d6440070db21001080fb0081db21009180fb0056
:10d65400c808dd00010070000000010041db21006a
:10d66400114078000070a100804878004d68ef00f8
:10d674000080fa00000006000000fa00d0db210060
:10d68400104078000046b2000004e00051003a0067
:10d69400e0db2100104078000080fb00cf80de003a
:10d6a400b200200003002000820f5000838f580036
:10d6b4004a003e00006001002100370022003700cc
:10d6c40048003700200037004600370006003700c6
:10d6d4000b0037003a0037000d0037000a0037000e
:10d6e4001b0037002a00370070ed80000070a00096
:10d6f40070ed880080002000e04188003a00370087
:10d704000cfe070038003700d2fd07003600370052
:10d71400e083200060ed880070ed80000000a00030
:10d7240070ed880000db210011c0b30001487800cf
:10d7340070ed80000070a00070ed88002a003700b2
:10d744004bfe070028003700290007002600370099
:10d7540010dc2100104078008080fb00f083200062
:10d764000080400060ed880070ed80000000a000a3
:10d7740070ed880000db210011c0b300014878007f
:10d7840070ed80000070a00070ed88001600370076
:10d7940070ed80000070a00070ed880010dc2100a6
:10d7a400104078000081fb00f0db210090407800fd
:10d7b400f083200000004100014878000a0037008f
:10d7c4000001eb008000eb0020002000e80e0700c1
:10d7d40005003700000000000300370000000000cf
:10d7e40001003700000000000080fa00000006007d
:10d7f4000600fa00f0db210010407800e14f5000f1
:10d8040010003a00d0db2100104078007f40600017
:10d814000004e0000b003a0070ed80000070a000ee
:10d8240070ed8800e0db210010407800e34f5000e9
:10d8340003003a0010c0b30050e8b70001003700fd
:10d844005068ef00f0db2100104078000004e00095
:10d85400fd003a00d0db2100104078007f406000da
:10d86400e24f5000f8003a0010dc2100104078002c
:10d874006f4060000004e000f300320010dc21007f
:10d88400904078006fc060000080fb00e10f500002
:10d89400ed003c00e141800000022000808f500038
:10d8a400e9003a0070ed80000070a00070ed88007f
:10d8b40010dc21009040780000c8b30000c0600074
:10d8c4000004e00011003a0010dc2100104178004f
:10d8d4006f4061000080fb00800040004084200015
:10d8e40000804000100078001007980010dc210030
:10d8f400904078006fc060000080fb00b1db210025
:10d9040061407800404798001000370010dc210087
:10d91400104178006f4061000080fb0080004000ef
:10d9240080842000008040001000780010079800d8
:10d9340010dc2100904078006fc060000080fb0084
:10d9440091db210061407800404798004e409000f0
:10d95400614060000004e00007003a000e80e80027
:10d964008e80e80011417800b1cfb300814061009e
:10d9740001487800050037000e80e8008e80e8003a
:10d98400914078000124a0000148780010dc2100b7
:10d994009040780000c8b30000c060000004e000bc
:10d9a4000a003a0010dc2100104178006f40610049
:10d9b4000080fb009e009000000140004084200095
:10d9c40000004100010878000900370010dc210044
:10d9d400904078006fc060000080fb009e009000c3
:10d9e400000140008084200000004100010878000c
:10d9f400e0db210010407800e34f50002b003a0098
:10da04001e00900090007800000028000080600054
:10da14000000e0001900320010dc21009040780082
:10da240000c8b30000c060000004e0000a003a002f
:10da340010dc2100104178006f4061008080fb0001
:10da4400b0db210080804000114078000010a0006d
:10da5400804878000900370010dc210090407800ed
:10da64006fc060008080fb0090db2100808040005c
:10da7400114078000010a000804878001e0090003b
:10da84009e009000914090000124a0001140980055
:10da94001e0090009e0090001141900001c8b30048
:10daa4008140710011409800670037000e80e80043
:10dab4008e80e800914078000124a200014878009b
:10dac4001e00900090007800000028000080600094
:10dad4000000e000110032001e0090009e00900043
:10dae400914090000174a100114098001e00900024
:10daf4009e0090001141900001c4b3008140710068
:10db0400114098001e009000220020008000780040
:10db140050002000160e0700060037001e0090007b
:10db24009e0090001141900001c4b3008140710037
:10db3400114098000e80e8008e80e8009140780043
:10db44000124a200014878004e4090006240600029
:10db54000004e00006003a001e00900090007800e7
:10db640000002800008060000000e0002400320073
:10db740010dc21009040780000c8b30000c06000b1
:10db84000004e0000a003a0010dc21001041780093
:10db94006f4061008080fb00b0db2100808040008a
:10dba400114078000010a100804878000900370077
:10dbb40010dc2100904078006fc060008080fb0082
:10dbc40090db210080804000114078000010a1000b
:10dbd400804878001e0090009e00900091409000c4
:10dbe400b143b200114098001e00900022002000b2
:10dbf4008000780050002000dd0d0700050037008c
:10dc04001e0090009e00900091409000b143b2002d
:10dc140011409800a14a200010dc21001041780036
:10dc24006f4061000080fb0000004000008f400056
:10dc34001e00780090407800d0cfb30080c0600010
:10dc44001e007800014878000080fa0000000600f9
:10dc54000000fa00e0428000f142800061004000d0
:10dc6400e0804800e0428800f142880051c8bf00cb
:10dc74000004a2000004e0000800320060c8bf00f5
:10dc84000040e80060e8b70060c8bf000004e0009e
:10dc940002003a0000c0eb0060e8b7000080fa0020
:10dca400000006000000fa00e0428000f14280001b
:10dcb4000080fa00000006000000fa000a28ef00c5
:10dcc400e0dc210003c4b300000178008040eb00d5
:10dcd40010c0b3008df90700404088005042800016
:10dce400504088000068ef0000c0eb0001e8b70076
:10dcf4000268ef000368ef001168ef001c28ef00d2
:10dd04001e28ef002028ef002228ef0010c0b300e7
:10dd140012e8b7000e28ef00904022008040eb008c
:10dd2400014878001f00370090402200104078001e
:10dd34008080fb0000812000008040008040eb00d8
:10dd44000148780081248100c02481000100010081
:10dd54000004e0000d00320051248100c024810041
:10dd6400010001000000e0000800320090402200a1
:10dd7400104078000080fb00110020008008dd00c6
:10dd84007040800001007000704088004905070061
:10dd940090402200104078008040e800904022002b
:10dda4000148780090402200104078000004e00010
:10ddb400ddff32000080fa00000006000000fa00d7
:10ddc400d0db2100104078007f406000e14f50001c
:10ddd40054003a0010dc2100104078000004e000f8
:10dde40052003a00e0db2100104078000080fb0084
:10ddf400e10f2000810f50002e003200f10f2000af
:10de0400810f50004e003a00f0db21001080fb002f
:10de140001dc21009180fb00c808dd0001007000d6
:10de24000000e00043003a0030dc21001080fb00d9
:10de340041dc21009180fb00c808dd000100700076
:10de44000000e0003d003a000068ef0000c0eb0075
:10de540001e8b7000268ef000368ef0010c0b300e8
:10de640012e8b700304280000000e00006003200f3
:10de7400304280009000780000002800008060009c
:10de84000000e00007003a00e0dc210003c4b30016
:10de9400000178008040eb0010c0b3001bf90700bc
:10dea40040408800e0da210001c8b300014878004e
:10deb40023003700f0db21001080fb0001dc21008f
:10dec4009180fb00c808dd00010070000000e00044
:10ded4001b003a0030dc21001080fb0041dc2100f3
:10dee4009180fb00c808dd0001007000e10f5000c4
:10def40013003a0050dc21008040eb000148780018
:10df040050dc210060ed88001000200080ed8800c6
:10df1400e0da210011ccb3000148780000000000d1
:10df24000700370000000000050037000000000073
:10df3400030037000000000001003700000000006b
:10df44000080fa00000006000200fa00e1418000af
:10df540000022000808f5000020032000040eb00dd
:10df6400da00370000c8bf000080fb00e10f50005a
:10df74008c003200e10f500003003c000000e00080
:10df840006003200c1003700e20f50008b0032005f
:10df9400e30f50009b003200bc003700404080007b
:10dfa4000000e0000600320040408000900078004d
:10dfb40000002800008060000000e000bb003a0080
:10dfc4000040eb00004f780009003700c13f2200f9
:10dfd4001e80fb0000804000e2dc21009e80fb00ec
:10dfe4008100410091407800014878001e4fe8000c
:10dff4001e407800fe4f5000f4ff36004040800081
:10e0040010407800ff4f50005e003a00e21f81008c
:10e01400f31f81005035250021342400800f510066
:10e02400818f590057003a0010c0b30012e8b700be
:10e0340090402200104078000004e00049003a00bb
:10e04400a040220010407800f04f500045003e00f0
:10e05400a0402200104078000004e000410032009b
:10e0640080402200104078008080fb00f0032000f4
:10e07400008060000000e0003a003a0050352500be
:10e084002134250070ef880081ef88000020810092
:10e094001120810090ef8800a1ef88006000b80093
:10e0a400b0ef8800c1ef8800a0df21008040eb00c2
:10e0b4000148780000c0eb0001e8b7000268ef00f7
:10e0c4000368ef000468ef00b040220010407800bd
:10e0d400e34f50000d003200e1412200114078006e
:10e0e4000000a1000010a1000020a1000030a10048
:10e0f40080487800804222008040eb00014878008c
:10e10400904222008040eb000148780080402200c9
:10e11400104078000004e00003003d0010c0b3008c
:10e1240000e8b7000200370020c0b30000e8b700e1
:10e134002020810031208100e00f5000e08f580042
:10e14400020032001168ef000200370010c0b30073
:10e1540011e8b700b04022001040780001e8b70091
:10e164000600370011c0b30010c0b300baf80700ae
:10e174008040eb0010c0b300b7f8070000000000b7
:10e184005100370011c0b30010c0b300b2f807004b
:10e194008040eb0010c0b300aff807001268ef0036
:10e1a400490037004b000700e14f400041003a00ae
:10e1b40030c0b30000e8b700430037004500070053
:10e1c400e14f40003d003a00a0df210010407800fc
:10e1d4000004e00008003a00b0ef8000c1ef8000c6
:10e1e400e00f5000e08f580003003200a0df210050
:10e1f40021c0b3000148780030c0b30000e8b70084
:10e2040031003700504280000000e0000600320078
:10e2140050428000900078000000280000806000d8
:10e224000000e00027003a00e0de2100d3c0b30084
:10e234000001780011c0b30010c0b30033f8070028
:10e2440050408800404080000000e000060032009a
:10e2540040408000900078000000280000806000aa
:10e264000000e00007003a00e0dc210003c4b30032
:10e27400000178008040eb0010c0b30023f80700d1
:10e28400404088000068ef000f0037000068ef008e
:10e29400a0df210021c0b300014878008040eb00da
:10e2a40010c0b3006cf8070007003700000000003e
:10e2b40005003700000000000300370000000000e4
:10e2c400010037000000000000c8bf000080fa0011
:10e2d400000006000000fa0081248100c0248100af
:10e2e400010001000004a2000004e00008003a005c
:10e2f40090402200104078008080fb0000812000c4
:10e3040000804000104078000004e0000b00320060
:10e3140090402200104078000080fb001100200093
:10e324000008dd008080ea0070408000008060000a
:10e33400704088002f0007002b0037009040220017
:10e34400104078000080fb00110020008008dd00f0
:10e3540070408000008060000000e00021003a006e
:10e3640051248100c0248100010001000000e0006c
:10e374001a00320090402200104078000080fb0018
:10e38400110020008008dd00704080000100700052
:10e3940070408800e1412200114078000000a10093
:10e3a4000010a0000020a0000030a10080487800e8
:10e3b4008042220081c2b3000148780090422200ca
:10e3c4008040eb0001487800a0df210011c0b300b9
:10e3d40001487800380007000300370005000700f3
:10e3e400010037003400070001c8bf000080fa00b4
:10e3f400000006000000fa0001c8bf000080fb0016
:10e40400f20f500023003200f20f500005003c00d0
:10e414000000e00019003200e30f50000700320052
:10e4240020003700fe0f500014003200d10f2000ee
:10e43400810f5000190032001a0037009d030700b5
:10e44400e1412200114078000000a1000010a0006a
:10e454000020a1000030a100804878008042220002
:10e46400a1c3b30001487800904222008040eb0031
:10e4740001487800100007000d003700a0df2100dc
:10e4840011c0b3000148780000c0eb0001e8b700f8
:10e4940007003700080007000500370006000700e2
:10e4a40003003700f0c7b300550407000000000064
:10e4b4000080fa00000006000a00fa0001c8bf004c
:10e4c4000080fb00fe0f5000b1003200fe0f500030
:10e4d4000e003c00f20f50002c003200f20f5000ee
:10e4e40005003c000000e000bf003200e30f5000d4
:10e4f4007200320025013700fa0f50008a00320002
:10e50400fb0f5000cf00320020013700a102200091
:10e51400810f500017003200a1022000810f50002b
:10e5240007003c0051022000810f500031003200ee
:10e5340081022000810f50000800320013013700cf
:10e54400f1022000810f5000be003200d10f2000e4
:10e55400810f5000c10032000c0137003c0107005c
:10e564000004e0000d013a0000c0eb0001e8b70030
:10e57400150137000a0207000004e00009013a000f
:10e5840000c0eb0001e8b7000f01370011c8bf005d
:10e594000004e0000300320000c0eb0001e8b70013
:10e5a40009013700e04022001040780015e8b70068
:10e5b400f04022001040780014e8b700a04080002a
:10e5c4008000eb00900307000004e000f7003a002d
:10e5d40040022000fe00070042022000817a290048
:10e5e400c0df21007dd10700d0cfb30001e8b70020
:10e5f400f500370061248100c0248100010001007e
:10e60400300798004107980071248100c0248100dc
:10e61400010001008000eb0010079800210798001a
:10e624001e48900080407800c0df21000148780037
:10e634000e48900080407800d0df21000148780027
:10e644007e40900080407800e0df2100014878009f
:10e654006e40900080407800f0df2100014878008f
:10e664005e4090008040780000e02100014878007e
:10e674004e4090008040780010e02100014878006e
:10e684003e4090008040780020e02100014878005e
:10e694002e4090008040780030e02100014878004e
:10e6a40080002000a040880080002000c8000700ef
:10e6b400d0cfb30001e8b700c300370011c8bf00d2
:10e6c4000004e0000300320000c0eb0001e8b700e2
:10e6d400bd00370020012000a04088002001200058
:10e6e400bb0007000040eb00004f78000800370033
:10e6f4001e80fb009e80fb00c2412200e2c0780025
:10e7040001417800c1df2100827078001e4fe800cb
:10e714001e407800f14f5000f5ff3600d0cfb30013
:10e7240001e8b700a8003700c0df210031c0b30002
:10e7340001487800d0df21008040eb0001487800d8
:10e74400a1248100c0248100010001000004e00034
:10e754000200320000c8b300010037000040eb00a3
:10e76400e1df210080487800f0df21008040eb00e9
:10e774000148780040002000a040880040002000ac
:10e7840093000700d0cfb30001e8b7008e00370034
:10e79400e1412200114078000000a0000010a10017
:10e7a4000020a0000030a1008048780080422200b0
:10e7b40001c2b30001487800904222008040eb007f
:10e7c40001487800a0df210011c0b300014878009f
:10e7d4006000b800b0ef8800c1ef880000c0eb0013
:10e7e40001e8b700780037006000b80006030700ae
:10e7f4000004e0006f003a00e0412200104078007d
:10e804006f406000e64f500007003a00a0df21008f
:10e8140010407800e14f500003003a0000c0eb00c4
:10e8240001e8b70068003700a20207006000b800e2
:10e83400b0ef8800c1ef880000c0eb0001e8b7002a
:10e84400610037006000b800b0ef8800c1ef8800b5
:10e8540000c0eb0001e8b7005b00370050408000c7
:10e864000000e00006003200504080009000780074
:10e8740000002800008060000000e0004f003a0023
:10e884002220810033208100f003200001002000b9
:10e89400800f5100818f59000900360000c4b30075
:10e8a4001047980020208100312081000004b1002d
:10e8b4000180b10020208900312089000600370042
:10e8c4002020810031208100104798006000b800aa
:10e8d4002020890031208900a14080001e40900042
:10e8e4000080fb00808f500006003900a1408000aa
:10e8f4001e4090000080fb0000805000a040880073
:10e90400130037000040eb00004f78000c00370084
:10e91400a04080000000e00004003200a04080001d
:10e924000000e900a0408800040037001e80fb00be
:10e93400c1df21000041eb00827078001e4fe80027
:10e944001e4090009e40780080cf5000f0ff3900b8
:10e95400c0df21009e4190000001780011c0b30087
:10e9640010c0b30069f607005040880020208100e1
:10e9740031208100e00f5000e08f580011003a0070
:10e9840000c0eb0001e8b7000f003700f0c7b30088
:10e994001b030700000000000b003700000000000c
:10e9a40009003700000000000700370000000000e5
:10e9b40005003700000000000300370000000000dd
:10e9c40001003700000000000080fa00000006008b
:10e9d4000200fa00000f7800222081003320810019
:10e9e4001e0078008000eb00800f5100818f5900d9
:10e9f400080031006000b800b0ef8800c1ef880063
:10ea0400202081003120810000007800a04088008f
:10ea14000d003700a04080009e0f50000200360019
:10ea24009e007800a14088002220810033208100cc
:10ea3400a04080008000eb0000005100818059005c
:10ea4400b0ef8800c1ef88000080fa0000000600e3
:10ea54000200fa001ac8bf00e24f5000080032005a
:10ea64001ac8bf000004e00005003200e22481005f
:10ea7400c0248100e1422200020001001ae8b7002c
:10ea840002c8bf000080fb00e60f50003a003200cd
:10ea9400e70f50008f0032000000e00098003a00b9
:10eaa400d04022001040780019e8b700e04022006e
:10eab4001040780018e8b700f040220010407800b9
:10eac40017e8b700004122001040780016e8b700ac
:10ead400204122001040780015e8b70030412200a0
:10eae4001040780014e8b700a04080006101b8002d
:10eaf4004918dd00c710de00810070004910dd00f8
:10eb0400410207000004e0009b003a00a0df21005e
:10eb14008040eb00014878002020810031208100f2
:10eb2400b0ef8800c1ef8800000420007021890044
:10eb340030458000a0218900b0408000c1408000a1
:10eb4400b0218900c1218900202081003120810069
:10eb54008021890091218900a043220011c0b300c3
:10eb64000148780060c0b30002e8b70010c0b300e9
:10eb74001ae8b7003a68ef003ac8bf000004a200e0
:10eb84000004e000100032001ac8bf00e24f500039
:10eb940008003a00e2248100c0248100e1422200fe
:10eba400020001001ae8b70010c0b3003ae8b70049
:10ebb40005003700e2248100c0248100e1422200e4
:10ebc400020001001ae8b7001ac8bf000004e00000
:10ebd40008003a00b0ef8000c1ef8000e00f500061
:10ebe400e08f580003003a0070c0b30002e8b70099
:10ebf400680037001ac8bf00e14f400002003a0025
:10ec040000c0eb0002e8b700504080000000e000c4
:10ec14000600320050408000900078000000280078
:10ec2400008060000000e00055003a003ac8bf00d0
:10ec34000004e0005400320041458000010f7800d8
:10ec440030458000404588009e00780031458800aa
:10ec54004045800003c4b3000001780011c0b30034
:10ec640010c0b300a9f5070050408800304580006b
:10ec7400a0218900b0ef8000c1ef80000004b10042
:10ec84000180b100b0ef8800c1ef88001ac8bf004e
:10ec9400e24f500008003a00e2248100c0248100c1
:10eca400e1422200020001001ae8b70010c0b300dc
:10ecb4003ae8b70037003700e2248100c02481001d
:10ecc400e1422200020001001ae8b7003a68ef00ae
:10ecd40030003700504080000000e00006003200a1
:10ece4005040800090007800000028000080600000
:10ecf4000000e00027003a000268ef00250037001a
:10ed0400a0df210011c0b30001487800e1412200d6
:10ed1400114078000000a0000010a0000020a10015
:10ed24000030a10080487800804222008040eb003f
:10ed340001487800904222008040eb0001487800ae
:10ed4400504080000000e000060032005040800087
:10ed54009000780000002800008060000000e000bf
:10ed64000b003a0011c0b30010c0b300baf507009d
:10ed74000268ef00070037000000000005003700bc
:10ed8400000000000300370000000000010037000d
:10ed94000000000002c8bf000080fa000000060066
:10eda4000000fa0003c8bf000080fb000000e00080
:10edb40003003200e30f5000980032002b013700ab
:10edc400d04022001040780019e8b700e04022004b
:10edd4001040780018e8b700f04022001040780096
:10ede40017e8b700004122001040780016e8b70089
:10edf400204122001040780015e8b700304122007d
:10ee04001040780014e8b7002020810031208100f0
:10ee1400b0ef8800c1ef8800a04080006101b80015
:10ee24004918dd00c710de00810070004910dd00c4
:10ee3400750107000004e00014013a00a1248100d8
:10ee4400c0248100010001000004e000160032002b
:10ee5400a0df210011c0b30001487800e141220085
:10ee6400114078000000a0000010a0000020a000c5
:10ee74000030a100804878008042220071c2b300b3
:10ee840001487800904222008040eb00014878005d
:10ee94008040eb0010c0b3006ff507000368ef007b
:10eea40003c8bf0001013700a043220011c0b30012
:10eeb40001487800b0408000c1408000b021890042
:10eec400c121890020208100312081008021890016
:10eed40091218900c0df2100a021890000042000c5
:10eee4007021890030c0b30024e8b70020208100dd
:10eef400312081004a09dd004600de000000710077
:10ef0400c608de003041880041418800304180005d
:10ef14004141800050418800614188002e28ef0063
:10ef2400c0df210080418800c0df210090418800bb
:10ef3400404080000000e0000600320040408000b5
:10ef44009000780000002800008060000000e000cd
:10ef54002a003a00304280000000e000060032003f
:10ef6400304280009000780000002800008060009b
:10ef74000000e00021003a009041800003c4b30087
:10ef8400000178008040eb0010c0b300dff40700fc
:10ef9400a0418800904180000004b00090418800a6
:10efa4009041800003c4b300000178008040eb006e
:10efb40010c0b300d5f40700b04188009041800030
:10efc4000004b0009041880030418000414180003d
:10efd40062005000e08058003041880041418800c0
:10efe400a0418000c0418800c041800040408800aa
:10eff40030c0b30003e8b70008003700a0df2100e9
:10f0040021c0b300014878008040eb0010c0b30079
:10f0140011f507000368ef00a3003700504180009a
:10f0240061418000e00f5000e08f5800480032003a
:10f03400c04180000000e00006003200c0418000b2
:10f044009000780000002800008060000000e000cc
:10f054003f003a0071418000f0072000808f50008b
:10f064003b003e00c04180009040780000c4b300e3
:10f0740080cf500008003200a0df210021c0b3007f
:10f08400014878008040eb0010c0b300f2f40700a0
:10f094000368ef0084003700704180000004b00072
:10f0a400704188005041800061418000610050003f
:10f0b400e08058005041880061418800c1418000cf
:10f0c400a0418000808f500003003a00b0418000ce
:10f0d400c041880002003700a0418000c041880080
:10f0e4003041800041418000e00f5000e08f580023
:10f0f400170032009041800003c4b300000178007f
:10f104008040eb0010c0b30080f40700404088004a
:10f11400304180004141800061005000e08058008f
:10f124003041880041418800904180000004b000d3
:10f134009041880091418000c0df21000010b000a0
:10f14400808f500002003900c0df21009041880008
:10f1540024c8bf00e34f500009003a00a0df21009b
:10f16400104078000004e00005003a00d224810039
:10f17400c0248100e14222000200010024e8b7001b
:10f1840024c8bf00e14f400008003a00a0df21007e
:10f1940011c0b300014878008040eb0010c0b300f8
:10f1a400adf407000368ef003f00370024c8bf0038
:10f1b4000004e00004003a000368ef0030428000dd
:10f1c400404088003800370024c8bf00e24f500098
:10f1d40030003a00704180000000e0002f0032004f
:10f1e40080418000a0218900a0df21001040780028
:10f1f4000004e0000b003a00b0ef8000c1ef800093
:10f204000004b1000180b100b0ef8800c1ef8800b4
:10f21400d2248100c0248100e142220002000100c6
:10f2240024e8b700804180000004b00080418800d9
:10f2340081418000c0df21000010b000808f5000a9
:10f2440002003900c0df2100804188007041800045
:10f254000004b10070418800704180000000e000ab
:10f2640010003d002e28ef000f003700a0df210022
:10f2740021c0b300014878008040eb0010c0b30007
:10f2840075f407000368ef00070037000000000072
:10f2940005003700000000000300370000000000f4
:10f2a400010037000000000003c8bf000080fa001e
:10f2b400000006000000fa00c0412200104178005e
:10f2c40001c8b3000141610001c7b300814071006e
:10f2d40001487800c1412200114078000070a1006b
:10f2e40080487800d04122008040eb00014878003b
:10f2f400e1412200114078000000a1000010a100ab
:10f304000020a1000030a10080487800e1412200e3
:10f31400114078000050a10080487800e1412200ab
:10f32400114078000060a10080487800e14122008b
:10f33400114078000070a10080487800f04122005c
:10f344008040eb0001487800004222008040eb003e
:10f3540001487800104222008040eb000148780008
:10f36400204222008040eb00014878003042220015
:10f37400a1c0b300014878004042220090407800c8
:10f38400e0c06000014878005042220090407800bc
:10f39400e0c060000148780060422200904078009c
:10f3a400e0c060000148780070422200904078007c
:10f3b400e0c0600001487800804222008040eb00f9
:10f3c40001487800904222008040eb000148780018
:10f3d400a04222008040eb0001487800b0422200a5
:10f3e4008040eb0001487800c04222008040eb00de
:10f3f40001487800d04222008040eb0001487800a8
:10f404000080fa00000006000800fa0020079800b7
:10f41400310798002e009000be009000e00f5000cd
:10f42400e08f580003003a0010c0b3002047980052
:10f43400020037000040eb002047980011c8bf00cd
:10f444000004e000050032002e4090000004e000bb
:10f45400020032000040eb006700370022208100e8
:10f46400332081002e009000be009000800f5100d8
:10f47400818f590011003a0000c8bf00e14f5000cd
:10f4840007003a001180200091407800a0c2b30028
:10f4940080cf5000090032000040eb0056003700d6
:10f4a4001180200091407800a0c2b30080cf5000aa
:10f4b40002003a000040eb004f0037002220810098
:10f4c400332081002e009000be009000800f510078
:10f4d400818f59000300360010c0b3001047980014
:10f4e400020037000040eb001047980000c8bf003e
:10f4f400e24f500021003a00118020009140780032
:10f50400a0c2b30080cf5000070032002e4090000c
:10f514000004a2000004e0000300320050c0b30065
:10f52400004f78003100370011c8bf000004e0002c
:10f534000300320010c0b300004f78002b003700e6
:10f544002e4090000004e0000300320040c0b300ed
:10f55400004f7800250037001e4090000004e000b2
:10f564000300320040c0b300004f78001f00370092
:10f5740050c0b300004f78001c00370011802000f9
:10f5840091407800a0c2b30080cf500003003a003d
:10f5940030c0b300004f78001400370011c8bf001a
:10f5a4000004e0000300320010c0b300004f7800f4
:10f5b4000e0037002e4090000004e00003003200eb
:10f5c40020c0b300004f7800080037001e409000b0
:10f5d4000004e0000300320020c0b300004f7800b4
:10f5e4000200370030c0b300004f78001e4078009e
:10f5f400030007001e4078000080fa0000000600a7
:10f604000400fa0020479800504080000000e00009
:10f61400060032005040800090007800000028006e
:10f62400008060000000e00065003a004040800077
:10f634000000e000060032004040800090007800a6
:10f6440000002800008060000000e0005e003a0036
:10f654000180200091407800014f780000c0eb0049
:10f6640001e8b7000268ef000368ef002020810082
:10f6740031208100b0ef8800c1ef8800a0df2100b5
:10f6840011c0b3000148780030c0b30000e8b700ef
:10f694002e4090000080fb00e30f50001700320062
:10f6a400e30f500005003c00e10f50000b00320056
:10f6b400e20f50000d00320044003700e50f500007
:10f6c40019003200e50f500013003500f107200047
:10f6d400810f50001b0032003c003700a0df2100e6
:10f6e40021c0b300014878003800370011c0b300ce
:10f6f40010c0b30058f3070034003700a0df210026
:10f7040021c0b3000148780011c0b30010c0b30099
:10f7140051f307002d0037008040eb0010c0b30008
:10f724004df3070029003700a0df210021c0b300fa
:10f73400014878008040eb0010c0b30046f3070096
:10f7440022003700dbfe0700e1412200114078006f
:10f754000000a0000010a1000020a0000030a100c3
:10f76400804878008042220001c2b300014878003a
:10f77400904222008040eb00014878001e4078004f
:10f78400e24f50000a003a0020208100312081001d
:10f79400e00f5000e08f5800050032008040eb007d
:10f7a40010c0b3002cf3070000000000070037006e
:10f7b40011c0b30010c0b30027f3070003003700e3
:10f7c4000000000001003700000000000080fa0083
:10f7d400000006000200fa00000f78001e00780006
:10f7e40020009000000001000080fa0000000600e4
:10f7f4000200fa00000f7800304380000080fa0015
:10f80400000006000200fa00000f78001043800098
:10f81400214380000080fa00000006000200fa0084
:10f82400000f78001e0078004000900000000100e6
:10f834000080fa00000006000400fa001007980097
:10f844001e00900090009000010f78001e009000b0
:10f85400104078008b0a07009e00780010c0b300a7
:10f86400010001007268ef0010c0b3000080fa00cc
:10f87400000006001c00fa00881f780000047800cd
:10f88400210f980062579800440f9800550f980074
:10f894002e089000900090000040eb000100010051
:10f8a4006e5090000080fb006600b9008000780074
:10f8b40020702900008040001040780020579800f4
:10f8c4004e099000de09900072079800030f98001b
:10f8d4006e5090000080fb006600b9008000780044
:10f8e400207029000080400010409000404f980094
:10f8f4001e0890000060a000100f9800ae50900009
:10f904002e08900010407800710a07009e50900065
:10f914002e089000104078006d0a07008e50900069
:10f924002e08900010407800690a0700fe489000f5
:10f934002e08900010407800650a0700ee489000f9
:10f944002e08900010407800610a0700ce4890000d
:10f954002e089000104078005d0a07006e50900059
:10f96400e54f500003003a002e0890001040780044
:10f97400c30a070040012000000f78002e08900001
:10f9840010407800be0a0700604798001e0fe90087
:10f994006e409000e14f400003003a001e007800e2
:10f9a4000000e000f5ff3a006e5090000080fb007c
:10f9b4006600b900000078008080e800207029000b
:10f9c4000080400010007800e20f500007003a0069
:10f9d4006e409000704798002e0890001040780008
:10f9e400a70a0700604798003d0037006e5090005a
:10f9f4000080fb006600b900000078008080e80009
:10fa0400207029000080400010007800e10f5000b1
:10fa140019003a0000002000a100200010079800ff
:10fa2400210798002e08900010407800940a0700df
:10fa3400604798001e009000ae00900061005000e6
:10fa4400e080580010079800210798006e4090004d
:10fa54000004e00005003a001e009000ae00900093
:10fa6400e00f5000e08f5800eeff3a000040eb003a
:10fa7400604798001a0037006e5090000080fb0029
:10fa84006600b900000078008080e800207029003a
:10fa94000080400010007800e40f500010003a008d
:10faa4002e08900010407800750a0700304f980027
:10fab4002e08900010407800710a0700204f98002b
:10fac4002e089000104078006d0a0700104f98002f
:10fad4002e08900010407800690a0700004f980033
:10fae4002e0890001040780080c0eb00f809070051
:10faf4006e5090000080fb006600b90000007800a2
:10fb0400e40040002070290000804000104078008c
:10fb14000004e00004003a002e08900090009000d9
:10fb240010c0b300010001003e019000ce0190001e
:10fb3400028cbe00de0190002304980008007800c7
:10fb44004f0478000080fa00000006001800fa0054
:10fb5400000f9800120f9800230f9800310f98009f
:10fb64000020200010079800002020000100200041
:10fb74002007980031079800be08900041079800bc
:10fb84001e099000ae099000520798006307980080
:10fb940010c0b300604f980001003700000000005f
:10fba4000e80e800800078000e0890000c0007002a
:10fbb400004f78001e4078000004e00002003a0084
:10fbc40010c0b300040037001e407800e14f40002d
:10fbd400f2ff3a000040eb000080fa00000006004b
:10fbe4001200fa0040079800510798005e00900048
:10fbf400404890000080fb00e20f50007b00320080
:10fc0400e20f500005003c000000e0000900320053
:10fc1400e10f500009003200cd003700e30f50001f
:10fc24004c003200e10f2000810f5000ba00320076
:10fc3400c70037000040eb00d000370020c0b300fd
:10fc440072e8b70000202000f04388005e009000b6
:10fc5400e149220006000900b0187800e000b10074
:10fc640068c8bf000004e00008003a0032258100a3
:10fc7400432581004918dd00c710de0081007000b3
:10fc84004910dd00302589004125890002258100c5
:10fc9400132581000020200001002000800f510066
:10fca400818f59000b003e0010c0b30080e8b700fc
:10fcb40030258100412581008e81e8000002be00cc
:10fcc40082c0b300ce00900003007800e9fe070074
:10fcd4000f0037008068ef00302581004125810046
:10fce400ec0147000002be0092c0b300ce009000b9
:10fcf40003007800dffe07006e019000fe01900013
:10fd040012079800230798008e0990003307980083
:10fd14002e4090000004e000050032005e009000d8
:10fd2400e1cfb3004148980010c0b30093003700fe
:10fd34000000200041002000104488002144880075
:10fd44005e00900031c0b3004148980010c0b30079
:10fd54008a0037001044800021448000e00f5000e6
:10fd6400e08f58001c0032001044800021448000c1
:10fd740061005000e080580010448800214488004d
:10fd84004e00900010407800bd090700004f780035
:10fd94001e407800e14f40000d0032001e40780004
:10fda400e24f400005003a005e00900021c0b3001d
:10fdb4004148980020c0b300700037005e009000f6
:10fdc400e1cfb3004148980010c0b3006b00370086
:10fdd40010c0b300690037005e009000e1cfb300ab
:10fde4004148980010c0b30064003700002581002a
:10fdf40011258100e00f5000e08f58002e003200e2
:10fe04005e00900010007800f02489005e009000ed
:10fe140030009000202589000225810013258100ef
:10fe2400f02481008000eb00000051008180590023
:10fe34000025890011258900f1438000f024810008
:10fe440000805000f0438800f224810021258100c5
:10fe54004e009000104078009c090700f043800099
:10fe64000000e00012003a004e00900010407800bc
:10fe7400830907004e0090001040780080090700b5
:10fe84000025810011258100e00f5000e08f58000b
:10fe9400030032005e00900031c0b3004148980076
:10fea40000202000f043880010c0b3003300370066
:10feb40020c0b3003100370080c8bf000004a20096
:10fec4000004e000050032006c0047006022b80026
:10fed40052c0b300ce00900066fe07004e009000b2
:10fee4009000900010c0b300010001004e0090008b
:10fef4001040780080c0eb00f50807005e00900019
:10ff04008040eb004148980010c0b30072e8b7008d
:10ff14000040eb00190037005e00900080c0eb0049
:10ff2400414898006c0047006022b80052c0b300fa
:10ff3400ce0090004ffe07006e019000fe0190007d
:10ff440012079800230798008e0990003307980041
:10ff54004e0090009000900010c0b300010001001a
:10ff64004e0090001040780080c0eb00d8080700d5
:10ff740010c0b30072e8b70000c0eb000080fa00c4
:10ff8400000006001400fa0050079800610798006a
:10ff94006e009000404890000080fb00e20f50008b
:10ffa40069003200e20f500005003c000000e00050
:10ffb4000b003200e10f50000b0032002a01370021
:10ffc400e40f5000f5003200e40f5000a9003500a2
:10ffd400e10f2000810f500013013200220137008d
:10ffe4000040eb002301370020c0b30072e8b700e3
:10fff40000202000a04388006e009000e149220008
:020000040001f9
:1000040006000900b0187800e000b1000225810064
:10001400132581000020200001002000800f5100e2
:10002400818f590003003e00a0c0b30076e8b700fa
:100034001e003700b0c0b30076e8b7000025810089
:10004400112581004709dd004900de000000710030
:10005400c908de00008fbe001e00be00e00f500085
:10006400e08f580004003a00120020000300200032
:100074001e0f41005e974900640047006022b800eb
:10008400f2c0b300de009000fafd07004e4090007d
:100094000004e00005003a006e0047001e02be00a6
:1000a40032c1b300de009000f2fd070068c8bf0053
:1000b4000004e00008003a00322581004325810055
:1000c4004918dd00c710de00810070004910dd0012
:1000d4003025890041258900302581004125810092
:1000e4006287200012417800ee0147000002be0042
:1000f400de00900003007800defd07007e01900022
:100104008e09900022079800330798009e099000fa
:10011400430798004e4090000004e00005003200c0
:100124006e00900080c0eb004148980000c0eb00d6
:10013400d00037006e00900021c0b3004148980001
:1001440020c0b300cb003700a14380000020200072
:10015400808f50000c003a0076c8bf00eb4f50006f
:1001640005003a005e00900010407800c1cfb30053
:1001740057080700040037005e0090001040780024
:10018400e1cfb300520807006e0090001000780021
:10019400f02489006e009000300090002025890032
:1001a4000225810013258100f02481008000eb00ea
:1001b4000000510081805900002589001125890023
:1001c400a1438000f024810000805000a0438800f7
:1001d400f2248100212581005e0090001040780007
:1001e40053080700a04380000000e0001f003a000d
:1001f40000202000a04388005e009000104078009a
:1002040080c0eb00320807005e00900010407800c8
:1002140080c0eb002e0807005e00900010407800bc
:10022400970807000080fb007f006000e50f500086
:10023400050032006e009000e1cfb3004148980001
:1002440030c0b3008b0037006e00900031c0b300a3
:100254004148980000002000a1002000c04388000d
:10026400d143880030c0b3008200370020c0b300ff
:1002740080003700c0438000d1438000e00f50006d
:10028400e08f580040003200c0438000d14380001a
:1002940061005000e0805800c0438800d1438800ca
:1002a4005e0090001040780080c0eb000808070052
:1002b4005e00900010407800710807007ce8b700e9
:1002c4007cc8bf000004e0002d003200002581003e
:1002d40011258100e00f5000e08f580023003a0000
:1002e40000002000a1002000c0438800d143880002
:1002f40076c8bf00eb4f50000d003a005e0090003e
:1003040010407800d1cfb300f10707005e009000e1
:100314001040780080c0eb00ed0707006e009000ed
:1003240041c0b3004148980030c0b30051003700c9
:100334005e0090009000900010c0b3000100010026
:100344005e0090001040780080c0eb00e0070700da
:100354006e0090008040eb004148980010c0b3004c
:1003640072e8b7000040eb00420037006e009000d6
:1003740021c0b3004148980020c0b3003d003700bd
:1003840030c0b3003b0037006e009000e1cfb300f3
:100394004148980030c0b30036003700c0438000a5
:1003a400d1438000e00f5000e08f58001e0032005f
:1003b400c0438000d143800061005000e0805800b9
:1003c400c0438800d14388005e009000104078004c
:1003d4002b0807007ce8b7007cc8bf000004e000dd
:1003e4000f0032005e0090009000900010c0b30037
:1003f400010001005e0090001040780080c0eb0016
:10040400b30707006e0090008040eb00414898005d
:1004140010c0b30072e8b7000040eb0015003700cd
:1004240030c0b300130037006e0047006022b800ec
:1004340052c0b300de0090000efd07005e00900085
:100444009000900010c0b300010001005e00900015
:100454001040780080c0eb009d0707006e009000fc
:1004640080c0eb004148980010c0b30072e8b700a8
:1004740000c0eb000080fa00000006000c00fa0047
:100484001007980022079800330798004107980046
:10049400244f98002e4890000004a2000004e000bd
:1004a400070032002e009000be009000e00f5000c4
:1004b400e08f580002003a000040eb001e003700b5
:1004c4000020200060258900002020000100200079
:1004d4007025890081258900ce009000912589002e
:1004e4002e019000be019000a2258900b325890049
:1004f400804b220011c0b30001487800010037008e
:1005040000000000c14a22001e0090009dfe07006a
:10051400004f78001e4078000004e00002003a001a
:1005240010c0b300040037001e407800e14f4000c3
:10053400f3ff3a000040eb000080fa0000000600e0
:100544000200fa00000f78001e00780030009000ce
:10055400000001000080fa00000006000800fa0014
:1005640060479800ee409000014f78001500370076
:10057400b07c20000100200010079800210798009b
:10058400000000009e0090002e009000010070000a
:1005940000f0a7000000ea000000ea004f00de00bf
:1005a400004178001e009000ae00900061005000f1
:1005b400e080580010079800210798000204e0002a
:1005c400f0ff3a001e80fb000000ea004f00de004e
:1005d400004078001e4fe9000004e000e4ff3a0008
:1005e400000000000080fa00000006001200fa007b
:1005f400000f98000000eb00700798002005200011
:100604006007980030002000000f78000040eb00e5
:10061400204f980080022000100798001e009000d0
:100624000000e00013003a0030002000300798007a
:10063400c0012000400798001c0037001e009000f5
:10064400e80f50000f0036001e0fe9001e00900056
:10065400630060000000e000030032001e00900010
:1006640064004000100798001e0090004200de0065
:10067400100798001e0090000000e000efff3a0011
:1006840001003700000000001e0090000000e90097
:10069400100798009e007800310798001e00900013
:1006a4000080ea0067006000400798000e08900090
:1006b400104078000080fb00200798006400470089
:1006c400920607000080fa00000006003800fa00d5
:1006d400881f7800001f98007268ef00a086200031
:1006e4008000eb0001087800a08620008040eb0029
:1006f400214098006228ef006428ef006868ef004a
:100704000e1890009000900010c0b300010001008a
:100714000e189000b5ff0700e0c1b3008fff07007b
:100724000e1890009000900010c0b300010001006a
:100734000000eb00000f7800050037000e18900051
:100744001040780080c0eb00e10607001e0fe800af
:100754001e007800e90f5000f8ff36004006200024
:10076400000f78000e1890009000900010c0b300a5
:10077400010001000e1890001040780080c0eb00ca
:10078400d30607000e189000900090000040eb0084
:10079400010001001e0fe9006a0047006022b80052
:1007a4000041eb008e18900032fc07002e489000a8
:1007b400e14f5000030032001e0078000000e0000a
:1007c400e8ff3a001e0078000000e0002c003a0028
:1007d4000e1890009000900010c0b30001000100ba
:1007e4000e1890001040780080c0eb00b806070097
:1007f4000e189000900090000040eb0001000100f2
:10080400200320000e0040006022b80052c0b30054
:100814008e18900017fc07001e199000ae19900066
:100824005207980063079800be1990007307980058
:10083400200320000e0040006022b8000041eb00bd
:100844008e1890000bfc07001e199000ae19900042
:100854005207980063079800be1990007307980028
:100864002e489000e14f500005003200a086200081
:100874002100200001087800a0862000b60137007e
:10088400200320000e004000a41a200005002000d0
:1008940022c0b3008e189000f6fb07001e199000ca
:1008a400ae1990005207980063079800be19900093
:1008b400730798006e019000fe019000f0ff200085
:1008c4000100200002027800030178008001780012
:1008d4000100780003026200000061008000eb0068
:1008e400c000dd00000020000001be006120b8004f
:1008f4000001710081817100a01a20000100200014
:10090400800f5100818f59005a003a005e00900018
:10091400640060000000e00056003a00200320005c
:100924000e0040006022b80002c1b3008e1890008f
:10093400d0fb07001e199000ae19900052079800d2
:1009440063079800be199000730798000000eb003d
:10095400000f780017003700200320000e0040002d
:100964006022b800f2c0b3008e189000c1fb0700eb
:10097400200320000e004000040020000500240095
:1009840022c1b3008e189000bafb07001e19900014
:10099400ae1990005207980063079800be199000a2
:1009a400730798002e4890000004e0000500320010
:1009b4001e0fe8001e007800e10f4000e6ff3a0039
:1009c40001003700000000001e007800e10f400025
:1009d40003003a00a08620002100200001087800ce
:1009e400200320000e0040006022b80002c1b300c2
:1009f4008e1890009ffb07001e199000ae199000fe
:100a04005207980063079800be1990007307980076
:100a14006e019000fe0190000000200001002400ff
:100a24000202780003017800800178000100780058
:100a340003026200000061008000eb00c000dd00e2
:100a4400000020000001be006120b8000001710018
:100a540081817100e00f5100e08f590003003200e2
:100a640010c0b30068e8b7002c0037006868ef00d6
:100a74002a0037000e1890009000900010c0b300b8
:100a84000100010010c0b300b4fe07000e1890006e
:100a9400900090000040eb00010001006868ef0046
:100aa400f0ff2100000f7800200320000e0040001a
:100ab4006022b80012c0b3008e1890006dfb0700ce
:100ac4001e199000ae199000520798006307980011
:100ad400be199000730798001e0fe9002e4890007d
:100ae4000004e000030032001e0078000000e00073
:100af400edff3a001e0078000000e00007003a0015
:100b0400a086200021002000010878000e18900023
:100b14009000900010c0b300010001000e18900076
:100b24009000900010c0b300010001000000eb0031
:100b34007017980020052000601798000040eb0013
:100b4400206f9800200020003017980070002000cb
:100b5400401798000e189000104078000080fb00a9
:100b640020179800400220000e004000670507008f
:100b74000e189000900090000040eb00010001006e
:100b840040012000000f7800200320000e004000e8
:100b94006022b80032c0b3008e18900035fb070005
:100ba4001e199000ae199000520798006307980030
:100bb400be199000730798001e0fe9002e4890009c
:100bc4000004e000030032001e0078000000e00092
:100bd400edff3a001e0078000000e00009003a0032
:100be400a086200021002000010878000e18900043
:100bf4009000900010c0b30001000100a086200006
:100c0400d50037000040eb00304798000040eb006f
:100c140020479800150037003e4090000084fb00f8
:100c24000e18900010407800150607008800470051
:100c3400805098003e4090000040e8003047980003
:100c44002e4090000004e00005003a000e50900091
:100c5400e24f400002003a000040eb0030479800a9
:100c64002e4090000040e800204798002e4090005d
:100c7400f34f5000e8ff3600002020003043880086
:100c8400a08620000120200021009800a1862000d9
:100c9400110090000000a000900098000e509000f9
:100ca4008080fb00000c2000008060000000e00059
:100cb4002e0032007e5090000081fb008001eb008a
:100cc400f0032000010020000202780003017800f4
:100cd40080017800010078000302620000006100d6
:100ce4008000eb00c000dd00000020000001be0019
:100cf4006120b8000001710081817100c011dd0024
:100d0400020020000e5890000080fb004800dd0027
:100d14008000eb0000017100818171001e58900079
:100d24000080fb008000eb000000710081807100f6
:100d340020079800310798002e009000be00900014
:100d440061014000e08148004a18dd00c610de0061
:100d5400810070004a10dd0061005000e0805800fe
:100d64001043880021438800610037006e509000d2
:100d74000080fb008000eb00c001dd0002002000c9
:100d84007e5090000080fb004800dd008000eb00f6
:100d940000017100818171000e5890000080fb00f9
:100da4008000eb0000007100818071002007980032
:100db400310798002e019000be01900000fc2f0026
:100dc40031002000020278000301780080017800dd
:100dd4000100780003026200000061008000eb0063
:100de400c000dd00000020000001be006120b8004a
:100df4000001710081817100220798003307980077
:100e04002e009000be0090004a09dd004600de007e
:100e140000007100c608de00200798003107980022
:100e24001e589000634060000040400080407800fd
:100e34002e5890000080fb004700de000040780040
:100e440000c07000004f98005e5090006f4060003a
:100e5400104f98001e4890000080fb00690050006d
:100e6400110020000008dd00104f98002e009000b3
:100e7400be00900061014000e08148000e489000ef
:100e84000080fb000080e800110020000008dd0065
:100e94008000eb00009ab90004027800028bb900cc
:100ea40086027800050242000010b80001024200e8
:100eb400840078001e4990000281fb008001eb0051
:100ec400028ab90004027800009bb9008602780007
:100ed400050242000200b8000102420084007800ca
:100ee40061005000e08058001043880021438800ce
:100ef400200320000e0040006022b80012c1b3009d
:100f04008e1890005bfa0700304380008000eb00ed
:100f1400230320008e8141000002be0072c0b30092
:100f24008e1890000300780052fa07000e18900003
:100f34009000900010c0b30001000100a0862000c2
:100f4400100078000000e00002003a0010c0b30076
:100f540072e8b700a08620004f0478000080fa00f1
:100f6400000006004c00fa0080782900e4004700e5
:100f74000c000900b0587800d000b100710147009e
:100f8400117a290005000900315978000000eb00ae
:100f940010079800df070700c1020700e1eb070014
:100fa40010002000f80807000004e00003003200ed
:100fb400b0e024003c0707000100370021070700c8
:100fc4005116800000202000008060000000e00036
:100fd400e5003a0010002000eb0807000004e000e0
:100fe400e10032000000000010002000e6080700c5
:100ff4000004e000fcff3a0000000000a14b2200c6
:10100400a077290070c807000004a2000080fb003c
:10101400e10f5000f9ff320000000000a24b220053
:10102400a177290010c4b300a2c807000000e000a3
:10103400faff3a002c0037003e4890000040e800d8
:10104400304f9800be489000a0c3b30080cf50003a
:1010540023003a0000c3b300304f98002e4890009c
:101064000040e800204f9800ae489000a0c3b300b1
:1010740080cf50001a003a0000c3b300204f9800fc
:101084001e4890000040e800104f98009e489000d1
:10109400a0c3b30080cf500011003a0000c3b300d6
:1010a400104f98000e4890000040e800004f980050
:1010b4008e489000a0c3b30080cf500008003a00cf
:1010c40000c3b300304f980000c3b300204f980012
:1010d40000c3b300104f980000c3b300004f980042
:1010e4007800470049e00700e40047007800470023
:1010f400120020005acf07000000e000ceff3200ab
:1011040000000000e400470078004700620120006e
:1011140053cf0700e10f4000faff3200a603070097
:101124007c00370087c8bf000004e000790032006b
:101134002207200021002000100d2000a702070034
:10114400c08a2000104078008de8b700d08a2000c3
:10115400104078008ce8b7006144800040332000e0
:10116400808f50006b0036004207200001322000bf
:10117400100d2000990207000000eb0010079800f2
:10118400600037000000eb00000f780044003700d7
:101194001e0090006a00b900000078001e004000a4
:1011a40000004000c18a2000614078008be8b7004d
:1011b4001e0090006a00b900000078001e00400084
:1011c400000040000000e800c18a2000614078006f
:1011d4008ae8b70050448000f10047008a080700fd
:1011e4001e0078006600b900000078009e50900050
:1011f40001417800c1da2000827078001e00780076
:101204006600b900000078000000e800ae509000cd
:1012140001417800c1da2000827078001e00780055
:101224006600b900000078000080e800be5090001d
:1012340001417800c1da2000827078001e00780035
:101244006600b9000000780063004000ce509000b2
:1012540001417800c1da2000827078001e00780015
:101264006600b9000000780064004000de50900081
:1012740001417800c1da2000827078001e007800f5
:101284006600b9000000780065004000ee50900050
:1012940001417800c1da2000827078001e0fe80056
:1012a4001e007800e90f5000b9ff340080de2000f2
:1012b400a1c0b3000148780078004700800178009d
:1012c400d203200011002000c0da2000e0e1070072
:1012d400d1032000810f500003003a00b0e0240045
:1012e4007106070002003700b0e024007e06070004
:1012f4008768ef008868ef001e0090000000e80097
:10130400100798009e00900070022000808f50000b
:101314009cff3400100020001b0807000004a200fa
:101324000004e0007fff3a000000000010002000ed
:10133400150807000004e000fcff3a00410607001e
:101344000000000078004700b0df07000000e00064
:10135400fcff3a000000000010c4b3005ccd07009d
:10136400e10f4000fcff3200400807000bff37008c
:101374000600fa00000f7800110798002207980071
:101384001e00780021072000810f50003100320038
:1013940021072000810f50000c003c00e20f500098
:1013a4002e003200e20f500003003c00e10f500019
:1013b4000d00320030003700e30f50000c00320003
:1013c400e50f50000c0032002b00370041072000cd
:1013d400810f50002300320041072000810f50008c
:1013e40022003500240037001908070022003700c6
:1013f40072f207002000370012c8bf000004a200e8
:101404000004e0000700320011c0b30010c0b300b4
:1014140011ec07008040eb0010c0b3000eec070095
:1014240015003700314280001e009000808f50006c
:1014340010003a00e0dc210003c4b300000178008e
:101444008040eb0010c0b300b0eb070040408800c0
:10145400090037000000000007003700000000000a
:101464000500370000000000030037000000000002
:10147400010037000000000010c0b3000080fa0033
:10148400000006001800fa00eb004700527929001a
:101494000b000900b258780010c0b3003047980020
:1014a40030c3b3000000fb004400dd00804078003e
:1014b40080c3b3006f40600000c07000204f9800ec
:1014c40020c3b3000000fb004400dd00804078002e
:1014d40050c3b3006f40600000c07000104f98000c
:1014e40010c3b3000000fb004400dd00804078001e
:1014f40040c3b3006f40600000c07000004f98000c
:1015040010c3b3000000fb004400dd0080407800fd
:1015140040c3b3006f40600000c070006047980093
:1015240010c3b3000000fb004400dd0080407800dd
:1015340050c3b3006f40600000c070004047980083
:1015440040c4b3000000fb00a1042000810f500040
:101554001e003200a1042000810f50000a003c004c
:1015640041042000810f500061003200610420001a
:10157400810f50003200320011042000810f50000e
:10158400420032005d003700e1042000810f50006a
:1015940054003200e1042000810f500004003c009c
:1015a400d1042000810f500028003200530037007e
:1015b400f1042000810f5000470032003105200063
:1015c400810f5000410032004c00370050c6b30078
:1015d4000000fb0011062000810f500004003200bf
:1015e40051072000810f50000400320043003700ef
:1015f40010c0b300104798001000370030c6b30085
:101604000000fb00c1062000810f500007003200db
:10161400e1062000810f500001003200060037006f
:1016240060c0b300104798000300370070c0b300d7
:101634001047980000000000000000002f00370051
:1016440020c0b300104798002c00370030c6b30008
:101654000000fb0021072000810f5000040032002d
:1016640091072000810f500004003200230037004e
:1016740030c0b300104798000300370050c0b300d7
:1016840010479800000000001c00370050c6b3004b
:101694000000fb0001072000810f5000040032000d
:1016a40051072000810f500004003200130037005e
:1016b40040c0b300104798000300370080c0b30057
:1016c40010479800000000000c00370090c0b300e1
:1016d400104798000900370000c1b3001047980074
:1016e4000600370010c1b30010479800030037000c
:1016f40020c1b30010479800000000009e409000f5
:101704005147980060c0b300004f78004e409000ed
:101714000080fb004400de00004078006a00b9004d
:1017240000007800804078004e4090006f406000d8
:1017340000c04000204798002e4090000080fb002d
:101744004200de00804078002e40900000c040003f
:101754001e4f40002e409000634060000004e000f3
:1017640004003a001e409000e24f500001003e0089
:101774001e4fe9001e4090000080fb000000e900bd
:1017840000004700304890001e4f40006e4090001b
:101794000080fb004400de00004078006a00b900cd
:1017a40000007800804078006e4090006f40600038
:1017b40000c040001e4f40009e80fb0070002000cf
:1017c40000017800110009008280d8008000fd002b
:1017d400004f78009e4078007147980063004700ee
:1017e400ae0307000080fa00000006000a00fa00b9
:1017f400400798000040eb00004f78000e0078008e
:10180400060407004e0090008040eb004140980021
:101814005e409000ff4060004e0090008180fb001d
:10182400cb08dd0090019000f27f2000028161006e
:1018340082807000110098006e409000f2c3b300e3
:10184400824060004e0090000181fb00f103200003
:1018540081006100c508dd0090019000f2812f0035
:101864000281610082807000110098007e40900027
:101874000080fb000000d10000407800ff406000c1
:101884004e0090008180fb00ff806000900190007a
:1018940002fe2f0002816100828070001100980016
:1018a4003e409000ff4060004e0090008180fb00ad
:1018b400ff8060009001780002fe2f000281610029
:1018c40082807000010878002e409000ef40600094
:1018d4004e0090008180fb00ef806000c508dd00b1
:1018e40090017800f2e12f00028161008280700093
:1018f400010878001e409000744040008040780049
:101904000174a1004e0090008180fb00c908dd0035
:1019140090017800f21f2000028161008280700033
:10192400010878000080fa00000006000000fa00b8
:10193400c0da200011c4b30001487800d0da2000d6
:1019440081c7b30001487800e0da2000c1c2b300c7
:1019540001487800f0da200011c4b300014878008f
:1019640000db200091c7b3000148780010db2000a1
:10197400c1c2b3000148780020db200011c4b300c9
:101984000148780030db2000a1c7b300014878008b
:1019940040db2000c1c2b3000148780050db2000c6
:1019a40041c5b3000148780060db2000c1c2b30028
:1019b4000148780070db200071c4b300014878004e
:1019c40080db200081c7b3000148780090db200051
:1019d400c1c2b30001487800a0db200071c4b30089
:1019e40001487800b0db200091c7b30001487800bb
:1019f400c0db2000c1c2b30001487800d0db200066
:101a040071c4b30001487800e0db2000a1c7b30033
:101a140001487800f0db2000c1c2b300014878001f
:101a240000dc2000d1c4b3000148780010dc2000a1
:101a340081c7b3000148780020dc2000c1c2b30094
:101a44000148780030dc2000d1c4b300014878009c
:101a540040dc200091c7b3000148780050dc20002e
:101a6400c1c2b3000148780060dc2000d1c4b300d7
:101a74000148780070dc2000a1c7b3000148780059
:101a840080dc2000a1c0b3000148780090dc200075
:101a9400d1c0b300014878000080fa0000000600bd
:101aa4000000fa0051168000002020000080600031
:101ab4000000e0000600320010c4b30084cb07002d
:101ac400a0e807000048220054f707000900370087
:101ad400a04b220051f7070043c507000000e000b7
:101ae40001003a00ffff370066fe070080bf2800b0
:101af40037c507000080fa00000006000600fa005f
:101b0400000f780011079800220798009828ef002a
:101b14000602a8000000000086c8bf000004a2005e
:101b24000004e000fcff3a008668ef001e00780025
:101b3400101088000000000086c8bf000004a20046
:101b44000004e000fcff3a008668ef002e009000dd
:101b5400101088000000000086c8bf000004a20026
:101b64000004e000fcff3a008668ef000e00370036
:101b7400c0448000c1ca2000614078000080fb009e
:101b840010108800c04480000000e800c0448800b1
:101b94000000000086c8bf000004a2000004e000aa
:101ba400fcff3a008668ef00c14480001e009000ec
:101bb400808f5000eeff3a000642a80000000000ab
:101bc40086c8bf000004a2000004e000fcff3a0045
:101bd4008668ef000080fa00000006000600fa00a4
:101be400000f780011079800220798009628ef004c
:101bf4000602a8000000000086c8bf000004a2007e
:101c04000004e000fcff3a008668ef00000d2000ad
:101c1400101088000000000086c8bf000004a20065
:101c24000004e000fcff3a008668ef002e009000fc
:101c3400101088000000000086c8bf000004a20045
:101c44000004e000fcff3a008668ef000602a800ea
:101c54000000000086c8bf000004a2000004e000e9
:101c6400fcff3a008668ef001e0078001010880020
:101c74000000000086c8bf000004a2000004e000c9
:101c8400fcff3a008668ef001e0037000662a800d9
:101c94000000000086c8bf000004a2000004e000a9
:101ca400fcff3a008668ef00b04480000110800019
:101cb40001417800c18a200082707800b04480001d
:101cc4000000e800b0448800b14480001e00900089
:101cd400808f500003003a0006a2a8000682a800e4
:101ce4000300370006a2a9000682a8000000000035
:101cf40086c8bf000004a2000004e000fcff3a0014
:101d04008668ef00b14480001e009000808f500070
:101d1400deff3a000642a8000000000086c8bf00ab
:101d24000004a2000004e000fcff3a008668ef0013
:101d34000000000010168000610060000000e00058
:101d4400fcff32000080fa00000006000000fa00e8
:101d5400300220002010880006a2a80007e2a80094
:101d6400020007000080fa00000006000000fa00ec
:101d7400c0ca200001c8b30001487800b2062000a0
:101d840011002000000d20005cff0700200320004c
:101d9400c8000700c0ca200011c0b3000148780081
:101da400b206200011002000000d200053ff0700a0
:101db40020032000bf000700c0ca2000f1c4b30004
:101dc400014878009201200011002000000d20003d
:101dd4004aff0700c0ca200081c1b300014878004f
:101de400c201200011002000000d200043ff070065
:101df400c0ca200081c1b30001487800b2012000ac
:101e040011002000000d20003cff0700c0ca200084
:101e1400c1c0b300014878008202200011002000f4
:101e2400000d200035ff0700c0ca2000a1c0b30088
:101e3400014878009202200011002000000d2000cb
:101e44002eff0700c0ca200011c0b300014878006b
:101e54004206200011002000000d200027ff07008b
:101e6400c0ca200011c8b30001487800a2022000b3
:101e740011002000000d200020ff0700c0ca200030
:101e8400c1c8b300014878005202200011002000ac
:101e9400000d200019ff0700c0ca200031c0b300a4
:101ea400014878006202200011002000000d20008b
:101eb40012ff0700c0ca200061cdb30001487800ba
:101ec4007202200011002000000d20000bff07000b
:101ed40017000700c0ca200091cfb3000148780062
:101ee4003202200011002000000d200003ff070033
:101ef400c0ca200001c8b30001487800720620005f
:101f040011002000000d2000fcfe0700c0ca2000c4
:101f140011c0b300014878008203200011002000a2
:101f2400000d2000f5fe07000080fa000000060006
:101f34000000fa00c0ca20008040eb00014878008d
:101f44008203200011002000000d2000ebfe07009a
:101f54003202200011002000000d2000e7fe0700df
:101f6400a206200011002000000d2000e3fe07005f
:101f7400c0ca200041c0b30001487800a206200076
:101f840011002000000d2000dcfe0700c0ca200064
:101f940001c6b30001487800a20620001100200009
:101fa400000d2000d5fe070020032000410007009b
:101fb4000080fa00000006000000fa00c0ca2000f9
:101fc4008040eb00014878008203200011002000cb
:101fd400000d2000c9fe070032022000110020007d
:101fe400000d2000c5fe0700a206200011002000fd
:101ff400000d2000c1fe0700c0ca200041c0b3008c
:1020040001487800a206200011002000000d2000e5
:10201400bafe0700c0ca200001c6b3000148780018
:10202400a206200011002000000d2000b3fe0700ce
:10203400c0ca200091cfb3000148780032022000ca
:1020440011002000000d2000acfe0700c0ca2000d3
:1020540001c8b30001487800720620001100200076
:10206400000d2000a5fe0700c0ca200011c0b30067
:10207400014878008203200011002000000d200098
:102084009efe07000080fa00000006000000fa002f
:10209400c0ca200001c8b30001487800b20620007d
:1020a40011002000000d200094fe07000080fa00bb
:1020b400000006000200fa00000f7800000028006b
:1020c40080088800060037000621ef0000000000a9
:1020d40031088000f0e72300808f5000fcff3600b9
:1020e4001e00780000f0a7000000ea000000ea00eb
:1020f4004f00de00004078001e0fe9000004e000fd
:10210400f1ff3a000080fa00000006000200fa0025
:10211400000f78001e00780010007800e10f5000d6
:1021240056003a004022ef004222ef0042a2a800eb
:102134001e0078005000900000407800614060006c
:1021440061406000614060000080fb00610060004d
:102154004a00dd0012128000f1bf2f0081006100ef
:1021640001007000101288001e007800604090008a
:10217400614060000080fb00610060004800dd00f9
:1021840012128000f1ef2f00810061000100700045
:10219400101288001e0078004000900011052000f5
:1021a400810f50001100320011052000810f5000f2
:1021b40004003e0001052000810f50000800320099
:1021c4001300370021052000810f50000a0032005f
:1021d40031052000810f50000a0032000c00370046
:1021e40042c2a9004322a9000900370042c2a90043
:1021f4004322a8000600370042c2a8004322a900d7
:102204000300370042c2a8004322a80000000000d7
:102214004422ef004402a8001e0078001000900041
:1022240000407800634060000080fb0063006000b1
:1022340012128000c1ff2f008100610001007000b4
:10224400101288001e0078002000900000407800e2
:10225400674060000080fb00670060004200dd0012
:102264001212800031fe2f00810061000100700015
:102274001012880041e2a800000000000080fa006b
:10228400000006000200fa00004f78001e407800ab
:10229400e14f500001003a0041e2a9000080fa0039
:1022a400000006000200fa00004f78001147980071
:1022b4001e407800e14f500003003a001e41900098
:1022c400a18a2000824878000080fa0000000600fd
:1022d4000400fa0020479800314798002e409000ef
:1022e400e14f500010003a0000000000001280008e
:1022f400620060000000e000fcff3a003e409000f5
:102304000080fb00401288000112800000022000bf
:10231400008060000000e000fbff3a0040128000f3
:10232400004f7800000000000080fa000000060062
:102334000a00fa00404798003107980042079800c5
:10234400ce009000010f78004e0090000000e000e5
:10235400460032004e409000e14f500046003a00e3
:102364001e007800e10f50000a0036003e00900085
:10237400104078000080fb00401288003e0090006e
:102384000000e800300798004e0090000000e900cb
:10239400400798003e009000104078000080fb0049
:1023a400401288003e0090000000e80030079800ca
:1023b4004e0090000000e900400798000e0037002e
:1023c4003e009000104078000080fb00401288001e
:1023d4003e0090000000e8003007980001128000e1
:1023e40000022000008060000000e000fbff3a00d3
:1023f40040128000204798004e00900000f0a70093
:102404000000ea000000ea004f00de00004078000f
:10241400ce0090008100e900410798000004e0002c
:10242400e7ff3a00011280000002200000806000f3
:102434000000e000fbff3a004012800020479800b3
:102444001e007800e10f50000a00360001128000df
:1024540000022000008060000000e000fbff3a0062
:10246400401280002047980003003700000000005d
:1024740001003700000000000080fa0000000600a0
:102484000200fa00004f78001e407800e14f50002f
:102494000b003a00aac8bf000080fb00401288006d
:1024a4000112800000022000008060000000e000b3
:1024b400fbff3a0040128000004078000100370022
:1024c4000040eb000080fa00000006000800fa005b
:1024d400204798002107980032079800be0090001a
:1024e400010f78003e0090000000e0004900320037
:1024f4002e409000e14f500049003a001e00780041
:10250400e10f500006003600aac8bf000080fb009f
:10251400401288003e0090000000e9003007980057
:10252400aac8bf000080fb00401288003e00900053
:102534000000e900300798000f003700aac8bf0068
:102544000080fb004012880001128000000220007d
:10255400008060000000e000fbff3a0040128000b1
:10256400804078002e009000014878002e009000f2
:102574000000e800200798003e00900000f0a7004b
:102584000000ea000000ea004f00de00004078008e
:10259400be0090008100e900310798000004e000cb
:1025a400e6ff3a0001128000000220000080600073
:1025b4000000e000fbff3a004012800080407800f9
:1025c4002e009000014878002e0090000000e800e2
:1025d400200798001e007800e10f50000f0036001d
:1025e4000112800000022000008060000000e00072
:1025f400fbff3a0040128000804078002e009000db
:10260400014878002e0090000000e80020079800a0
:102614000300370000000000010037000000000044
:102624000080fa00000006000200fa00004f780063
:102634001e407800e14f50000b003a00e088200073
:10264400100078000000e00005003a00e088200057
:10265400110020000108780010002000030037005a
:102664000000eb00010037000080eb000080fa005e
:10267400000006000200fa00004f78001e407800b7
:10268400e14f500003003a00e08820008000eb0096
:10269400010878000080fa00000006000200fa0039
:1026a400881f7800000f78002300200060042000b9
:1026b4007205200024742000004a7800024a780041
:1026c400034a780051052000313b8800a10a20000c
:1026d400313b880027a6a8002706a8002726a800c3
:1026e4001e007800104078000004e0002000320052
:1026f4001e007800104090000080fb00203188000c
:102704001e007800204090000080fb00c800dd001f
:102714001e007800304090000080fb000100700033
:10272400203188001e007800404090000080fb00ab
:10273400c800dd001e007800504090000080fb00bf
:1027440001007000203188001e0078006040900075
:102754000080fb00c800dd001e007800704090007f
:102764000080fb0001007000203188002600370043
:102774001e00780010409000bb0007000080fb00a2
:10278400203188001e00780020409000b600070029
:102794000080fb004804dd001e00780030409000fb
:1027a400b10007000080fb000800700020318800a1
:1027b4001e00780040409000ab0007000080fb0042
:1027c4004804dd001e00780050409000a600070079
:1027d4000080fb0008007000203188001e00780093
:1027e40060409000a00007000080fb004804dd006a
:1027f4001e007800704090009b0007000080fb00e2
:102804000800700020318800000028003031880062
:102814004f0478000080fa00000006000e00fa0061
:10282400600798002706a8002726a80030318000fa
:102834004c00de00614060000080fb0000f0a70057
:102844000000ea000000ea004f00de00004f7800bc
:1028540021318000110798001e009000804078000c
:102864006e009000114098002131800011079800fb
:102874001e0090004800de00804078006e0090004a
:10288400214098001e009000804078006e00900067
:102894003140980021318000110798001e009000fb
:1028a4004800de00804078006e00900041409800af
:1028b4001e009000804078006e0090005140980007
:1028c40021318000110798001e0090004800de00ae
:1028d400804078006e009000614098001e009000d7
:1028e400804078006e009000714098001e4078008f
:1028f4000004e0003200320064004700820020003f
:10290400ee009000b5c007002706a8002726a800ff
:1029140020318000804078006e00900011409800c3
:1029240021318000110798001e0090004800de004d
:10293400804078006e009000214098001e009000b6
:10294400804078006e009000314098002131800072
:10295400110798001e0090004800de0080407800b7
:102964006e009000414098001e0090008040780066
:102974006e009000514098002131800011079800aa
:102984001e0090004800de00804078006e00900039
:10299400614098001e009000804078006e00900016
:1029a4007140980064004700820020008000780095
:1029b4006e00900070c007000000e000ceff3a00f7
:1029c4006e009000104078000004a2000004e000b3
:1029d400230032006e009000104090003900070080
:1029e400ee009000904098006e009000204090000f
:1029f40034000700ee009000a04098006e009000a4
:102a0400304090002f000700ee009000b040980086
:102a14006e009000404090002a000700ee009000f5
:102a2400c04098006e0090005040900025000700c0
:102a3400ee009000d04098006e009000604090003e
:102a440020000700ee009000e04098006e00900027
:102a5400704090001b000700ee009000f0409800ca
:102a64000080fa00000006000400fa00004f78001d
:102a74009e80fb00a00020000001780011000900e6
:102a84008280d800004078000080fb004400dd0014
:102a940000407800204798001e81fb00a000200021
:102aa40080017800110009000381d8008000fd0036
:102ab40000407800ae40900000c070000080fa0032
:102ac400000006000200fa00004f78001e80fb00a0
:102ad4004400de00004078006a00b900000078007d
:102ae400804078001e4178006f40610000c04000c3
:102af4000080fa00000006000000fa00c9a2a90044
:102b0400c9c2a900c9e2a90061368000f00f2e00f5
:102b14008080600000402100010070006036880061
:102b240071368000f00f2e0080806000003021009c
:102b340001007000703688007136800000fe2f009e
:102b4400008060002001b300703688000001280076
:102b540020088800f0e12400b00c880000e1240083
:102b6400a00c8800900c8000f001b300900c880049
:102b740092e1a900800c800000a0a10000b0a10097
:102b840000c0a000800c8800800c80000000a10020
:102b94000010a0000020a000800c8800f0e12400b8
:102ba400000d880000e12400f00c8800e00c800097
:102bb400f001b300e00c88009ce1a900d00c800077
:102bc40000a0a10000b0a10000c0a000d00c8800ab
:102bd400d00c80000000a1000010a0000020a00084
:102be400d00c8800f0e12400500d880000e124009e
:102bf400400d8800300d8000f001b300300d8800d6
:102c0400a6e1a900200d800000a0a10000b0a10051
:102c140000c0a000200d8800200d80000000a1004d
:102c24000010a0000020a000200d880000e1240076
:102c340010088800b0e024000b0007000080fa00b0
:102c4400000006000000fa00f0e12400b00c880047
:102c5400f0e12400000d8800f0e12400500d88000c
:102c64000080fa00000006000200fa00000f78005d
:102c74001e007800b00c8800f0e12400000d8800ec
:102c8400f0e12400500d88000080fa0000000600e6
:102c94000000fa00b10c8000101e2b0000804000e0
:102ca4000080fa00000006000200fa00000f78001d
:102cb400f0e12400b00c88001e007800000d8800ac
:102cc400f0e12400500d88000080fa0000000600a6
:102cd4000000fa00010d8000101e2b00008040004f
:102ce4000080fa00000006000200fa00000f7800dd
:102cf400f0e12400b00c8800f0e12400000d88000d
:102d04001e007800500d88000080fa0000000600c4
:102d14000000fa00510d8000101e2b0000804000be
:102d24000080fa00000006000200fa00000f78009c
:102d3400f0e12400b00c88001e007800000d88002b
:102d44001e007800500d88000080fa000000060084
:102d54000000fa00510d8000101e2b0080804000fe
:102d6400020d8000101e2b00000041000080600056
:102d74000080fa00000006000200fa00000f78004c
:102d84001e007800b00c8800f0e12400000d8800db
:102d94001e007800500d88000080fa000000060034
:102da4000000fa00b10c8000101e2b00808040004f
:102db400520d8000101e2b000000410000806000b6
:102dc4000080fa00000006000200fa00000f7800fc
:102dd4001e007800b00c88001e007800000d8800ea
:102de400f0e12400500d88000080fa000000060085
:102df4000000fa00b10c8000101e2b0080804000ff
:102e0400020d8000101e2b000000410000806000b5
:102e14000080fa00000006000200fa00000f7800ab
:102e24001e007800b00c88001e007800000d880099
:102e34001e007800500d88000080fa000000060093
:102e44000000fa00b10c8000101e2b0080804000ae
:102e5400020d8000101e2b000000410080806000e5
:102e6400520d8000101e2b00000041000080600005
:102e74000080fa00000006000000fa00b10c800097
:102e8400101e2b0080804000020d8000101e2b00bd
:102e94000000410081007000520d8000101e2b00c4
:102ea40000004100010070000080fa0000000600ec
:102eb4000000fa00f0ff07000000e0000800320004
:102ec400b00c8000e0448800000d8000f0448800cd
:102ed400500d8000004588005aff070006003700a7
:102ee400e0448000b00c8800f0448000000d8800ad
:102ef40000458000500d88000080fa0000000600a4
:102f04000000fa00300880008000eb000080fa0026
:102f1400000006000200fa0080252000000f78005f
:102f24000080eb006019880044a7a800000000009e
:102f34001e00780000f0a7000000ea000000ea008c
:102f44004f00de00004078001e0fe9000004e0009e
:102f5400f7ff3a004135800000fe2f00008060003a
:102f64009001b30040358800b1368000f00f2e0088
:102f7400808060000070200001007000b03688007e
:102f8400c136800000fe2f00008060000030a000e9
:102f9400c03688006880a90068a0a9009404a8002d
:102fa400c882a900ca82a8007d00070067fb070049
:102fb400d1fe0700c082a800c922a8000080fa0040
:102fc400000006000000fa00d4c2a800d0c2a90084
:102fd400c802a800c822a8000080fa000000060069
:102fe4000200fa00004f78009e40780061c0600043
:102ff4000080fb00610060004600dd00a216800036
:10300400f1fb2f008100610001007000a016880010
:103014000080fa00000006000000fa00501680004c
:103024006100600000f0a7000000ea000000e90071
:103034004f00de00004078000080fa000000060027
:103044000000fa00501680006200600000f0a70043
:103054000000ea000000ea004f00de0000407800b3
:083064000080fa0000000600e4
:020000040000fa
:020000040001f9
:10306c00ba2400000a000000020000000100f20077
:10307c00970e98002298e40097000000ac0800001e
:10308c000015000000000000860800000800000089
:10309c0000000000802400001e0000000200000060
:1030ac000100f200970e98002298e40097688300c4
:1030bc00047cfa007bec7b00a87da200824082009d
:1030cc008024c4007ff27d009608000006000000fa
:1030dc00000000009c08000006000000000000003a
:1030ec008e0800000800000000000000aa08000084
:1030fc000200000002000000ff0000003c24000061
:10310c004400000000000000a208000004000000c1
:10311c0000000000fc1f0000000200000000000086
:10312c00fc21000000020000000000009e240000b2
:10313c001c000000000000006208000024000000d9
:10314c0000000000ac1d0000500200000000000058
:10315c003c080000260000000000000000260000d3
:10316c002000000000000000fc23000040000000d4
:10317c0000000000000800003c00000000000000ff
:10318c00a608000004000000020000003c1efc0029
:08319c001d000000000000000e
:020000040000fa
:020000040001f9
:1031a4000000fa008020ef0001348000f00f2e00b0
:1031b400808060000020200001007000003488003e
:1031c4008680a9009680a800000328008008880053
:1031d40040422f006008880084e0a90094e0a80021
:1031e400600580000040a0000050a1000060a00025
:1031f400600588008620a9009620a80062a0a80087
:103204008660a9009660a8000080fa00000006000d
:10321400801f78000000fa0088c8bf000040e80062
:1032240088e8b70010c0b30087e8b7008680a9001b
:103234000080fa004f00780000400600801f7800ec
:103244000000fa0010c0b30086e8b7008620a90089
:103254000080fa004f007800004006000000fa00e9
:1032640084e0a9000080fa00004006003600f8005f
:10327400809fbe00829fbe00849fbe00869fbe00ca
:103284000000fa008660a90005fa07000080fa0031
:103294004f03be004f02be004f01be004f00be00f0
:1032a4003600f900004006000800fa001102800010
:1032b400000e2000008060000000e00002003a00e0
:1032c4000040eb002e003700700680000080a00054
:1032d4000090a10000a0a100700688008124800055
:1032e400010f7800612480001107980011248000e8
:1032f40021079800f00480004600de006140600071
:10330400604798009024ef008c24ef008224ef00a3
:103314008ec0a9008284a800000120000024880037
:103324009ec0a8000040fe00700680000080a1003e
:103334000090a10000a0a100700688006e409000db
:10334400614060000080fb00610060004600dd0019
:10335400f2048000f1fb2f00810061000100700085
:10336400f00488009e007800812488009e0090006c
:1033740061248800ae0090001124880010c0b300be
:103384000080fa00000006000200fa00000f780036
:103394001e0078000000e0000a003200e10f500037
:1033a4000a003a00101680007000600000f0a700c8
:1033b4000000ea000000ea004f00de000040780050
:1033c400030037000040eb00010037000040eb0031
:1033d4000080fa00000006000200fa00000f7800e6
:1033e4001e0078000000e00004003200e10f5000ed
:1033f40003003a00c082a80001003700000000006a
:103404000080fa000000060001027800610020003c
:103414000009b80091db28000008b80002804000d1
:103424000203200002da49000000e8006a00b80044
:1034340002da70006a00b80002da70006a00b800ac
:1034440002da70006a00b80002da700000000600b8
:103454000000fa00d1c1b30010c0b3008ee307002e
:1034640015ea07000080fa00000006000000fa00d8
:0c347400b5ea07000080fa000000060026
:020000040000fa
:020000040001f9
:083480000040da000000fe002c
:00000001FF
